{
  "abi": [
    {
      "inputs": [],
      "stateMutability": "nonpayable",
      "type": "constructor"
    },
    {
      "anonymous": false,
      "inputs": [
        {
          "indexed": false,
          "internalType": "address",
          "name": "",
          "type": "address"
        },
        {
          "indexed": false,
          "internalType": "uint256",
          "name": "",
          "type": "uint256"
        }
      ],
      "name": "BoughtOut",
      "type": "event"
    },
    {
      "anonymous": false,
      "inputs": [
        {
          "indexed": false,
          "internalType": "address",
          "name": "",
          "type": "address"
        },
        {
          "indexed": false,
          "internalType": "uint256",
          "name": "",
          "type": "uint256"
        }
      ],
      "name": "Claimed",
      "type": "event"
    },
    {
      "anonymous": false,
      "inputs": [
        {
          "indexed": false,
          "internalType": "address",
          "name": "",
          "type": "address"
        },
        {
          "indexed": false,
          "internalType": "uint256",
          "name": "",
          "type": "uint256"
        }
      ],
      "name": "Fractionalized",
      "type": "event"
    },
    {
      "anonymous": false,
      "inputs": [
        {
          "indexed": false,
          "internalType": "address",
          "name": "",
          "type": "address"
        }
      ],
      "name": "NftReceived",
      "type": "event"
    },
    {
      "anonymous": false,
      "inputs": [
        {
          "indexed": false,
          "internalType": "address",
          "name": "",
          "type": "address"
        },
        {
          "indexed": false,
          "internalType": "uint256",
          "name": "",
          "type": "uint256"
        }
      ],
      "name": "Received",
      "type": "event"
    },
    {
      "anonymous": false,
      "inputs": [
        {
          "indexed": false,
          "internalType": "address",
          "name": "",
          "type": "address"
        },
        {
          "indexed": false,
          "internalType": "uint256",
          "name": "",
          "type": "uint256"
        }
      ],
      "name": "Redeemed",
      "type": "event"
    },
    {
      "stateMutability": "payable",
      "type": "fallback"
    },
    {
      "inputs": [
        {
          "internalType": "uint256",
          "name": "fracNFTId",
          "type": "uint256"
        }
      ],
      "name": "buyout",
      "outputs": [],
      "stateMutability": "payable",
      "type": "function"
    },
    {
      "inputs": [
        {
          "internalType": "uint256",
          "name": "fracNFTId",
          "type": "uint256"
        }
      ],
      "name": "claim",
      "outputs": [],
      "stateMutability": "nonpayable",
      "type": "function"
    },
    {
      "inputs": [],
      "name": "fracNFTCount",
      "outputs": [
        {
          "internalType": "uint256",
          "name": "",
          "type": "uint256"
        }
      ],
      "stateMutability": "view",
      "type": "function"
    },
    {
      "inputs": [
        {
          "internalType": "address",
          "name": "nftContractAddress",
          "type": "address"
        },
        {
          "internalType": "uint256",
          "name": "nftTokenId",
          "type": "uint256"
        },
        {
          "internalType": "string",
          "name": "erc20Name",
          "type": "string"
        },
        {
          "internalType": "string",
          "name": "erc20Symbol",
          "type": "string"
        },
        {
          "internalType": "uint256",
          "name": "erc20Supply",
          "type": "uint256"
        },
        {
          "internalType": "uint256",
          "name": "buyoutPrice",
          "type": "uint256"
        }
      ],
      "name": "fractionalizeNft",
      "outputs": [
        {
          "internalType": "uint256",
          "name": "",
          "type": "uint256"
        }
      ],
      "stateMutability": "nonpayable",
      "type": "function"
    },
    {
      "inputs": [
        {
          "internalType": "uint256",
          "name": "fracNFTId",
          "type": "uint256"
        }
      ],
      "name": "getERC20Address",
      "outputs": [
        {
          "internalType": "address",
          "name": "",
          "type": "address"
        }
      ],
      "stateMutability": "view",
      "type": "function"
    },
    {
      "inputs": [
        {
          "internalType": "uint256",
          "name": "fracNFTId",
          "type": "uint256"
        }
      ],
      "name": "getERC20Symbol",
      "outputs": [
        {
          "internalType": "string",
          "name": "",
          "type": "string"
        }
      ],
      "stateMutability": "view",
      "type": "function"
    },
    {
      "inputs": [
        {
          "internalType": "uint256",
          "name": "fracNFTId",
          "type": "uint256"
        }
      ],
      "name": "getState",
      "outputs": [
        {
          "internalType": "enum FractionalizeNFT.State",
          "name": "",
          "type": "uint8"
        }
      ],
      "stateMutability": "view",
      "type": "function"
    },
    {
      "inputs": [
        {
          "internalType": "address",
          "name": "operator",
          "type": "address"
        },
        {
          "internalType": "address",
          "name": "from",
          "type": "address"
        },
        {
          "internalType": "uint256",
          "name": "nftTokenId",
          "type": "uint256"
        },
        {
          "internalType": "bytes",
          "name": "data",
          "type": "bytes"
        }
      ],
      "name": "onERC721Received",
      "outputs": [
        {
          "internalType": "bytes4",
          "name": "",
          "type": "bytes4"
        }
      ],
      "stateMutability": "nonpayable",
      "type": "function"
    },
    {
      "inputs": [],
      "name": "owner",
      "outputs": [
        {
          "internalType": "address",
          "name": "",
          "type": "address"
        }
      ],
      "stateMutability": "view",
      "type": "function"
    },
    {
      "inputs": [
        {
          "internalType": "uint256",
          "name": "fracNFTId",
          "type": "uint256"
        }
      ],
      "name": "redeem",
      "outputs": [],
      "stateMutability": "payable",
      "type": "function"
    },
    {
      "stateMutability": "payable",
      "type": "receive"
    }
  ],
  "bytecode": "6080604052600080546001600160a01b0319163317815560025534801561002557600080fd5b50600080546001600160a01b03191633179055611ec6806100476000396000f3fe608060405260043610620000a15760003560e01c806378fe17e5116200006057806378fe17e514620001e15780637ff58ad914620002155780638da5cb5b146200022d578063d1bc6caa1462000268578063db006a7514620002a557600080fd5b806306fbd1f214620000e657806307bec66f146200011e578063150b7a021462000137578063379607f5146200017657806344c9af28146200019b57600080fd5b36620000e157604080513381523460208201527f88a5966d370b9919b20f3e2c13ff65706f196a4e32cc2c12bf57088f88525874910160405180910390a1005b600080fd5b348015620000f357600080fd5b506200010b6200010536600462000eaa565b620002bc565b6040519081526020015b60405180910390f35b620001356200012f36600462000f43565b620004fd565b005b3480156200014457600080fd5b506200015c6200015636600462000f5d565b6200063f565b6040516001600160e01b0319909116815260200162000115565b3480156200018357600080fd5b50620001356200019536600462000f43565b6200069f565b348015620001a857600080fd5b50620001d2620001ba36600462000f43565b60009081526001602052604090206006015460ff1690565b60405162000115919062000ff8565b348015620001ee57600080fd5b50620002066200020036600462000f43565b620009c0565b60405162000115919062001071565b3480156200022257600080fd5b506200010b60025481565b3480156200023a57600080fd5b506000546200024f906001600160a01b031681565b6040516001600160a01b03909116815260200162000115565b3480156200027557600080fd5b506200024f6200028736600462000f43565b6000908152600160205260409020600201546001600160a01b031690565b62000135620002b636600462000f43565b62000a6d565b604051632142170760e11b815260009087906001600160a01b038216906342842e0e90620002f390339030908c9060040162001086565b600060405180830381600087803b1580156200030e57600080fd5b505af115801562000323573d6000803e3d6000fd5b505050506000868686336040516200033b9062000d1c565b6200034a9493929190620010aa565b604051809103906000f08015801562000367573d6000803e3d6000fd5b5090506040518060e001604052808981526020018a6001600160a01b03168152602001826001600160a01b03168152602001878152602001336001600160a01b0316815260200185815260200160006002811115620003ca57620003ca62000fe2565b905260028054600090815260016020818152604092839020855181558582015192810180546001600160a01b039485166001600160a01b03199182161790915593860151948101805495909316949093169390931790556060830151805191926200043e9260038501929091019062000d2a565b5060808201516004820180546001600160a01b0319166001600160a01b0390921691909117905560a0820151600582015560c082015160068201805460ff1916600183600281111562000495576200049562000fe2565b0217905550506002805491506001906000620004b283856200110b565b909155505060408051338152602081018390527f4356f3fd5c3bfc18a01590adcccb99d62f10c4096f5200887c659cc52043e254910160405180910390a19998505050505050505050565b600081815260016020526040902060050154341015620005745760405162461bcd60e51b815260206004820152602760248201527f53656e6465722073656e74206c657373207468616e20746865206275796f757460448201526610383934b1b29760c91b60648201526084015b60405180910390fd5b60008181526001602081905260409182902060068101805460ff191660021790559081015490549151632142170760e11b81526001600160a01b039091169182916342842e0e91620005cd913091339160040162001086565b600060405180830381600087803b158015620005e857600080fd5b505af1158015620005fd573d6000803e3d6000fd5b505060408051338152602081018690527ffbbd268bb69cf922e3840dc96a6702dc064baf4b2d9594b5a66a2fe428f3f2aa935001905060405180910390a15050565b6040513381526000907fcce71fc9cfcacc4ce8153bde254a735ae423cdc2b7852fb754f4de746ac3018f9060200160405180910390a1507f150b7a023d4804d13e8c85fb27262cb750cf6ba9f9dd3bb30d90f482ceeb4b1f949350505050565b600260008281526001602052604090206006015460ff166002811115620006ca57620006ca62000fe2565b146200072d5760405162461bcd60e51b815260206004820152602b60248201527f4672616374696f6e616c697a6564204e465420686173206e6f74206265656e2060448201526a3137bab3b43a1037baba1760a91b60648201526084016200056b565b6000818152600160205260408082206002015490516370a0823160e01b81523360048201526001600160a01b03909116919082906370a082319060240160206040518083038186803b1580156200078357600080fd5b505afa15801562000798573d6000803e3d6000fd5b505050506040513d601f19601f82011682018060405250810190620007be919062001126565b9050600081116200081c5760405162461bcd60e51b815260206004820152602160248201527f436c61696d657220646f6573206e6f7420686f6c6420616e7920746f6b656e736044820152601760f91b60648201526084016200056b565b6040516323b872dd60e01b81526001600160a01b038316906323b872dd906200084e9033903090869060040162001086565b602060405180830381600087803b1580156200086957600080fd5b505af11580156200087e573d6000803e3d6000fd5b505050506040513d601f19601f82011682018060405250810190620008a4919062001140565b506000826001600160a01b03166318160ddd6040518163ffffffff1660e01b815260040160206040518083038186803b158015620008e157600080fd5b505afa158015620008f6573d6000803e3d6000fd5b505050506040513d601f19601f820116820180604052508101906200091c919062001126565b6000858152600160205260408120600501549192509082906200094190859062001164565b6200094d919062001186565b604051909150339082156108fc029083906000818181858888f193505050501580156200097e573d6000803e3d6000fd5b5060408051338152602081018790527fd8138f8a3f377c5259ca548e70e4c2de94f129f5a11036a15b69513cba2b426a91015b60405180910390a15050505050565b6000818152600160205260409020600301805460609190620009e290620011a9565b80601f016020809104026020016040519081016040528092919081815260200182805462000a1090620011a9565b801562000a615780601f1062000a355761010080835404028352916020019162000a61565b820191906000526020600020905b81548152906001019060200180831162000a4357829003601f168201915b50505050509050919050565b6000818152600160205260408082206002015490516370a0823160e01b81523360048201526001600160a01b03909116919082906370a082319060240160206040518083038186803b15801562000ac357600080fd5b505afa15801562000ad8573d6000803e3d6000fd5b505050506040513d601f19601f8201168201806040525081019062000afe919062001126565b90506000826001600160a01b03166318160ddd6040518163ffffffff1660e01b815260040160206040518083038186803b15801562000b3c57600080fd5b505afa15801562000b51573d6000803e3d6000fd5b505050506040513d601f19601f8201168201806040525081019062000b77919062001126565b905080821462000bdd5760405162461bcd60e51b815260206004820152602a60248201527f52656465656d65657220646f6573206e6f7420686f6c642074686520656e746960448201526939329039bab838363c9760b11b60648201526084016200056b565b6040516323b872dd60e01b81526001600160a01b038416906323b872dd9062000c0f9033903090879060040162001086565b602060405180830381600087803b15801562000c2a57600080fd5b505af115801562000c3f573d6000803e3d6000fd5b505050506040513d601f19601f8201168201806040525081019062000c65919062001140565b506000848152600160208190526040918290209081015490549151632142170760e11b81526001600160a01b039091169182916342842e0e9162000cb0913091339160040162001086565b600060405180830381600087803b15801562000ccb57600080fd5b505af115801562000ce0573d6000803e3d6000fd5b505060408051338152602081018990527f4896181ff8f4543cc00db9fe9b6fb7e6f032b7eb772c72ab1ec1b4d2e03b93699350019050620009b1565b610caa80620011e783390190565b82805462000d3890620011a9565b90600052602060002090601f01602090048101928262000d5c576000855562000da7565b82601f1062000d7757805160ff191683800117855562000da7565b8280016001018555821562000da7579182015b8281111562000da757825182559160200191906001019062000d8a565b5062000db592915062000db9565b5090565b5b8082111562000db5576000815560010162000dba565b80356001600160a01b038116811462000de857600080fd5b919050565b634e487b7160e01b600052604160045260246000fd5b600067ffffffffffffffff8084111562000e215762000e2162000ded565b604051601f8501601f19908116603f0116810190828211818310171562000e4c5762000e4c62000ded565b8160405280935085815286868601111562000e6657600080fd5b858560208301376000602087830101525050509392505050565b600082601f83011262000e9257600080fd5b62000ea38383356020850162000e03565b9392505050565b60008060008060008060c0878903121562000ec457600080fd5b62000ecf8762000dd0565b955060208701359450604087013567ffffffffffffffff8082111562000ef457600080fd5b62000f028a838b0162000e80565b9550606089013591508082111562000f1957600080fd5b5062000f2889828a0162000e80565b9350506080870135915060a087013590509295509295509295565b60006020828403121562000f5657600080fd5b5035919050565b6000806000806080858703121562000f7457600080fd5b62000f7f8562000dd0565b935062000f8f6020860162000dd0565b925060408501359150606085013567ffffffffffffffff81111562000fb357600080fd5b8501601f8101871362000fc557600080fd5b62000fd68782356020840162000e03565b91505092959194509250565b634e487b7160e01b600052602160045260246000fd5b60208101600383106200101b57634e487b7160e01b600052602160045260246000fd5b91905290565b6000815180845260005b8181101562001049576020818501810151868301820152016200102b565b818111156200105c576000602083870101525b50601f01601f19169290920160200192915050565b60208152600062000ea3602083018462001021565b6001600160a01b039384168152919092166020820152604081019190915260600190565b608081526000620010bf608083018762001021565b8281036020840152620010d3818762001021565b604084019590955250506001600160a01b039190911660609091015292915050565b634e487b7160e01b600052601160045260246000fd5b60008219821115620011215762001121620010f5565b500190565b6000602082840312156200113957600080fd5b5051919050565b6000602082840312156200115357600080fd5b8151801515811462000ea357600080fd5b6000816000190483118215151615620011815762001181620010f5565b500290565b600082620011a457634e487b7160e01b600052601260045260246000fd5b500490565b600181811c90821680620011be57607f821691505b60208210811415620011e057634e487b7160e01b600052602260045260246000fd5b5091905056fe60806040523480156200001157600080fd5b5060405162000caa38038062000caa8339810160408190526200003491620002dd565b8351849084906200004d9060039060208501906200016a565b508051620000639060049060208401906200016a565b5050506200007881836200008260201b60201c565b50505050620003d6565b6001600160a01b038216620000dd5760405162461bcd60e51b815260206004820152601f60248201527f45524332303a206d696e7420746f20746865207a65726f206164647265737300604482015260640160405180910390fd5b8060026000828254620000f1919062000372565b90915550506001600160a01b038216600090815260208190526040812080548392906200012090849062000372565b90915550506040518181526001600160a01b038316906000907fddf252ad1be2c89b69c2b068fc378daa952ba7f163c4a11628f55a4df523b3ef9060200160405180910390a35050565b828054620001789062000399565b90600052602060002090601f0160209004810192826200019c5760008555620001e7565b82601f10620001b757805160ff1916838001178555620001e7565b82800160010185558215620001e7579182015b82811115620001e7578251825591602001919060010190620001ca565b50620001f5929150620001f9565b5090565b5b80821115620001f55760008155600101620001fa565b634e487b7160e01b600052604160045260246000fd5b600082601f8301126200023857600080fd5b81516001600160401b038082111562000255576200025562000210565b604051601f8301601f19908116603f0116810190828211818310171562000280576200028062000210565b816040528381526020925086838588010111156200029d57600080fd5b600091505b83821015620002c15785820183015181830184015290820190620002a2565b83821115620002d35760008385830101525b9695505050505050565b60008060008060808587031215620002f457600080fd5b84516001600160401b03808211156200030c57600080fd5b6200031a8883890162000226565b955060208701519150808211156200033157600080fd5b50620003408782880162000226565b60408701516060880151919550935090506001600160a01b03811681146200036757600080fd5b939692955090935050565b600082198211156200039457634e487b7160e01b600052601160045260246000fd5b500190565b600181811c90821680620003ae57607f821691505b60208210811415620003d057634e487b7160e01b600052602260045260246000fd5b50919050565b6108c480620003e66000396000f3fe608060405234801561001057600080fd5b50600436106100a95760003560e01c80633950935111610071578063395093511461012357806370a082311461013657806395d89b411461015f578063a457c2d714610167578063a9059cbb1461017a578063dd62ed3e1461018d57600080fd5b806306fdde03146100ae578063095ea7b3146100cc57806318160ddd146100ef57806323b872dd14610101578063313ce56714610114575b600080fd5b6100b66101c6565b6040516100c39190610701565b60405180910390f35b6100df6100da366004610772565b610258565b60405190151581526020016100c3565b6002545b6040519081526020016100c3565b6100df61010f36600461079c565b61026e565b604051601281526020016100c3565b6100df610131366004610772565b61031d565b6100f36101443660046107d8565b6001600160a01b031660009081526020819052604090205490565b6100b6610359565b6100df610175366004610772565b610368565b6100df610188366004610772565b610401565b6100f361019b3660046107fa565b6001600160a01b03918216600090815260016020908152604080832093909416825291909152205490565b6060600380546101d59061082d565b80601f01602080910402602001604051908101604052809291908181526020018280546102019061082d565b801561024e5780601f106102235761010080835404028352916020019161024e565b820191906000526020600020905b81548152906001019060200180831161023157829003601f168201915b5050505050905090565b600061026533848461040e565b50600192915050565b600061027b848484610532565b6001600160a01b0384166000908152600160209081526040808320338452909152902054828110156103055760405162461bcd60e51b815260206004820152602860248201527f45524332303a207472616e7366657220616d6f756e74206578636565647320616044820152676c6c6f77616e636560c01b60648201526084015b60405180910390fd5b610312853385840361040e565b506001949350505050565b3360008181526001602090815260408083206001600160a01b03871684529091528120549091610265918590610354908690610868565b61040e565b6060600480546101d59061082d565b3360009081526001602090815260408083206001600160a01b0386168452909152812054828110156103ea5760405162461bcd60e51b815260206004820152602560248201527f45524332303a2064656372656173656420616c6c6f77616e63652062656c6f77604482015264207a65726f60d81b60648201526084016102fc565b6103f7338585840361040e565b5060019392505050565b6000610265338484610532565b6001600160a01b0383166104705760405162461bcd60e51b8152602060048201526024808201527f45524332303a20617070726f76652066726f6d20746865207a65726f206164646044820152637265737360e01b60648201526084016102fc565b6001600160a01b0382166104d15760405162461bcd60e51b815260206004820152602260248201527f45524332303a20617070726f766520746f20746865207a65726f206164647265604482015261737360f01b60648201526084016102fc565b6001600160a01b0383811660008181526001602090815260408083209487168084529482529182902085905590518481527f8c5be1e5ebec7d5bd14f71427d1e84f3dd0314c0f7b2291e5b200ac8c7c3b925910160405180910390a3505050565b6001600160a01b0383166105965760405162461bcd60e51b815260206004820152602560248201527f45524332303a207472616e736665722066726f6d20746865207a65726f206164604482015264647265737360d81b60648201526084016102fc565b6001600160a01b0382166105f85760405162461bcd60e51b815260206004820152602360248201527f45524332303a207472616e7366657220746f20746865207a65726f206164647260448201526265737360e81b60648201526084016102fc565b6001600160a01b038316600090815260208190526040902054818110156106705760405162461bcd60e51b815260206004820152602660248201527f45524332303a207472616e7366657220616d6f756e7420657863656564732062604482015265616c616e636560d01b60648201526084016102fc565b6001600160a01b038085166000908152602081905260408082208585039055918516815290812080548492906106a7908490610868565b92505081905550826001600160a01b0316846001600160a01b03167fddf252ad1be2c89b69c2b068fc378daa952ba7f163c4a11628f55a4df523b3ef846040516106f391815260200190565b60405180910390a350505050565b600060208083528351808285015260005b8181101561072e57858101830151858201604001528201610712565b81811115610740576000604083870101525b50601f01601f1916929092016040019392505050565b80356001600160a01b038116811461076d57600080fd5b919050565b6000806040838503121561078557600080fd5b61078e83610756565b946020939093013593505050565b6000806000606084860312156107b157600080fd5b6107ba84610756565b92506107c860208501610756565b9150604084013590509250925092565b6000602082840312156107ea57600080fd5b6107f382610756565b9392505050565b6000806040838503121561080d57600080fd5b61081683610756565b915061082460208401610756565b90509250929050565b600181811c9082168061084157607f821691505b6020821081141561086257634e487b7160e01b600052602260045260246000fd5b50919050565b6000821982111561088957634e487b7160e01b600052601160045260246000fd5b50019056fea2646970667358221220af78008638528eec26bd4cc85b97c678fda33ac96c30d301338538464b6d994b64736f6c63430008090033a2646970667358221220940c487934fbd90ad8ad17fc66ab459a53e67e2e9b1c6674fdb6b8cae58374c264736f6c63430008090033",
  "bytecodeSha1": "83df778d5266eef0f48880e32c3af0d30c252f01",
  "compiler": {
    "evm_version": "istanbul",
    "optimizer": {
      "enabled": true,
      "runs": 200
    },
    "version": "0.8.9+commit.e5eed63a"
  },
  "contractName": "FractionalizeNFT",
  "language": "Solidity",
  "natspec": {
    "kind": "dev",
    "methods": {},
    "version": 1
  },
  "opcodes": "PUSH1 0x80 PUSH1 0x40 MSTORE PUSH1 0x4 CALLDATASIZE LT PUSH3 0xA1 JUMPI PUSH1 0x0 CALLDATALOAD PUSH1 0xE0 SHR DUP1 PUSH4 0x78FE17E5 GT PUSH3 0x60 JUMPI DUP1 PUSH4 0x78FE17E5 EQ PUSH3 0x1E1 JUMPI DUP1 PUSH4 0x7FF58AD9 EQ PUSH3 0x215 JUMPI DUP1 PUSH4 0x8DA5CB5B EQ PUSH3 0x22D JUMPI DUP1 PUSH4 0xD1BC6CAA EQ PUSH3 0x268 JUMPI DUP1 PUSH4 0xDB006A75 EQ PUSH3 0x2A5 JUMPI PUSH1 0x0 DUP1 REVERT JUMPDEST DUP1 PUSH4 0x6FBD1F2 EQ PUSH3 0xE6 JUMPI DUP1 PUSH4 0x7BEC66F EQ PUSH3 0x11E JUMPI DUP1 PUSH4 0x150B7A02 EQ PUSH3 0x137 JUMPI DUP1 PUSH4 0x379607F5 EQ PUSH3 0x176 JUMPI DUP1 PUSH4 0x44C9AF28 EQ PUSH3 0x19B JUMPI PUSH1 0x0 DUP1 REVERT JUMPDEST CALLDATASIZE PUSH3 0xE1 JUMPI PUSH1 0x40 DUP1 MLOAD CALLER DUP2 MSTORE CALLVALUE PUSH1 0x20 DUP3 ADD MSTORE PUSH32 0x88A5966D370B9919B20F3E2C13FF65706F196A4E32CC2C12BF57088F88525874 SWAP2 ADD PUSH1 0x40 MLOAD DUP1 SWAP2 SUB SWAP1 LOG1 STOP JUMPDEST PUSH1 0x0 DUP1 REVERT JUMPDEST CALLVALUE DUP1 ISZERO PUSH3 0xF3 JUMPI PUSH1 0x0 DUP1 REVERT JUMPDEST POP PUSH3 0x10B PUSH3 0x105 CALLDATASIZE PUSH1 0x4 PUSH3 0xEAA JUMP JUMPDEST PUSH3 0x2BC JUMP JUMPDEST PUSH1 0x40 MLOAD SWAP1 DUP2 MSTORE PUSH1 0x20 ADD JUMPDEST PUSH1 0x40 MLOAD DUP1 SWAP2 SUB SWAP1 RETURN JUMPDEST PUSH3 0x135 PUSH3 0x12F CALLDATASIZE PUSH1 0x4 PUSH3 0xF43 JUMP JUMPDEST PUSH3 0x4FD JUMP JUMPDEST STOP JUMPDEST CALLVALUE DUP1 ISZERO PUSH3 0x144 JUMPI PUSH1 0x0 DUP1 REVERT JUMPDEST POP PUSH3 0x15C PUSH3 0x156 CALLDATASIZE PUSH1 0x4 PUSH3 0xF5D JUMP JUMPDEST PUSH3 0x63F JUMP JUMPDEST PUSH1 0x40 MLOAD PUSH1 0x1 PUSH1 0x1 PUSH1 0xE0 SHL SUB NOT SWAP1 SWAP2 AND DUP2 MSTORE PUSH1 0x20 ADD PUSH3 0x115 JUMP JUMPDEST CALLVALUE DUP1 ISZERO PUSH3 0x183 JUMPI PUSH1 0x0 DUP1 REVERT JUMPDEST POP PUSH3 0x135 PUSH3 0x195 CALLDATASIZE PUSH1 0x4 PUSH3 0xF43 JUMP JUMPDEST PUSH3 0x69F JUMP JUMPDEST CALLVALUE DUP1 ISZERO PUSH3 0x1A8 JUMPI PUSH1 0x0 DUP1 REVERT JUMPDEST POP PUSH3 0x1D2 PUSH3 0x1BA CALLDATASIZE PUSH1 0x4 PUSH3 0xF43 JUMP JUMPDEST PUSH1 0x0 SWAP1 DUP2 MSTORE PUSH1 0x1 PUSH1 0x20 MSTORE PUSH1 0x40 SWAP1 KECCAK256 PUSH1 0x6 ADD SLOAD PUSH1 0xFF AND SWAP1 JUMP JUMPDEST PUSH1 0x40 MLOAD PUSH3 0x115 SWAP2 SWAP1 PUSH3 0xFF8 JUMP JUMPDEST CALLVALUE DUP1 ISZERO PUSH3 0x1EE JUMPI PUSH1 0x0 DUP1 REVERT JUMPDEST POP PUSH3 0x206 PUSH3 0x200 CALLDATASIZE PUSH1 0x4 PUSH3 0xF43 JUMP JUMPDEST PUSH3 0x9C0 JUMP JUMPDEST PUSH1 0x40 MLOAD PUSH3 0x115 SWAP2 SWAP1 PUSH3 0x1071 JUMP JUMPDEST CALLVALUE DUP1 ISZERO PUSH3 0x222 JUMPI PUSH1 0x0 DUP1 REVERT JUMPDEST POP PUSH3 0x10B PUSH1 0x2 SLOAD DUP2 JUMP JUMPDEST CALLVALUE DUP1 ISZERO PUSH3 0x23A JUMPI PUSH1 0x0 DUP1 REVERT JUMPDEST POP PUSH1 0x0 SLOAD PUSH3 0x24F SWAP1 PUSH1 0x1 PUSH1 0x1 PUSH1 0xA0 SHL SUB AND DUP2 JUMP JUMPDEST PUSH1 0x40 MLOAD PUSH1 0x1 PUSH1 0x1 PUSH1 0xA0 SHL SUB SWAP1 SWAP2 AND DUP2 MSTORE PUSH1 0x20 ADD PUSH3 0x115 JUMP JUMPDEST CALLVALUE DUP1 ISZERO PUSH3 0x275 JUMPI PUSH1 0x0 DUP1 REVERT JUMPDEST POP PUSH3 0x24F PUSH3 0x287 CALLDATASIZE PUSH1 0x4 PUSH3 0xF43 JUMP JUMPDEST PUSH1 0x0 SWAP1 DUP2 MSTORE PUSH1 0x1 PUSH1 0x20 MSTORE PUSH1 0x40 SWAP1 KECCAK256 PUSH1 0x2 ADD SLOAD PUSH1 0x1 PUSH1 0x1 PUSH1 0xA0 SHL SUB AND SWAP1 JUMP JUMPDEST PUSH3 0x135 PUSH3 0x2B6 CALLDATASIZE PUSH1 0x4 PUSH3 0xF43 JUMP JUMPDEST PUSH3 0xA6D JUMP JUMPDEST PUSH1 0x40 MLOAD PUSH4 0x21421707 PUSH1 0xE1 SHL DUP2 MSTORE PUSH1 0x0 SWAP1 DUP8 SWAP1 PUSH1 0x1 PUSH1 0x1 PUSH1 0xA0 SHL SUB DUP3 AND SWAP1 PUSH4 0x42842E0E SWAP1 PUSH3 0x2F3 SWAP1 CALLER SWAP1 ADDRESS SWAP1 DUP13 SWAP1 PUSH1 0x4 ADD PUSH3 0x1086 JUMP JUMPDEST PUSH1 0x0 PUSH1 0x40 MLOAD DUP1 DUP4 SUB DUP2 PUSH1 0x0 DUP8 DUP1 EXTCODESIZE ISZERO DUP1 ISZERO PUSH3 0x30E JUMPI PUSH1 0x0 DUP1 REVERT JUMPDEST POP GAS CALL ISZERO DUP1 ISZERO PUSH3 0x323 JUMPI RETURNDATASIZE PUSH1 0x0 DUP1 RETURNDATACOPY RETURNDATASIZE PUSH1 0x0 REVERT JUMPDEST POP POP POP POP PUSH1 0x0 DUP7 DUP7 DUP7 CALLER PUSH1 0x40 MLOAD PUSH3 0x33B SWAP1 PUSH3 0xD1C JUMP JUMPDEST PUSH3 0x34A SWAP5 SWAP4 SWAP3 SWAP2 SWAP1 PUSH3 0x10AA JUMP JUMPDEST PUSH1 0x40 MLOAD DUP1 SWAP2 SUB SWAP1 PUSH1 0x0 CREATE DUP1 ISZERO DUP1 ISZERO PUSH3 0x367 JUMPI RETURNDATASIZE PUSH1 0x0 DUP1 RETURNDATACOPY RETURNDATASIZE PUSH1 0x0 REVERT JUMPDEST POP SWAP1 POP PUSH1 0x40 MLOAD DUP1 PUSH1 0xE0 ADD PUSH1 0x40 MSTORE DUP1 DUP10 DUP2 MSTORE PUSH1 0x20 ADD DUP11 PUSH1 0x1 PUSH1 0x1 PUSH1 0xA0 SHL SUB AND DUP2 MSTORE PUSH1 0x20 ADD DUP3 PUSH1 0x1 PUSH1 0x1 PUSH1 0xA0 SHL SUB AND DUP2 MSTORE PUSH1 0x20 ADD DUP8 DUP2 MSTORE PUSH1 0x20 ADD CALLER PUSH1 0x1 PUSH1 0x1 PUSH1 0xA0 SHL SUB AND DUP2 MSTORE PUSH1 0x20 ADD DUP6 DUP2 MSTORE PUSH1 0x20 ADD PUSH1 0x0 PUSH1 0x2 DUP2 GT ISZERO PUSH3 0x3CA JUMPI PUSH3 0x3CA PUSH3 0xFE2 JUMP JUMPDEST SWAP1 MSTORE PUSH1 0x2 DUP1 SLOAD PUSH1 0x0 SWAP1 DUP2 MSTORE PUSH1 0x1 PUSH1 0x20 DUP2 DUP2 MSTORE PUSH1 0x40 SWAP3 DUP4 SWAP1 KECCAK256 DUP6 MLOAD DUP2 SSTORE DUP6 DUP3 ADD MLOAD SWAP3 DUP2 ADD DUP1 SLOAD PUSH1 0x1 PUSH1 0x1 PUSH1 0xA0 SHL SUB SWAP5 DUP6 AND PUSH1 0x1 PUSH1 0x1 PUSH1 0xA0 SHL SUB NOT SWAP2 DUP3 AND OR SWAP1 SWAP2 SSTORE SWAP4 DUP7 ADD MLOAD SWAP5 DUP2 ADD DUP1 SLOAD SWAP6 SWAP1 SWAP4 AND SWAP5 SWAP1 SWAP4 AND SWAP4 SWAP1 SWAP4 OR SWAP1 SSTORE PUSH1 0x60 DUP4 ADD MLOAD DUP1 MLOAD SWAP2 SWAP3 PUSH3 0x43E SWAP3 PUSH1 0x3 DUP6 ADD SWAP3 SWAP1 SWAP2 ADD SWAP1 PUSH3 0xD2A JUMP JUMPDEST POP PUSH1 0x80 DUP3 ADD MLOAD PUSH1 0x4 DUP3 ADD DUP1 SLOAD PUSH1 0x1 PUSH1 0x1 PUSH1 0xA0 SHL SUB NOT AND PUSH1 0x1 PUSH1 0x1 PUSH1 0xA0 SHL SUB SWAP1 SWAP3 AND SWAP2 SWAP1 SWAP2 OR SWAP1 SSTORE PUSH1 0xA0 DUP3 ADD MLOAD PUSH1 0x5 DUP3 ADD SSTORE PUSH1 0xC0 DUP3 ADD MLOAD PUSH1 0x6 DUP3 ADD DUP1 SLOAD PUSH1 0xFF NOT AND PUSH1 0x1 DUP4 PUSH1 0x2 DUP2 GT ISZERO PUSH3 0x495 JUMPI PUSH3 0x495 PUSH3 0xFE2 JUMP JUMPDEST MUL OR SWAP1 SSTORE POP POP PUSH1 0x2 DUP1 SLOAD SWAP2 POP PUSH1 0x1 SWAP1 PUSH1 0x0 PUSH3 0x4B2 DUP4 DUP6 PUSH3 0x110B JUMP JUMPDEST SWAP1 SWAP2 SSTORE POP POP PUSH1 0x40 DUP1 MLOAD CALLER DUP2 MSTORE PUSH1 0x20 DUP2 ADD DUP4 SWAP1 MSTORE PUSH32 0x4356F3FD5C3BFC18A01590ADCCCB99D62F10C4096F5200887C659CC52043E254 SWAP2 ADD PUSH1 0x40 MLOAD DUP1 SWAP2 SUB SWAP1 LOG1 SWAP10 SWAP9 POP POP POP POP POP POP POP POP POP JUMP JUMPDEST PUSH1 0x0 DUP2 DUP2 MSTORE PUSH1 0x1 PUSH1 0x20 MSTORE PUSH1 0x40 SWAP1 KECCAK256 PUSH1 0x5 ADD SLOAD CALLVALUE LT ISZERO PUSH3 0x574 JUMPI PUSH1 0x40 MLOAD PUSH3 0x461BCD PUSH1 0xE5 SHL DUP2 MSTORE PUSH1 0x20 PUSH1 0x4 DUP3 ADD MSTORE PUSH1 0x27 PUSH1 0x24 DUP3 ADD MSTORE PUSH32 0x53656E6465722073656E74206C657373207468616E20746865206275796F7574 PUSH1 0x44 DUP3 ADD MSTORE PUSH7 0x10383934B1B297 PUSH1 0xC9 SHL PUSH1 0x64 DUP3 ADD MSTORE PUSH1 0x84 ADD JUMPDEST PUSH1 0x40 MLOAD DUP1 SWAP2 SUB SWAP1 REVERT JUMPDEST PUSH1 0x0 DUP2 DUP2 MSTORE PUSH1 0x1 PUSH1 0x20 DUP2 SWAP1 MSTORE PUSH1 0x40 SWAP2 DUP3 SWAP1 KECCAK256 PUSH1 0x6 DUP2 ADD DUP1 SLOAD PUSH1 0xFF NOT AND PUSH1 0x2 OR SWAP1 SSTORE SWAP1 DUP2 ADD SLOAD SWAP1 SLOAD SWAP2 MLOAD PUSH4 0x21421707 PUSH1 0xE1 SHL DUP2 MSTORE PUSH1 0x1 PUSH1 0x1 PUSH1 0xA0 SHL SUB SWAP1 SWAP2 AND SWAP2 DUP3 SWAP2 PUSH4 0x42842E0E SWAP2 PUSH3 0x5CD SWAP2 ADDRESS SWAP2 CALLER SWAP2 PUSH1 0x4 ADD PUSH3 0x1086 JUMP JUMPDEST PUSH1 0x0 PUSH1 0x40 MLOAD DUP1 DUP4 SUB DUP2 PUSH1 0x0 DUP8 DUP1 EXTCODESIZE ISZERO DUP1 ISZERO PUSH3 0x5E8 JUMPI PUSH1 0x0 DUP1 REVERT JUMPDEST POP GAS CALL ISZERO DUP1 ISZERO PUSH3 0x5FD JUMPI RETURNDATASIZE PUSH1 0x0 DUP1 RETURNDATACOPY RETURNDATASIZE PUSH1 0x0 REVERT JUMPDEST POP POP PUSH1 0x40 DUP1 MLOAD CALLER DUP2 MSTORE PUSH1 0x20 DUP2 ADD DUP7 SWAP1 MSTORE PUSH32 0xFBBD268BB69CF922E3840DC96A6702DC064BAF4B2D9594B5A66A2FE428F3F2AA SWAP4 POP ADD SWAP1 POP PUSH1 0x40 MLOAD DUP1 SWAP2 SUB SWAP1 LOG1 POP POP JUMP JUMPDEST PUSH1 0x40 MLOAD CALLER DUP2 MSTORE PUSH1 0x0 SWAP1 PUSH32 0xCCE71FC9CFCACC4CE8153BDE254A735AE423CDC2B7852FB754F4DE746AC3018F SWAP1 PUSH1 0x20 ADD PUSH1 0x40 MLOAD DUP1 SWAP2 SUB SWAP1 LOG1 POP PUSH32 0x150B7A023D4804D13E8C85FB27262CB750CF6BA9F9DD3BB30D90F482CEEB4B1F SWAP5 SWAP4 POP POP POP POP JUMP JUMPDEST PUSH1 0x2 PUSH1 0x0 DUP3 DUP2 MSTORE PUSH1 0x1 PUSH1 0x20 MSTORE PUSH1 0x40 SWAP1 KECCAK256 PUSH1 0x6 ADD SLOAD PUSH1 0xFF AND PUSH1 0x2 DUP2 GT ISZERO PUSH3 0x6CA JUMPI PUSH3 0x6CA PUSH3 0xFE2 JUMP JUMPDEST EQ PUSH3 0x72D JUMPI PUSH1 0x40 MLOAD PUSH3 0x461BCD PUSH1 0xE5 SHL DUP2 MSTORE PUSH1 0x20 PUSH1 0x4 DUP3 ADD MSTORE PUSH1 0x2B PUSH1 0x24 DUP3 ADD MSTORE PUSH32 0x4672616374696F6E616C697A6564204E465420686173206E6F74206265656E20 PUSH1 0x44 DUP3 ADD MSTORE PUSH11 0x3137BAB3B43A1037BABA17 PUSH1 0xA9 SHL PUSH1 0x64 DUP3 ADD MSTORE PUSH1 0x84 ADD PUSH3 0x56B JUMP JUMPDEST PUSH1 0x0 DUP2 DUP2 MSTORE PUSH1 0x1 PUSH1 0x20 MSTORE PUSH1 0x40 DUP1 DUP3 KECCAK256 PUSH1 0x2 ADD SLOAD SWAP1 MLOAD PUSH4 0x70A08231 PUSH1 0xE0 SHL DUP2 MSTORE CALLER PUSH1 0x4 DUP3 ADD MSTORE PUSH1 0x1 PUSH1 0x1 PUSH1 0xA0 SHL SUB SWAP1 SWAP2 AND SWAP2 SWAP1 DUP3 SWAP1 PUSH4 0x70A08231 SWAP1 PUSH1 0x24 ADD PUSH1 0x20 PUSH1 0x40 MLOAD DUP1 DUP4 SUB DUP2 DUP7 DUP1 EXTCODESIZE ISZERO DUP1 ISZERO PUSH3 0x783 JUMPI PUSH1 0x0 DUP1 REVERT JUMPDEST POP GAS STATICCALL ISZERO DUP1 ISZERO PUSH3 0x798 JUMPI RETURNDATASIZE PUSH1 0x0 DUP1 RETURNDATACOPY RETURNDATASIZE PUSH1 0x0 REVERT JUMPDEST POP POP POP POP PUSH1 0x40 MLOAD RETURNDATASIZE PUSH1 0x1F NOT PUSH1 0x1F DUP3 ADD AND DUP3 ADD DUP1 PUSH1 0x40 MSTORE POP DUP2 ADD SWAP1 PUSH3 0x7BE SWAP2 SWAP1 PUSH3 0x1126 JUMP JUMPDEST SWAP1 POP PUSH1 0x0 DUP2 GT PUSH3 0x81C JUMPI PUSH1 0x40 MLOAD PUSH3 0x461BCD PUSH1 0xE5 SHL DUP2 MSTORE PUSH1 0x20 PUSH1 0x4 DUP3 ADD MSTORE PUSH1 0x21 PUSH1 0x24 DUP3 ADD MSTORE PUSH32 0x436C61696D657220646F6573206E6F7420686F6C6420616E7920746F6B656E73 PUSH1 0x44 DUP3 ADD MSTORE PUSH1 0x17 PUSH1 0xF9 SHL PUSH1 0x64 DUP3 ADD MSTORE PUSH1 0x84 ADD PUSH3 0x56B JUMP JUMPDEST PUSH1 0x40 MLOAD PUSH4 0x23B872DD PUSH1 0xE0 SHL DUP2 MSTORE PUSH1 0x1 PUSH1 0x1 PUSH1 0xA0 SHL SUB DUP4 AND SWAP1 PUSH4 0x23B872DD SWAP1 PUSH3 0x84E SWAP1 CALLER SWAP1 ADDRESS SWAP1 DUP7 SWAP1 PUSH1 0x4 ADD PUSH3 0x1086 JUMP JUMPDEST PUSH1 0x20 PUSH1 0x40 MLOAD DUP1 DUP4 SUB DUP2 PUSH1 0x0 DUP8 DUP1 EXTCODESIZE ISZERO DUP1 ISZERO PUSH3 0x869 JUMPI PUSH1 0x0 DUP1 REVERT JUMPDEST POP GAS CALL ISZERO DUP1 ISZERO PUSH3 0x87E JUMPI RETURNDATASIZE PUSH1 0x0 DUP1 RETURNDATACOPY RETURNDATASIZE PUSH1 0x0 REVERT JUMPDEST POP POP POP POP PUSH1 0x40 MLOAD RETURNDATASIZE PUSH1 0x1F NOT PUSH1 0x1F DUP3 ADD AND DUP3 ADD DUP1 PUSH1 0x40 MSTORE POP DUP2 ADD SWAP1 PUSH3 0x8A4 SWAP2 SWAP1 PUSH3 0x1140 JUMP JUMPDEST POP PUSH1 0x0 DUP3 PUSH1 0x1 PUSH1 0x1 PUSH1 0xA0 SHL SUB AND PUSH4 0x18160DDD PUSH1 0x40 MLOAD DUP2 PUSH4 0xFFFFFFFF AND PUSH1 0xE0 SHL DUP2 MSTORE PUSH1 0x4 ADD PUSH1 0x20 PUSH1 0x40 MLOAD DUP1 DUP4 SUB DUP2 DUP7 DUP1 EXTCODESIZE ISZERO DUP1 ISZERO PUSH3 0x8E1 JUMPI PUSH1 0x0 DUP1 REVERT JUMPDEST POP GAS STATICCALL ISZERO DUP1 ISZERO PUSH3 0x8F6 JUMPI RETURNDATASIZE PUSH1 0x0 DUP1 RETURNDATACOPY RETURNDATASIZE PUSH1 0x0 REVERT JUMPDEST POP POP POP POP PUSH1 0x40 MLOAD RETURNDATASIZE PUSH1 0x1F NOT PUSH1 0x1F DUP3 ADD AND DUP3 ADD DUP1 PUSH1 0x40 MSTORE POP DUP2 ADD SWAP1 PUSH3 0x91C SWAP2 SWAP1 PUSH3 0x1126 JUMP JUMPDEST PUSH1 0x0 DUP6 DUP2 MSTORE PUSH1 0x1 PUSH1 0x20 MSTORE PUSH1 0x40 DUP2 KECCAK256 PUSH1 0x5 ADD SLOAD SWAP2 SWAP3 POP SWAP1 DUP3 SWAP1 PUSH3 0x941 SWAP1 DUP6 SWAP1 PUSH3 0x1164 JUMP JUMPDEST PUSH3 0x94D SWAP2 SWAP1 PUSH3 0x1186 JUMP JUMPDEST PUSH1 0x40 MLOAD SWAP1 SWAP2 POP CALLER SWAP1 DUP3 ISZERO PUSH2 0x8FC MUL SWAP1 DUP4 SWAP1 PUSH1 0x0 DUP2 DUP2 DUP2 DUP6 DUP9 DUP9 CALL SWAP4 POP POP POP POP ISZERO DUP1 ISZERO PUSH3 0x97E JUMPI RETURNDATASIZE PUSH1 0x0 DUP1 RETURNDATACOPY RETURNDATASIZE PUSH1 0x0 REVERT JUMPDEST POP PUSH1 0x40 DUP1 MLOAD CALLER DUP2 MSTORE PUSH1 0x20 DUP2 ADD DUP8 SWAP1 MSTORE PUSH32 0xD8138F8A3F377C5259CA548E70E4C2DE94F129F5A11036A15B69513CBA2B426A SWAP2 ADD JUMPDEST PUSH1 0x40 MLOAD DUP1 SWAP2 SUB SWAP1 LOG1 POP POP POP POP POP JUMP JUMPDEST PUSH1 0x0 DUP2 DUP2 MSTORE PUSH1 0x1 PUSH1 0x20 MSTORE PUSH1 0x40 SWAP1 KECCAK256 PUSH1 0x3 ADD DUP1 SLOAD PUSH1 0x60 SWAP2 SWAP1 PUSH3 0x9E2 SWAP1 PUSH3 0x11A9 JUMP JUMPDEST DUP1 PUSH1 0x1F ADD PUSH1 0x20 DUP1 SWAP2 DIV MUL PUSH1 0x20 ADD PUSH1 0x40 MLOAD SWAP1 DUP2 ADD PUSH1 0x40 MSTORE DUP1 SWAP3 SWAP2 SWAP1 DUP2 DUP2 MSTORE PUSH1 0x20 ADD DUP3 DUP1 SLOAD PUSH3 0xA10 SWAP1 PUSH3 0x11A9 JUMP JUMPDEST DUP1 ISZERO PUSH3 0xA61 JUMPI DUP1 PUSH1 0x1F LT PUSH3 0xA35 JUMPI PUSH2 0x100 DUP1 DUP4 SLOAD DIV MUL DUP4 MSTORE SWAP2 PUSH1 0x20 ADD SWAP2 PUSH3 0xA61 JUMP JUMPDEST DUP3 ADD SWAP2 SWAP1 PUSH1 0x0 MSTORE PUSH1 0x20 PUSH1 0x0 KECCAK256 SWAP1 JUMPDEST DUP2 SLOAD DUP2 MSTORE SWAP1 PUSH1 0x1 ADD SWAP1 PUSH1 0x20 ADD DUP1 DUP4 GT PUSH3 0xA43 JUMPI DUP3 SWAP1 SUB PUSH1 0x1F AND DUP3 ADD SWAP2 JUMPDEST POP POP POP POP POP SWAP1 POP SWAP2 SWAP1 POP JUMP JUMPDEST PUSH1 0x0 DUP2 DUP2 MSTORE PUSH1 0x1 PUSH1 0x20 MSTORE PUSH1 0x40 DUP1 DUP3 KECCAK256 PUSH1 0x2 ADD SLOAD SWAP1 MLOAD PUSH4 0x70A08231 PUSH1 0xE0 SHL DUP2 MSTORE CALLER PUSH1 0x4 DUP3 ADD MSTORE PUSH1 0x1 PUSH1 0x1 PUSH1 0xA0 SHL SUB SWAP1 SWAP2 AND SWAP2 SWAP1 DUP3 SWAP1 PUSH4 0x70A08231 SWAP1 PUSH1 0x24 ADD PUSH1 0x20 PUSH1 0x40 MLOAD DUP1 DUP4 SUB DUP2 DUP7 DUP1 EXTCODESIZE ISZERO DUP1 ISZERO PUSH3 0xAC3 JUMPI PUSH1 0x0 DUP1 REVERT JUMPDEST POP GAS STATICCALL ISZERO DUP1 ISZERO PUSH3 0xAD8 JUMPI RETURNDATASIZE PUSH1 0x0 DUP1 RETURNDATACOPY RETURNDATASIZE PUSH1 0x0 REVERT JUMPDEST POP POP POP POP PUSH1 0x40 MLOAD RETURNDATASIZE PUSH1 0x1F NOT PUSH1 0x1F DUP3 ADD AND DUP3 ADD DUP1 PUSH1 0x40 MSTORE POP DUP2 ADD SWAP1 PUSH3 0xAFE SWAP2 SWAP1 PUSH3 0x1126 JUMP JUMPDEST SWAP1 POP PUSH1 0x0 DUP3 PUSH1 0x1 PUSH1 0x1 PUSH1 0xA0 SHL SUB AND PUSH4 0x18160DDD PUSH1 0x40 MLOAD DUP2 PUSH4 0xFFFFFFFF AND PUSH1 0xE0 SHL DUP2 MSTORE PUSH1 0x4 ADD PUSH1 0x20 PUSH1 0x40 MLOAD DUP1 DUP4 SUB DUP2 DUP7 DUP1 EXTCODESIZE ISZERO DUP1 ISZERO PUSH3 0xB3C JUMPI PUSH1 0x0 DUP1 REVERT JUMPDEST POP GAS STATICCALL ISZERO DUP1 ISZERO PUSH3 0xB51 JUMPI RETURNDATASIZE PUSH1 0x0 DUP1 RETURNDATACOPY RETURNDATASIZE PUSH1 0x0 REVERT JUMPDEST POP POP POP POP PUSH1 0x40 MLOAD RETURNDATASIZE PUSH1 0x1F NOT PUSH1 0x1F DUP3 ADD AND DUP3 ADD DUP1 PUSH1 0x40 MSTORE POP DUP2 ADD SWAP1 PUSH3 0xB77 SWAP2 SWAP1 PUSH3 0x1126 JUMP JUMPDEST SWAP1 POP DUP1 DUP3 EQ PUSH3 0xBDD JUMPI PUSH1 0x40 MLOAD PUSH3 0x461BCD PUSH1 0xE5 SHL DUP2 MSTORE PUSH1 0x20 PUSH1 0x4 DUP3 ADD MSTORE PUSH1 0x2A PUSH1 0x24 DUP3 ADD MSTORE PUSH32 0x52656465656D65657220646F6573206E6F7420686F6C642074686520656E7469 PUSH1 0x44 DUP3 ADD MSTORE PUSH10 0x39329039BAB838363C97 PUSH1 0xB1 SHL PUSH1 0x64 DUP3 ADD MSTORE PUSH1 0x84 ADD PUSH3 0x56B JUMP JUMPDEST PUSH1 0x40 MLOAD PUSH4 0x23B872DD PUSH1 0xE0 SHL DUP2 MSTORE PUSH1 0x1 PUSH1 0x1 PUSH1 0xA0 SHL SUB DUP5 AND SWAP1 PUSH4 0x23B872DD SWAP1 PUSH3 0xC0F SWAP1 CALLER SWAP1 ADDRESS SWAP1 DUP8 SWAP1 PUSH1 0x4 ADD PUSH3 0x1086 JUMP JUMPDEST PUSH1 0x20 PUSH1 0x40 MLOAD DUP1 DUP4 SUB DUP2 PUSH1 0x0 DUP8 DUP1 EXTCODESIZE ISZERO DUP1 ISZERO PUSH3 0xC2A JUMPI PUSH1 0x0 DUP1 REVERT JUMPDEST POP GAS CALL ISZERO DUP1 ISZERO PUSH3 0xC3F JUMPI RETURNDATASIZE PUSH1 0x0 DUP1 RETURNDATACOPY RETURNDATASIZE PUSH1 0x0 REVERT JUMPDEST POP POP POP POP PUSH1 0x40 MLOAD RETURNDATASIZE PUSH1 0x1F NOT PUSH1 0x1F DUP3 ADD AND DUP3 ADD DUP1 PUSH1 0x40 MSTORE POP DUP2 ADD SWAP1 PUSH3 0xC65 SWAP2 SWAP1 PUSH3 0x1140 JUMP JUMPDEST POP PUSH1 0x0 DUP5 DUP2 MSTORE PUSH1 0x1 PUSH1 0x20 DUP2 SWAP1 MSTORE PUSH1 0x40 SWAP2 DUP3 SWAP1 KECCAK256 SWAP1 DUP2 ADD SLOAD SWAP1 SLOAD SWAP2 MLOAD PUSH4 0x21421707 PUSH1 0xE1 SHL DUP2 MSTORE PUSH1 0x1 PUSH1 0x1 PUSH1 0xA0 SHL SUB SWAP1 SWAP2 AND SWAP2 DUP3 SWAP2 PUSH4 0x42842E0E SWAP2 PUSH3 0xCB0 SWAP2 ADDRESS SWAP2 CALLER SWAP2 PUSH1 0x4 ADD PUSH3 0x1086 JUMP JUMPDEST PUSH1 0x0 PUSH1 0x40 MLOAD DUP1 DUP4 SUB DUP2 PUSH1 0x0 DUP8 DUP1 EXTCODESIZE ISZERO DUP1 ISZERO PUSH3 0xCCB JUMPI PUSH1 0x0 DUP1 REVERT JUMPDEST POP GAS CALL ISZERO DUP1 ISZERO PUSH3 0xCE0 JUMPI RETURNDATASIZE PUSH1 0x0 DUP1 RETURNDATACOPY RETURNDATASIZE PUSH1 0x0 REVERT JUMPDEST POP POP PUSH1 0x40 DUP1 MLOAD CALLER DUP2 MSTORE PUSH1 0x20 DUP2 ADD DUP10 SWAP1 MSTORE PUSH32 0x4896181FF8F4543CC00DB9FE9B6FB7E6F032B7EB772C72AB1EC1B4D2E03B9369 SWAP4 POP ADD SWAP1 POP PUSH3 0x9B1 JUMP JUMPDEST PUSH2 0xCAA DUP1 PUSH3 0x11E7 DUP4 CODECOPY ADD SWAP1 JUMP JUMPDEST DUP3 DUP1 SLOAD PUSH3 0xD38 SWAP1 PUSH3 0x11A9 JUMP JUMPDEST SWAP1 PUSH1 0x0 MSTORE PUSH1 0x20 PUSH1 0x0 KECCAK256 SWAP1 PUSH1 0x1F ADD PUSH1 0x20 SWAP1 DIV DUP2 ADD SWAP3 DUP3 PUSH3 0xD5C JUMPI PUSH1 0x0 DUP6 SSTORE PUSH3 0xDA7 JUMP JUMPDEST DUP3 PUSH1 0x1F LT PUSH3 0xD77 JUMPI DUP1 MLOAD PUSH1 0xFF NOT AND DUP4 DUP1 ADD OR DUP6 SSTORE PUSH3 0xDA7 JUMP JUMPDEST DUP3 DUP1 ADD PUSH1 0x1 ADD DUP6 SSTORE DUP3 ISZERO PUSH3 0xDA7 JUMPI SWAP2 DUP3 ADD JUMPDEST DUP3 DUP2 GT ISZERO PUSH3 0xDA7 JUMPI DUP3 MLOAD DUP3 SSTORE SWAP2 PUSH1 0x20 ADD SWAP2 SWAP1 PUSH1 0x1 ADD SWAP1 PUSH3 0xD8A JUMP JUMPDEST POP PUSH3 0xDB5 SWAP3 SWAP2 POP PUSH3 0xDB9 JUMP JUMPDEST POP SWAP1 JUMP JUMPDEST JUMPDEST DUP1 DUP3 GT ISZERO PUSH3 0xDB5 JUMPI PUSH1 0x0 DUP2 SSTORE PUSH1 0x1 ADD PUSH3 0xDBA JUMP JUMPDEST DUP1 CALLDATALOAD PUSH1 0x1 PUSH1 0x1 PUSH1 0xA0 SHL SUB DUP2 AND DUP2 EQ PUSH3 0xDE8 JUMPI PUSH1 0x0 DUP1 REVERT JUMPDEST SWAP2 SWAP1 POP JUMP JUMPDEST PUSH4 0x4E487B71 PUSH1 0xE0 SHL PUSH1 0x0 MSTORE PUSH1 0x41 PUSH1 0x4 MSTORE PUSH1 0x24 PUSH1 0x0 REVERT JUMPDEST PUSH1 0x0 PUSH8 0xFFFFFFFFFFFFFFFF DUP1 DUP5 GT ISZERO PUSH3 0xE21 JUMPI PUSH3 0xE21 PUSH3 0xDED JUMP JUMPDEST PUSH1 0x40 MLOAD PUSH1 0x1F DUP6 ADD PUSH1 0x1F NOT SWAP1 DUP2 AND PUSH1 0x3F ADD AND DUP2 ADD SWAP1 DUP3 DUP3 GT DUP2 DUP4 LT OR ISZERO PUSH3 0xE4C JUMPI PUSH3 0xE4C PUSH3 0xDED JUMP JUMPDEST DUP2 PUSH1 0x40 MSTORE DUP1 SWAP4 POP DUP6 DUP2 MSTORE DUP7 DUP7 DUP7 ADD GT ISZERO PUSH3 0xE66 JUMPI PUSH1 0x0 DUP1 REVERT JUMPDEST DUP6 DUP6 PUSH1 0x20 DUP4 ADD CALLDATACOPY PUSH1 0x0 PUSH1 0x20 DUP8 DUP4 ADD ADD MSTORE POP POP POP SWAP4 SWAP3 POP POP POP JUMP JUMPDEST PUSH1 0x0 DUP3 PUSH1 0x1F DUP4 ADD SLT PUSH3 0xE92 JUMPI PUSH1 0x0 DUP1 REVERT JUMPDEST PUSH3 0xEA3 DUP4 DUP4 CALLDATALOAD PUSH1 0x20 DUP6 ADD PUSH3 0xE03 JUMP JUMPDEST SWAP4 SWAP3 POP POP POP JUMP JUMPDEST PUSH1 0x0 DUP1 PUSH1 0x0 DUP1 PUSH1 0x0 DUP1 PUSH1 0xC0 DUP8 DUP10 SUB SLT ISZERO PUSH3 0xEC4 JUMPI PUSH1 0x0 DUP1 REVERT JUMPDEST PUSH3 0xECF DUP8 PUSH3 0xDD0 JUMP JUMPDEST SWAP6 POP PUSH1 0x20 DUP8 ADD CALLDATALOAD SWAP5 POP PUSH1 0x40 DUP8 ADD CALLDATALOAD PUSH8 0xFFFFFFFFFFFFFFFF DUP1 DUP3 GT ISZERO PUSH3 0xEF4 JUMPI PUSH1 0x0 DUP1 REVERT JUMPDEST PUSH3 0xF02 DUP11 DUP4 DUP12 ADD PUSH3 0xE80 JUMP JUMPDEST SWAP6 POP PUSH1 0x60 DUP10 ADD CALLDATALOAD SWAP2 POP DUP1 DUP3 GT ISZERO PUSH3 0xF19 JUMPI PUSH1 0x0 DUP1 REVERT JUMPDEST POP PUSH3 0xF28 DUP10 DUP3 DUP11 ADD PUSH3 0xE80 JUMP JUMPDEST SWAP4 POP POP PUSH1 0x80 DUP8 ADD CALLDATALOAD SWAP2 POP PUSH1 0xA0 DUP8 ADD CALLDATALOAD SWAP1 POP SWAP3 SWAP6 POP SWAP3 SWAP6 POP SWAP3 SWAP6 JUMP JUMPDEST PUSH1 0x0 PUSH1 0x20 DUP3 DUP5 SUB SLT ISZERO PUSH3 0xF56 JUMPI PUSH1 0x0 DUP1 REVERT JUMPDEST POP CALLDATALOAD SWAP2 SWAP1 POP JUMP JUMPDEST PUSH1 0x0 DUP1 PUSH1 0x0 DUP1 PUSH1 0x80 DUP6 DUP8 SUB SLT ISZERO PUSH3 0xF74 JUMPI PUSH1 0x0 DUP1 REVERT JUMPDEST PUSH3 0xF7F DUP6 PUSH3 0xDD0 JUMP JUMPDEST SWAP4 POP PUSH3 0xF8F PUSH1 0x20 DUP7 ADD PUSH3 0xDD0 JUMP JUMPDEST SWAP3 POP PUSH1 0x40 DUP6 ADD CALLDATALOAD SWAP2 POP PUSH1 0x60 DUP6 ADD CALLDATALOAD PUSH8 0xFFFFFFFFFFFFFFFF DUP2 GT ISZERO PUSH3 0xFB3 JUMPI PUSH1 0x0 DUP1 REVERT JUMPDEST DUP6 ADD PUSH1 0x1F DUP2 ADD DUP8 SGT PUSH3 0xFC5 JUMPI PUSH1 0x0 DUP1 REVERT JUMPDEST PUSH3 0xFD6 DUP8 DUP3 CALLDATALOAD PUSH1 0x20 DUP5 ADD PUSH3 0xE03 JUMP JUMPDEST SWAP2 POP POP SWAP3 SWAP6 SWAP2 SWAP5 POP SWAP3 POP JUMP JUMPDEST PUSH4 0x4E487B71 PUSH1 0xE0 SHL PUSH1 0x0 MSTORE PUSH1 0x21 PUSH1 0x4 MSTORE PUSH1 0x24 PUSH1 0x0 REVERT JUMPDEST PUSH1 0x20 DUP2 ADD PUSH1 0x3 DUP4 LT PUSH3 0x101B JUMPI PUSH4 0x4E487B71 PUSH1 0xE0 SHL PUSH1 0x0 MSTORE PUSH1 0x21 PUSH1 0x4 MSTORE PUSH1 0x24 PUSH1 0x0 REVERT JUMPDEST SWAP2 SWAP1 MSTORE SWAP1 JUMP JUMPDEST PUSH1 0x0 DUP2 MLOAD DUP1 DUP5 MSTORE PUSH1 0x0 JUMPDEST DUP2 DUP2 LT ISZERO PUSH3 0x1049 JUMPI PUSH1 0x20 DUP2 DUP6 ADD DUP2 ADD MLOAD DUP7 DUP4 ADD DUP3 ADD MSTORE ADD PUSH3 0x102B JUMP JUMPDEST DUP2 DUP2 GT ISZERO PUSH3 0x105C JUMPI PUSH1 0x0 PUSH1 0x20 DUP4 DUP8 ADD ADD MSTORE JUMPDEST POP PUSH1 0x1F ADD PUSH1 0x1F NOT AND SWAP3 SWAP1 SWAP3 ADD PUSH1 0x20 ADD SWAP3 SWAP2 POP POP JUMP JUMPDEST PUSH1 0x20 DUP2 MSTORE PUSH1 0x0 PUSH3 0xEA3 PUSH1 0x20 DUP4 ADD DUP5 PUSH3 0x1021 JUMP JUMPDEST PUSH1 0x1 PUSH1 0x1 PUSH1 0xA0 SHL SUB SWAP4 DUP5 AND DUP2 MSTORE SWAP2 SWAP1 SWAP3 AND PUSH1 0x20 DUP3 ADD MSTORE PUSH1 0x40 DUP2 ADD SWAP2 SWAP1 SWAP2 MSTORE PUSH1 0x60 ADD SWAP1 JUMP JUMPDEST PUSH1 0x80 DUP2 MSTORE PUSH1 0x0 PUSH3 0x10BF PUSH1 0x80 DUP4 ADD DUP8 PUSH3 0x1021 JUMP JUMPDEST DUP3 DUP2 SUB PUSH1 0x20 DUP5 ADD MSTORE PUSH3 0x10D3 DUP2 DUP8 PUSH3 0x1021 JUMP JUMPDEST PUSH1 0x40 DUP5 ADD SWAP6 SWAP1 SWAP6 MSTORE POP POP PUSH1 0x1 PUSH1 0x1 PUSH1 0xA0 SHL SUB SWAP2 SWAP1 SWAP2 AND PUSH1 0x60 SWAP1 SWAP2 ADD MSTORE SWAP3 SWAP2 POP POP JUMP JUMPDEST PUSH4 0x4E487B71 PUSH1 0xE0 SHL PUSH1 0x0 MSTORE PUSH1 0x11 PUSH1 0x4 MSTORE PUSH1 0x24 PUSH1 0x0 REVERT JUMPDEST PUSH1 0x0 DUP3 NOT DUP3 GT ISZERO PUSH3 0x1121 JUMPI PUSH3 0x1121 PUSH3 0x10F5 JUMP JUMPDEST POP ADD SWAP1 JUMP JUMPDEST PUSH1 0x0 PUSH1 0x20 DUP3 DUP5 SUB SLT ISZERO PUSH3 0x1139 JUMPI PUSH1 0x0 DUP1 REVERT JUMPDEST POP MLOAD SWAP2 SWAP1 POP JUMP JUMPDEST PUSH1 0x0 PUSH1 0x20 DUP3 DUP5 SUB SLT ISZERO PUSH3 0x1153 JUMPI PUSH1 0x0 DUP1 REVERT JUMPDEST DUP2 MLOAD DUP1 ISZERO ISZERO DUP2 EQ PUSH3 0xEA3 JUMPI PUSH1 0x0 DUP1 REVERT JUMPDEST PUSH1 0x0 DUP2 PUSH1 0x0 NOT DIV DUP4 GT DUP3 ISZERO ISZERO AND ISZERO PUSH3 0x1181 JUMPI PUSH3 0x1181 PUSH3 0x10F5 JUMP JUMPDEST POP MUL SWAP1 JUMP JUMPDEST PUSH1 0x0 DUP3 PUSH3 0x11A4 JUMPI PUSH4 0x4E487B71 PUSH1 0xE0 SHL PUSH1 0x0 MSTORE PUSH1 0x12 PUSH1 0x4 MSTORE PUSH1 0x24 PUSH1 0x0 REVERT JUMPDEST POP DIV SWAP1 JUMP JUMPDEST PUSH1 0x1 DUP2 DUP2 SHR SWAP1 DUP3 AND DUP1 PUSH3 0x11BE JUMPI PUSH1 0x7F DUP3 AND SWAP2 POP JUMPDEST PUSH1 0x20 DUP3 LT DUP2 EQ ISZERO PUSH3 0x11E0 JUMPI PUSH4 0x4E487B71 PUSH1 0xE0 SHL PUSH1 0x0 MSTORE PUSH1 0x22 PUSH1 0x4 MSTORE PUSH1 0x24 PUSH1 0x0 REVERT JUMPDEST POP SWAP2 SWAP1 POP JUMP INVALID PUSH1 0x80 PUSH1 0x40 MSTORE CALLVALUE DUP1 ISZERO PUSH3 0x11 JUMPI PUSH1 0x0 DUP1 REVERT JUMPDEST POP PUSH1 0x40 MLOAD PUSH3 0xCAA CODESIZE SUB DUP1 PUSH3 0xCAA DUP4 CODECOPY DUP2 ADD PUSH1 0x40 DUP2 SWAP1 MSTORE PUSH3 0x34 SWAP2 PUSH3 0x2DD JUMP JUMPDEST DUP4 MLOAD DUP5 SWAP1 DUP5 SWAP1 PUSH3 0x4D SWAP1 PUSH1 0x3 SWAP1 PUSH1 0x20 DUP6 ADD SWAP1 PUSH3 0x16A JUMP JUMPDEST POP DUP1 MLOAD PUSH3 0x63 SWAP1 PUSH1 0x4 SWAP1 PUSH1 0x20 DUP5 ADD SWAP1 PUSH3 0x16A JUMP JUMPDEST POP POP POP PUSH3 0x78 DUP2 DUP4 PUSH3 0x82 PUSH1 0x20 SHL PUSH1 0x20 SHR JUMP JUMPDEST POP POP POP POP PUSH3 0x3D6 JUMP JUMPDEST PUSH1 0x1 PUSH1 0x1 PUSH1 0xA0 SHL SUB DUP3 AND PUSH3 0xDD JUMPI PUSH1 0x40 MLOAD PUSH3 0x461BCD PUSH1 0xE5 SHL DUP2 MSTORE PUSH1 0x20 PUSH1 0x4 DUP3 ADD MSTORE PUSH1 0x1F PUSH1 0x24 DUP3 ADD MSTORE PUSH32 0x45524332303A206D696E7420746F20746865207A65726F206164647265737300 PUSH1 0x44 DUP3 ADD MSTORE PUSH1 0x64 ADD PUSH1 0x40 MLOAD DUP1 SWAP2 SUB SWAP1 REVERT JUMPDEST DUP1 PUSH1 0x2 PUSH1 0x0 DUP3 DUP3 SLOAD PUSH3 0xF1 SWAP2 SWAP1 PUSH3 0x372 JUMP JUMPDEST SWAP1 SWAP2 SSTORE POP POP PUSH1 0x1 PUSH1 0x1 PUSH1 0xA0 SHL SUB DUP3 AND PUSH1 0x0 SWAP1 DUP2 MSTORE PUSH1 0x20 DUP2 SWAP1 MSTORE PUSH1 0x40 DUP2 KECCAK256 DUP1 SLOAD DUP4 SWAP3 SWAP1 PUSH3 0x120 SWAP1 DUP5 SWAP1 PUSH3 0x372 JUMP JUMPDEST SWAP1 SWAP2 SSTORE POP POP PUSH1 0x40 MLOAD DUP2 DUP2 MSTORE PUSH1 0x1 PUSH1 0x1 PUSH1 0xA0 SHL SUB DUP4 AND SWAP1 PUSH1 0x0 SWAP1 PUSH32 0xDDF252AD1BE2C89B69C2B068FC378DAA952BA7F163C4A11628F55A4DF523B3EF SWAP1 PUSH1 0x20 ADD PUSH1 0x40 MLOAD DUP1 SWAP2 SUB SWAP1 LOG3 POP POP JUMP JUMPDEST DUP3 DUP1 SLOAD PUSH3 0x178 SWAP1 PUSH3 0x399 JUMP JUMPDEST SWAP1 PUSH1 0x0 MSTORE PUSH1 0x20 PUSH1 0x0 KECCAK256 SWAP1 PUSH1 0x1F ADD PUSH1 0x20 SWAP1 DIV DUP2 ADD SWAP3 DUP3 PUSH3 0x19C JUMPI PUSH1 0x0 DUP6 SSTORE PUSH3 0x1E7 JUMP JUMPDEST DUP3 PUSH1 0x1F LT PUSH3 0x1B7 JUMPI DUP1 MLOAD PUSH1 0xFF NOT AND DUP4 DUP1 ADD OR DUP6 SSTORE PUSH3 0x1E7 JUMP JUMPDEST DUP3 DUP1 ADD PUSH1 0x1 ADD DUP6 SSTORE DUP3 ISZERO PUSH3 0x1E7 JUMPI SWAP2 DUP3 ADD JUMPDEST DUP3 DUP2 GT ISZERO PUSH3 0x1E7 JUMPI DUP3 MLOAD DUP3 SSTORE SWAP2 PUSH1 0x20 ADD SWAP2 SWAP1 PUSH1 0x1 ADD SWAP1 PUSH3 0x1CA JUMP JUMPDEST POP PUSH3 0x1F5 SWAP3 SWAP2 POP PUSH3 0x1F9 JUMP JUMPDEST POP SWAP1 JUMP JUMPDEST JUMPDEST DUP1 DUP3 GT ISZERO PUSH3 0x1F5 JUMPI PUSH1 0x0 DUP2 SSTORE PUSH1 0x1 ADD PUSH3 0x1FA JUMP JUMPDEST PUSH4 0x4E487B71 PUSH1 0xE0 SHL PUSH1 0x0 MSTORE PUSH1 0x41 PUSH1 0x4 MSTORE PUSH1 0x24 PUSH1 0x0 REVERT JUMPDEST PUSH1 0x0 DUP3 PUSH1 0x1F DUP4 ADD SLT PUSH3 0x238 JUMPI PUSH1 0x0 DUP1 REVERT JUMPDEST DUP2 MLOAD PUSH1 0x1 PUSH1 0x1 PUSH1 0x40 SHL SUB DUP1 DUP3 GT ISZERO PUSH3 0x255 JUMPI PUSH3 0x255 PUSH3 0x210 JUMP JUMPDEST PUSH1 0x40 MLOAD PUSH1 0x1F DUP4 ADD PUSH1 0x1F NOT SWAP1 DUP2 AND PUSH1 0x3F ADD AND DUP2 ADD SWAP1 DUP3 DUP3 GT DUP2 DUP4 LT OR ISZERO PUSH3 0x280 JUMPI PUSH3 0x280 PUSH3 0x210 JUMP JUMPDEST DUP2 PUSH1 0x40 MSTORE DUP4 DUP2 MSTORE PUSH1 0x20 SWAP3 POP DUP7 DUP4 DUP6 DUP9 ADD ADD GT ISZERO PUSH3 0x29D JUMPI PUSH1 0x0 DUP1 REVERT JUMPDEST PUSH1 0x0 SWAP2 POP JUMPDEST DUP4 DUP3 LT ISZERO PUSH3 0x2C1 JUMPI DUP6 DUP3 ADD DUP4 ADD MLOAD DUP2 DUP4 ADD DUP5 ADD MSTORE SWAP1 DUP3 ADD SWAP1 PUSH3 0x2A2 JUMP JUMPDEST DUP4 DUP3 GT ISZERO PUSH3 0x2D3 JUMPI PUSH1 0x0 DUP4 DUP6 DUP4 ADD ADD MSTORE JUMPDEST SWAP7 SWAP6 POP POP POP POP POP POP JUMP JUMPDEST PUSH1 0x0 DUP1 PUSH1 0x0 DUP1 PUSH1 0x80 DUP6 DUP8 SUB SLT ISZERO PUSH3 0x2F4 JUMPI PUSH1 0x0 DUP1 REVERT JUMPDEST DUP5 MLOAD PUSH1 0x1 PUSH1 0x1 PUSH1 0x40 SHL SUB DUP1 DUP3 GT ISZERO PUSH3 0x30C JUMPI PUSH1 0x0 DUP1 REVERT JUMPDEST PUSH3 0x31A DUP9 DUP4 DUP10 ADD PUSH3 0x226 JUMP JUMPDEST SWAP6 POP PUSH1 0x20 DUP8 ADD MLOAD SWAP2 POP DUP1 DUP3 GT ISZERO PUSH3 0x331 JUMPI PUSH1 0x0 DUP1 REVERT JUMPDEST POP PUSH3 0x340 DUP8 DUP3 DUP9 ADD PUSH3 0x226 JUMP JUMPDEST PUSH1 0x40 DUP8 ADD MLOAD PUSH1 0x60 DUP9 ADD MLOAD SWAP2 SWAP6 POP SWAP4 POP SWAP1 POP PUSH1 0x1 PUSH1 0x1 PUSH1 0xA0 SHL SUB DUP2 AND DUP2 EQ PUSH3 0x367 JUMPI PUSH1 0x0 DUP1 REVERT JUMPDEST SWAP4 SWAP7 SWAP3 SWAP6 POP SWAP1 SWAP4 POP POP JUMP JUMPDEST PUSH1 0x0 DUP3 NOT DUP3 GT ISZERO PUSH3 0x394 JUMPI PUSH4 0x4E487B71 PUSH1 0xE0 SHL PUSH1 0x0 MSTORE PUSH1 0x11 PUSH1 0x4 MSTORE PUSH1 0x24 PUSH1 0x0 REVERT JUMPDEST POP ADD SWAP1 JUMP JUMPDEST PUSH1 0x1 DUP2 DUP2 SHR SWAP1 DUP3 AND DUP1 PUSH3 0x3AE JUMPI PUSH1 0x7F DUP3 AND SWAP2 POP JUMPDEST PUSH1 0x20 DUP3 LT DUP2 EQ ISZERO PUSH3 0x3D0 JUMPI PUSH4 0x4E487B71 PUSH1 0xE0 SHL PUSH1 0x0 MSTORE PUSH1 0x22 PUSH1 0x4 MSTORE PUSH1 0x24 PUSH1 0x0 REVERT JUMPDEST POP SWAP2 SWAP1 POP JUMP JUMPDEST PUSH2 0x8C4 DUP1 PUSH3 0x3E6 PUSH1 0x0 CODECOPY PUSH1 0x0 RETURN INVALID PUSH1 0x80 PUSH1 0x40 MSTORE CALLVALUE DUP1 ISZERO PUSH2 0x10 JUMPI PUSH1 0x0 DUP1 REVERT JUMPDEST POP PUSH1 0x4 CALLDATASIZE LT PUSH2 0xA9 JUMPI PUSH1 0x0 CALLDATALOAD PUSH1 0xE0 SHR DUP1 PUSH4 0x39509351 GT PUSH2 0x71 JUMPI DUP1 PUSH4 0x39509351 EQ PUSH2 0x123 JUMPI DUP1 PUSH4 0x70A08231 EQ PUSH2 0x136 JUMPI DUP1 PUSH4 0x95D89B41 EQ PUSH2 0x15F JUMPI DUP1 PUSH4 0xA457C2D7 EQ PUSH2 0x167 JUMPI DUP1 PUSH4 0xA9059CBB EQ PUSH2 0x17A JUMPI DUP1 PUSH4 0xDD62ED3E EQ PUSH2 0x18D JUMPI PUSH1 0x0 DUP1 REVERT JUMPDEST DUP1 PUSH4 0x6FDDE03 EQ PUSH2 0xAE JUMPI DUP1 PUSH4 0x95EA7B3 EQ PUSH2 0xCC JUMPI DUP1 PUSH4 0x18160DDD EQ PUSH2 0xEF JUMPI DUP1 PUSH4 0x23B872DD EQ PUSH2 0x101 JUMPI DUP1 PUSH4 0x313CE567 EQ PUSH2 0x114 JUMPI JUMPDEST PUSH1 0x0 DUP1 REVERT JUMPDEST PUSH2 0xB6 PUSH2 0x1C6 JUMP JUMPDEST PUSH1 0x40 MLOAD PUSH2 0xC3 SWAP2 SWAP1 PUSH2 0x701 JUMP JUMPDEST PUSH1 0x40 MLOAD DUP1 SWAP2 SUB SWAP1 RETURN JUMPDEST PUSH2 0xDF PUSH2 0xDA CALLDATASIZE PUSH1 0x4 PUSH2 0x772 JUMP JUMPDEST PUSH2 0x258 JUMP JUMPDEST PUSH1 0x40 MLOAD SWAP1 ISZERO ISZERO DUP2 MSTORE PUSH1 0x20 ADD PUSH2 0xC3 JUMP JUMPDEST PUSH1 0x2 SLOAD JUMPDEST PUSH1 0x40 MLOAD SWAP1 DUP2 MSTORE PUSH1 0x20 ADD PUSH2 0xC3 JUMP JUMPDEST PUSH2 0xDF PUSH2 0x10F CALLDATASIZE PUSH1 0x4 PUSH2 0x79C JUMP JUMPDEST PUSH2 0x26E JUMP JUMPDEST PUSH1 0x40 MLOAD PUSH1 0x12 DUP2 MSTORE PUSH1 0x20 ADD PUSH2 0xC3 JUMP JUMPDEST PUSH2 0xDF PUSH2 0x131 CALLDATASIZE PUSH1 0x4 PUSH2 0x772 JUMP JUMPDEST PUSH2 0x31D JUMP JUMPDEST PUSH2 0xF3 PUSH2 0x144 CALLDATASIZE PUSH1 0x4 PUSH2 0x7D8 JUMP JUMPDEST PUSH1 0x1 PUSH1 0x1 PUSH1 0xA0 SHL SUB AND PUSH1 0x0 SWAP1 DUP2 MSTORE PUSH1 0x20 DUP2 SWAP1 MSTORE PUSH1 0x40 SWAP1 KECCAK256 SLOAD SWAP1 JUMP JUMPDEST PUSH2 0xB6 PUSH2 0x359 JUMP JUMPDEST PUSH2 0xDF PUSH2 0x175 CALLDATASIZE PUSH1 0x4 PUSH2 0x772 JUMP JUMPDEST PUSH2 0x368 JUMP JUMPDEST PUSH2 0xDF PUSH2 0x188 CALLDATASIZE PUSH1 0x4 PUSH2 0x772 JUMP JUMPDEST PUSH2 0x401 JUMP JUMPDEST PUSH2 0xF3 PUSH2 0x19B CALLDATASIZE PUSH1 0x4 PUSH2 0x7FA JUMP JUMPDEST PUSH1 0x1 PUSH1 0x1 PUSH1 0xA0 SHL SUB SWAP2 DUP3 AND PUSH1 0x0 SWAP1 DUP2 MSTORE PUSH1 0x1 PUSH1 0x20 SWAP1 DUP2 MSTORE PUSH1 0x40 DUP1 DUP4 KECCAK256 SWAP4 SWAP1 SWAP5 AND DUP3 MSTORE SWAP2 SWAP1 SWAP2 MSTORE KECCAK256 SLOAD SWAP1 JUMP JUMPDEST PUSH1 0x60 PUSH1 0x3 DUP1 SLOAD PUSH2 0x1D5 SWAP1 PUSH2 0x82D JUMP JUMPDEST DUP1 PUSH1 0x1F ADD PUSH1 0x20 DUP1 SWAP2 DIV MUL PUSH1 0x20 ADD PUSH1 0x40 MLOAD SWAP1 DUP2 ADD PUSH1 0x40 MSTORE DUP1 SWAP3 SWAP2 SWAP1 DUP2 DUP2 MSTORE PUSH1 0x20 ADD DUP3 DUP1 SLOAD PUSH2 0x201 SWAP1 PUSH2 0x82D JUMP JUMPDEST DUP1 ISZERO PUSH2 0x24E JUMPI DUP1 PUSH1 0x1F LT PUSH2 0x223 JUMPI PUSH2 0x100 DUP1 DUP4 SLOAD DIV MUL DUP4 MSTORE SWAP2 PUSH1 0x20 ADD SWAP2 PUSH2 0x24E JUMP JUMPDEST DUP3 ADD SWAP2 SWAP1 PUSH1 0x0 MSTORE PUSH1 0x20 PUSH1 0x0 KECCAK256 SWAP1 JUMPDEST DUP2 SLOAD DUP2 MSTORE SWAP1 PUSH1 0x1 ADD SWAP1 PUSH1 0x20 ADD DUP1 DUP4 GT PUSH2 0x231 JUMPI DUP3 SWAP1 SUB PUSH1 0x1F AND DUP3 ADD SWAP2 JUMPDEST POP POP POP POP POP SWAP1 POP SWAP1 JUMP JUMPDEST PUSH1 0x0 PUSH2 0x265 CALLER DUP5 DUP5 PUSH2 0x40E JUMP JUMPDEST POP PUSH1 0x1 SWAP3 SWAP2 POP POP JUMP JUMPDEST PUSH1 0x0 PUSH2 0x27B DUP5 DUP5 DUP5 PUSH2 0x532 JUMP JUMPDEST PUSH1 0x1 PUSH1 0x1 PUSH1 0xA0 SHL SUB DUP5 AND PUSH1 0x0 SWAP1 DUP2 MSTORE PUSH1 0x1 PUSH1 0x20 SWAP1 DUP2 MSTORE PUSH1 0x40 DUP1 DUP4 KECCAK256 CALLER DUP5 MSTORE SWAP1 SWAP2 MSTORE SWAP1 KECCAK256 SLOAD DUP3 DUP2 LT ISZERO PUSH2 0x305 JUMPI PUSH1 0x40 MLOAD PUSH3 0x461BCD PUSH1 0xE5 SHL DUP2 MSTORE PUSH1 0x20 PUSH1 0x4 DUP3 ADD MSTORE PUSH1 0x28 PUSH1 0x24 DUP3 ADD MSTORE PUSH32 0x45524332303A207472616E7366657220616D6F756E7420657863656564732061 PUSH1 0x44 DUP3 ADD MSTORE PUSH8 0x6C6C6F77616E6365 PUSH1 0xC0 SHL PUSH1 0x64 DUP3 ADD MSTORE PUSH1 0x84 ADD JUMPDEST PUSH1 0x40 MLOAD DUP1 SWAP2 SUB SWAP1 REVERT JUMPDEST PUSH2 0x312 DUP6 CALLER DUP6 DUP5 SUB PUSH2 0x40E JUMP JUMPDEST POP PUSH1 0x1 SWAP5 SWAP4 POP POP POP POP JUMP JUMPDEST CALLER PUSH1 0x0 DUP2 DUP2 MSTORE PUSH1 0x1 PUSH1 0x20 SWAP1 DUP2 MSTORE PUSH1 0x40 DUP1 DUP4 KECCAK256 PUSH1 0x1 PUSH1 0x1 PUSH1 0xA0 SHL SUB DUP8 AND DUP5 MSTORE SWAP1 SWAP2 MSTORE DUP2 KECCAK256 SLOAD SWAP1 SWAP2 PUSH2 0x265 SWAP2 DUP6 SWAP1 PUSH2 0x354 SWAP1 DUP7 SWAP1 PUSH2 0x868 JUMP JUMPDEST PUSH2 0x40E JUMP JUMPDEST PUSH1 0x60 PUSH1 0x4 DUP1 SLOAD PUSH2 0x1D5 SWAP1 PUSH2 0x82D JUMP JUMPDEST CALLER PUSH1 0x0 SWAP1 DUP2 MSTORE PUSH1 0x1 PUSH1 0x20 SWAP1 DUP2 MSTORE PUSH1 0x40 DUP1 DUP4 KECCAK256 PUSH1 0x1 PUSH1 0x1 PUSH1 0xA0 SHL SUB DUP7 AND DUP5 MSTORE SWAP1 SWAP2 MSTORE DUP2 KECCAK256 SLOAD DUP3 DUP2 LT ISZERO PUSH2 0x3EA JUMPI PUSH1 0x40 MLOAD PUSH3 0x461BCD PUSH1 0xE5 SHL DUP2 MSTORE PUSH1 0x20 PUSH1 0x4 DUP3 ADD MSTORE PUSH1 0x25 PUSH1 0x24 DUP3 ADD MSTORE PUSH32 0x45524332303A2064656372656173656420616C6C6F77616E63652062656C6F77 PUSH1 0x44 DUP3 ADD MSTORE PUSH5 0x207A65726F PUSH1 0xD8 SHL PUSH1 0x64 DUP3 ADD MSTORE PUSH1 0x84 ADD PUSH2 0x2FC JUMP JUMPDEST PUSH2 0x3F7 CALLER DUP6 DUP6 DUP5 SUB PUSH2 0x40E JUMP JUMPDEST POP PUSH1 0x1 SWAP4 SWAP3 POP POP POP JUMP JUMPDEST PUSH1 0x0 PUSH2 0x265 CALLER DUP5 DUP5 PUSH2 0x532 JUMP JUMPDEST PUSH1 0x1 PUSH1 0x1 PUSH1 0xA0 SHL SUB DUP4 AND PUSH2 0x470 JUMPI PUSH1 0x40 MLOAD PUSH3 0x461BCD PUSH1 0xE5 SHL DUP2 MSTORE PUSH1 0x20 PUSH1 0x4 DUP3 ADD MSTORE PUSH1 0x24 DUP1 DUP3 ADD MSTORE PUSH32 0x45524332303A20617070726F76652066726F6D20746865207A65726F20616464 PUSH1 0x44 DUP3 ADD MSTORE PUSH4 0x72657373 PUSH1 0xE0 SHL PUSH1 0x64 DUP3 ADD MSTORE PUSH1 0x84 ADD PUSH2 0x2FC JUMP JUMPDEST PUSH1 0x1 PUSH1 0x1 PUSH1 0xA0 SHL SUB DUP3 AND PUSH2 0x4D1 JUMPI PUSH1 0x40 MLOAD PUSH3 0x461BCD PUSH1 0xE5 SHL DUP2 MSTORE PUSH1 0x20 PUSH1 0x4 DUP3 ADD MSTORE PUSH1 0x22 PUSH1 0x24 DUP3 ADD MSTORE PUSH32 0x45524332303A20617070726F766520746F20746865207A65726F206164647265 PUSH1 0x44 DUP3 ADD MSTORE PUSH2 0x7373 PUSH1 0xF0 SHL PUSH1 0x64 DUP3 ADD MSTORE PUSH1 0x84 ADD PUSH2 0x2FC JUMP JUMPDEST PUSH1 0x1 PUSH1 0x1 PUSH1 0xA0 SHL SUB DUP4 DUP2 AND PUSH1 0x0 DUP2 DUP2 MSTORE PUSH1 0x1 PUSH1 0x20 SWAP1 DUP2 MSTORE PUSH1 0x40 DUP1 DUP4 KECCAK256 SWAP5 DUP8 AND DUP1 DUP5 MSTORE SWAP5 DUP3 MSTORE SWAP2 DUP3 SWAP1 KECCAK256 DUP6 SWAP1 SSTORE SWAP1 MLOAD DUP5 DUP2 MSTORE PUSH32 0x8C5BE1E5EBEC7D5BD14F71427D1E84F3DD0314C0F7B2291E5B200AC8C7C3B925 SWAP2 ADD PUSH1 0x40 MLOAD DUP1 SWAP2 SUB SWAP1 LOG3 POP POP POP JUMP JUMPDEST PUSH1 0x1 PUSH1 0x1 PUSH1 0xA0 SHL SUB DUP4 AND PUSH2 0x596 JUMPI PUSH1 0x40 MLOAD PUSH3 0x461BCD PUSH1 0xE5 SHL DUP2 MSTORE PUSH1 0x20 PUSH1 0x4 DUP3 ADD MSTORE PUSH1 0x25 PUSH1 0x24 DUP3 ADD MSTORE PUSH32 0x45524332303A207472616E736665722066726F6D20746865207A65726F206164 PUSH1 0x44 DUP3 ADD MSTORE PUSH5 0x6472657373 PUSH1 0xD8 SHL PUSH1 0x64 DUP3 ADD MSTORE PUSH1 0x84 ADD PUSH2 0x2FC JUMP JUMPDEST PUSH1 0x1 PUSH1 0x1 PUSH1 0xA0 SHL SUB DUP3 AND PUSH2 0x5F8 JUMPI PUSH1 0x40 MLOAD PUSH3 0x461BCD PUSH1 0xE5 SHL DUP2 MSTORE PUSH1 0x20 PUSH1 0x4 DUP3 ADD MSTORE PUSH1 0x23 PUSH1 0x24 DUP3 ADD MSTORE PUSH32 0x45524332303A207472616E7366657220746F20746865207A65726F2061646472 PUSH1 0x44 DUP3 ADD MSTORE PUSH3 0x657373 PUSH1 0xE8 SHL PUSH1 0x64 DUP3 ADD MSTORE PUSH1 0x84 ADD PUSH2 0x2FC JUMP JUMPDEST PUSH1 0x1 PUSH1 0x1 PUSH1 0xA0 SHL SUB DUP4 AND PUSH1 0x0 SWAP1 DUP2 MSTORE PUSH1 0x20 DUP2 SWAP1 MSTORE PUSH1 0x40 SWAP1 KECCAK256 SLOAD DUP2 DUP2 LT ISZERO PUSH2 0x670 JUMPI PUSH1 0x40 MLOAD PUSH3 0x461BCD PUSH1 0xE5 SHL DUP2 MSTORE PUSH1 0x20 PUSH1 0x4 DUP3 ADD MSTORE PUSH1 0x26 PUSH1 0x24 DUP3 ADD MSTORE PUSH32 0x45524332303A207472616E7366657220616D6F756E7420657863656564732062 PUSH1 0x44 DUP3 ADD MSTORE PUSH6 0x616C616E6365 PUSH1 0xD0 SHL PUSH1 0x64 DUP3 ADD MSTORE PUSH1 0x84 ADD PUSH2 0x2FC JUMP JUMPDEST PUSH1 0x1 PUSH1 0x1 PUSH1 0xA0 SHL SUB DUP1 DUP6 AND PUSH1 0x0 SWAP1 DUP2 MSTORE PUSH1 0x20 DUP2 SWAP1 MSTORE PUSH1 0x40 DUP1 DUP3 KECCAK256 DUP6 DUP6 SUB SWAP1 SSTORE SWAP2 DUP6 AND DUP2 MSTORE SWAP1 DUP2 KECCAK256 DUP1 SLOAD DUP5 SWAP3 SWAP1 PUSH2 0x6A7 SWAP1 DUP5 SWAP1 PUSH2 0x868 JUMP JUMPDEST SWAP3 POP POP DUP2 SWAP1 SSTORE POP DUP3 PUSH1 0x1 PUSH1 0x1 PUSH1 0xA0 SHL SUB AND DUP5 PUSH1 0x1 PUSH1 0x1 PUSH1 0xA0 SHL SUB AND PUSH32 0xDDF252AD1BE2C89B69C2B068FC378DAA952BA7F163C4A11628F55A4DF523B3EF DUP5 PUSH1 0x40 MLOAD PUSH2 0x6F3 SWAP2 DUP2 MSTORE PUSH1 0x20 ADD SWAP1 JUMP JUMPDEST PUSH1 0x40 MLOAD DUP1 SWAP2 SUB SWAP1 LOG3 POP POP POP POP JUMP JUMPDEST PUSH1 0x0 PUSH1 0x20 DUP1 DUP4 MSTORE DUP4 MLOAD DUP1 DUP3 DUP6 ADD MSTORE PUSH1 0x0 JUMPDEST DUP2 DUP2 LT ISZERO PUSH2 0x72E JUMPI DUP6 DUP2 ADD DUP4 ADD MLOAD DUP6 DUP3 ADD PUSH1 0x40 ADD MSTORE DUP3 ADD PUSH2 0x712 JUMP JUMPDEST DUP2 DUP2 GT ISZERO PUSH2 0x740 JUMPI PUSH1 0x0 PUSH1 0x40 DUP4 DUP8 ADD ADD MSTORE JUMPDEST POP PUSH1 0x1F ADD PUSH1 0x1F NOT AND SWAP3 SWAP1 SWAP3 ADD PUSH1 0x40 ADD SWAP4 SWAP3 POP POP POP JUMP JUMPDEST DUP1 CALLDATALOAD PUSH1 0x1 PUSH1 0x1 PUSH1 0xA0 SHL SUB DUP2 AND DUP2 EQ PUSH2 0x76D JUMPI PUSH1 0x0 DUP1 REVERT JUMPDEST SWAP2 SWAP1 POP JUMP JUMPDEST PUSH1 0x0 DUP1 PUSH1 0x40 DUP4 DUP6 SUB SLT ISZERO PUSH2 0x785 JUMPI PUSH1 0x0 DUP1 REVERT JUMPDEST PUSH2 0x78E DUP4 PUSH2 0x756 JUMP JUMPDEST SWAP5 PUSH1 0x20 SWAP4 SWAP1 SWAP4 ADD CALLDATALOAD SWAP4 POP POP POP JUMP JUMPDEST PUSH1 0x0 DUP1 PUSH1 0x0 PUSH1 0x60 DUP5 DUP7 SUB SLT ISZERO PUSH2 0x7B1 JUMPI PUSH1 0x0 DUP1 REVERT JUMPDEST PUSH2 0x7BA DUP5 PUSH2 0x756 JUMP JUMPDEST SWAP3 POP PUSH2 0x7C8 PUSH1 0x20 DUP6 ADD PUSH2 0x756 JUMP JUMPDEST SWAP2 POP PUSH1 0x40 DUP5 ADD CALLDATALOAD SWAP1 POP SWAP3 POP SWAP3 POP SWAP3 JUMP JUMPDEST PUSH1 0x0 PUSH1 0x20 DUP3 DUP5 SUB SLT ISZERO PUSH2 0x7EA JUMPI PUSH1 0x0 DUP1 REVERT JUMPDEST PUSH2 0x7F3 DUP3 PUSH2 0x756 JUMP JUMPDEST SWAP4 SWAP3 POP POP POP JUMP JUMPDEST PUSH1 0x0 DUP1 PUSH1 0x40 DUP4 DUP6 SUB SLT ISZERO PUSH2 0x80D JUMPI PUSH1 0x0 DUP1 REVERT JUMPDEST PUSH2 0x816 DUP4 PUSH2 0x756 JUMP JUMPDEST SWAP2 POP PUSH2 0x824 PUSH1 0x20 DUP5 ADD PUSH2 0x756 JUMP JUMPDEST SWAP1 POP SWAP3 POP SWAP3 SWAP1 POP JUMP JUMPDEST PUSH1 0x1 DUP2 DUP2 SHR SWAP1 DUP3 AND DUP1 PUSH2 0x841 JUMPI PUSH1 0x7F DUP3 AND SWAP2 POP JUMPDEST PUSH1 0x20 DUP3 LT DUP2 EQ ISZERO PUSH2 0x862 JUMPI PUSH4 0x4E487B71 PUSH1 0xE0 SHL PUSH1 0x0 MSTORE PUSH1 0x22 PUSH1 0x4 MSTORE PUSH1 0x24 PUSH1 0x0 REVERT JUMPDEST POP SWAP2 SWAP1 POP JUMP JUMPDEST PUSH1 0x0 DUP3 NOT DUP3 GT ISZERO PUSH2 0x889 JUMPI PUSH4 0x4E487B71 PUSH1 0xE0 SHL PUSH1 0x0 MSTORE PUSH1 0x11 PUSH1 0x4 MSTORE PUSH1 0x24 PUSH1 0x0 REVERT JUMPDEST POP ADD SWAP1 JUMP INVALID LOG2 PUSH5 0x6970667358 0x22 SLT KECCAK256 0xAF PUSH25 0x8638528EEC26BD4CC85B97C678FDA33AC96C30D301338538 CHAINID 0x4B PUSH14 0x994B64736F6C63430008090033A2 PUSH5 0x6970667358 0x22 SLT KECCAK256 SWAP5 0xC BASEFEE PUSH26 0x34FBD90AD8AD17FC66AB459A53E67E2E9B1C6674FDB6B8CAE583 PUSH21 0xC264736F6C63430008090033000000000000000000 ",
  "sha1": "edb8868ba819d5f05bc852e5370cf42a571303c7",
  "source": "// SPDX-License-Identifier: MIT\npragma solidity >=0.8.0 <0.9.0;\n\nimport \"@openzeppelin/contracts/token/ERC20/ERC20.sol\";\nimport \"@openzeppelin/contracts/token/ERC721/ERC721.sol\";\n\nimport \"./ERC20Factory.sol\";\n\n// @title\n// @author Web3Wannabe\n// @notice\n// @dev\ncontract FractionalizeNFT is IERC721Receiver {\n\n    address public owner = msg.sender;\n\n    mapping (uint => FractionalizedNFT) private fracNFTs;\n    uint256 public fracNFTCount = 0;\n\n    //    mapping (address => uint256) userFracNFTs;\n\n    struct FractionalizedNFT {\n        uint256 nftTokenId;\n        address erc721Address;\n        address erc20Address;\n        string erc20Symbol;\n\taddress payable originalOwner;\n        uint256 buyoutPrice;\n        State state;\n    }\n\n    enum State { Fractionalized, Redeemed, BoughtOut }\n\n    constructor() {\n        owner = msg.sender;\n    }\n\n    event Received(address, uint);\n    event NftReceived(address);\n    event Fractionalized(address, uint);\n    event Redeemed(address, uint);\n    event BoughtOut(address, uint);\n    event Claimed(address, uint);\n\n    // https://blog.soliditylang.org/2020/03/26/fallback-receive-split/\n    receive() external payable {\n        emit Received(msg.sender, msg.value);\n    }\n\n    fallback() external payable {\n        revert();\n    }\n\n    function getERC20Address(uint256 fracNFTId) public view returns (address) {\n        return fracNFTs[fracNFTId].erc20Address;\n    }\n\n    function getERC20Symbol(uint256 fracNFTId) public view returns (string memory) {\n        return fracNFTs[fracNFTId].erc20Symbol;\n    }\n\n    function getState(uint256 fracNFTId) public view returns (State) {\n        return fracNFTs[fracNFTId].state;\n    }\n\n    function fractionalizeNft(address nftContractAddress,\n                              uint256 nftTokenId,\n                              string memory erc20Name,\n                              string memory erc20Symbol,\n                              uint256 erc20Supply,\n                              uint256 buyoutPrice) public returns (uint256) {\n        ERC721 nft = ERC721(nftContractAddress);\n        nft.safeTransferFrom(msg.sender, address(this), nftTokenId);\n        ERC20 erc20 = (new ERC20Factory)(erc20Name, erc20Symbol, erc20Supply, msg.sender);\n        fracNFTs[fracNFTCount] = FractionalizedNFT({\n            nftTokenId: nftTokenId,\n            erc721Address: nftContractAddress,\n            erc20Address: address(erc20),\n            erc20Symbol: erc20Symbol,\n            originalOwner: payable(msg.sender),\n            buyoutPrice: buyoutPrice,\n            state: State.Fractionalized});\n        uint256 fracNFTId = fracNFTCount;\n        fracNFTCount += 1;\n        emit Fractionalized(msg.sender, fracNFTId);\n        return fracNFTId;\n    }\n\n    function redeem(uint256 fracNFTId) public payable {\n        // A holder of the entire ERC20 supply can send the tokens in order to redeem the NFT.\n        ERC20 erc20 = ERC20(fracNFTs[fracNFTId].erc20Address);\n        uint256 redeemerBalance = erc20.balanceOf(msg.sender);\n        uint256 erc20Supply = erc20.totalSupply();\n        require(redeemerBalance == erc20Supply, \"Redeemeer does not hold the entire supply.\");\n        erc20.transferFrom(msg.sender, address(this), redeemerBalance);\n        ERC721 erc721 = ERC721(fracNFTs[fracNFTId].erc721Address);\n        erc721.safeTransferFrom(address(this), msg.sender, fracNFTs[fracNFTId].nftTokenId);\n        emit Redeemed(msg.sender, fracNFTId);\n    }\n\n    function buyout(uint256 fracNFTId) public payable {\n        // A buyer can buy the NFT as specified by the buyout price by sending ETH to the contract.\n        require(msg.value >= fracNFTs[fracNFTId].buyoutPrice, \"Sender sent less than the buyout price.\");\n        fracNFTs[fracNFTId].state = State.BoughtOut;\n        ERC721 erc721 = ERC721(fracNFTs[fracNFTId].erc721Address);\n        erc721.safeTransferFrom(address(this), msg.sender, fracNFTs[fracNFTId].nftTokenId);\n        emit BoughtOut(msg.sender, fracNFTId);\n    }\n\n    function claim(uint256 fracNFTId) public {\n        // A holder of the ERC20 token can claim his ETH following a buyout.\n        require(fracNFTs[fracNFTId].state == State.BoughtOut, \"Fractionalized NFT has not been bought out.\");\n        ERC20 erc20 = ERC20(fracNFTs[fracNFTId].erc20Address);\n        uint256 claimerBalance = erc20.balanceOf(msg.sender);\n        require(claimerBalance > 0, \"Claimer does not hold any tokens.\");\n        erc20.transferFrom(msg.sender, address(this), claimerBalance);\n        uint256 erc20Supply = erc20.totalSupply();\n        uint256 claimAmountWei = fracNFTs[fracNFTId].buyoutPrice*claimerBalance/erc20Supply;\n        payable(msg.sender).transfer(claimAmountWei);\n        emit Claimed(msg.sender, fracNFTId);\n    }\n\n    function onERC721Received(address operator, address from, uint256 nftTokenId, bytes memory data) public returns (bytes4) {\n        emit NftReceived(msg.sender);\n        return bytes4(keccak256(\"onERC721Received(address,address,uint256,bytes)\"));\n    }\n\n}\n",
  "sourcePath": "contracts/FractionalizeNFT.sol",
  "type": "contract"
}