{
  "abi": [
    {
      "inputs": [],
      "stateMutability": "nonpayable",
      "type": "constructor"
    },
    {
      "anonymous": false,
      "inputs": [
        {
          "indexed": true,
          "internalType": "address",
          "name": "sender",
          "type": "address"
        },
        {
          "indexed": true,
          "internalType": "uint256",
          "name": "fracNFTId",
          "type": "uint256"
        }
      ],
      "name": "BoughtOut",
      "type": "event"
    },
    {
      "anonymous": false,
      "inputs": [
        {
          "indexed": true,
          "internalType": "address",
          "name": "sender",
          "type": "address"
        },
        {
          "indexed": true,
          "internalType": "uint256",
          "name": "fracNFTId",
          "type": "uint256"
        }
      ],
      "name": "Claimed",
      "type": "event"
    },
    {
      "anonymous": false,
      "inputs": [
        {
          "indexed": true,
          "internalType": "address",
          "name": "sender",
          "type": "address"
        },
        {
          "indexed": true,
          "internalType": "uint256",
          "name": "fracNFTId",
          "type": "uint256"
        },
        {
          "indexed": true,
          "internalType": "string",
          "name": "erc20Name",
          "type": "string"
        },
        {
          "indexed": false,
          "internalType": "address",
          "name": "erc20Address",
          "type": "address"
        }
      ],
      "name": "Fractionalized",
      "type": "event"
    },
    {
      "anonymous": false,
      "inputs": [
        {
          "indexed": true,
          "internalType": "address",
          "name": "sender",
          "type": "address"
        }
      ],
      "name": "NftReceived",
      "type": "event"
    },
    {
      "anonymous": false,
      "inputs": [
        {
          "indexed": true,
          "internalType": "address",
          "name": "sender",
          "type": "address"
        },
        {
          "indexed": true,
          "internalType": "uint256",
          "name": "value",
          "type": "uint256"
        }
      ],
      "name": "Received",
      "type": "event"
    },
    {
      "anonymous": false,
      "inputs": [
        {
          "indexed": true,
          "internalType": "address",
          "name": "sender",
          "type": "address"
        },
        {
          "indexed": true,
          "internalType": "uint256",
          "name": "fracNFTId",
          "type": "uint256"
        }
      ],
      "name": "Redeemed",
      "type": "event"
    },
    {
      "stateMutability": "payable",
      "type": "fallback"
    },
    {
      "inputs": [
        {
          "internalType": "uint256",
          "name": "fracNFTId",
          "type": "uint256"
        }
      ],
      "name": "buyout",
      "outputs": [],
      "stateMutability": "payable",
      "type": "function"
    },
    {
      "inputs": [
        {
          "internalType": "uint256",
          "name": "fracNFTId",
          "type": "uint256"
        }
      ],
      "name": "claim",
      "outputs": [],
      "stateMutability": "nonpayable",
      "type": "function"
    },
    {
      "inputs": [
        {
          "internalType": "uint256",
          "name": "",
          "type": "uint256"
        }
      ],
      "name": "fracNFTs",
      "outputs": [
        {
          "internalType": "uint256",
          "name": "fracNFTId",
          "type": "uint256"
        },
        {
          "internalType": "uint256",
          "name": "nftTokenId",
          "type": "uint256"
        },
        {
          "internalType": "address",
          "name": "erc721Address",
          "type": "address"
        },
        {
          "internalType": "address",
          "name": "erc20Address",
          "type": "address"
        },
        {
          "internalType": "string",
          "name": "erc20Symbol",
          "type": "string"
        },
        {
          "internalType": "string",
          "name": "erc20Name",
          "type": "string"
        },
        {
          "internalType": "address payable",
          "name": "originalOwner",
          "type": "address"
        },
        {
          "internalType": "uint256",
          "name": "buyoutPrice",
          "type": "uint256"
        },
        {
          "internalType": "enum FractionalizeNFT.State",
          "name": "state",
          "type": "uint8"
        }
      ],
      "stateMutability": "view",
      "type": "function"
    },
    {
      "inputs": [
        {
          "internalType": "address",
          "name": "nftContractAddress",
          "type": "address"
        },
        {
          "internalType": "uint256",
          "name": "nftTokenId",
          "type": "uint256"
        },
        {
          "internalType": "string",
          "name": "erc20Name",
          "type": "string"
        },
        {
          "internalType": "string",
          "name": "erc20Symbol",
          "type": "string"
        },
        {
          "internalType": "uint256",
          "name": "erc20Supply",
          "type": "uint256"
        },
        {
          "internalType": "uint256",
          "name": "buyoutPrice",
          "type": "uint256"
        }
      ],
      "name": "fractionalizeNft",
      "outputs": [
        {
          "internalType": "uint256",
          "name": "",
          "type": "uint256"
        }
      ],
      "stateMutability": "nonpayable",
      "type": "function"
    },
    {
      "inputs": [
        {
          "internalType": "uint256",
          "name": "fracNFTId",
          "type": "uint256"
        }
      ],
      "name": "getERC20Address",
      "outputs": [
        {
          "internalType": "address",
          "name": "",
          "type": "address"
        }
      ],
      "stateMutability": "view",
      "type": "function"
    },
    {
      "inputs": [
        {
          "internalType": "uint256",
          "name": "fracNFTId",
          "type": "uint256"
        }
      ],
      "name": "getERC20Symbol",
      "outputs": [
        {
          "internalType": "string",
          "name": "",
          "type": "string"
        }
      ],
      "stateMutability": "view",
      "type": "function"
    },
    {
      "inputs": [],
      "name": "getFracNftCount",
      "outputs": [
        {
          "internalType": "uint256",
          "name": "",
          "type": "uint256"
        }
      ],
      "stateMutability": "view",
      "type": "function"
    },
    {
      "inputs": [
        {
          "internalType": "uint256",
          "name": "fracNFTId",
          "type": "uint256"
        }
      ],
      "name": "getState",
      "outputs": [
        {
          "internalType": "enum FractionalizeNFT.State",
          "name": "",
          "type": "uint8"
        }
      ],
      "stateMutability": "view",
      "type": "function"
    },
    {
      "inputs": [
        {
          "internalType": "uint256",
          "name": "",
          "type": "uint256"
        }
      ],
      "name": "idList",
      "outputs": [
        {
          "internalType": "uint256",
          "name": "",
          "type": "uint256"
        }
      ],
      "stateMutability": "view",
      "type": "function"
    },
    {
      "inputs": [],
      "name": "idListLength",
      "outputs": [
        {
          "internalType": "uint256",
          "name": "",
          "type": "uint256"
        }
      ],
      "stateMutability": "view",
      "type": "function"
    },
    {
      "inputs": [
        {
          "internalType": "address",
          "name": "operator",
          "type": "address"
        },
        {
          "internalType": "address",
          "name": "from",
          "type": "address"
        },
        {
          "internalType": "uint256",
          "name": "nftTokenId",
          "type": "uint256"
        },
        {
          "internalType": "bytes",
          "name": "data",
          "type": "bytes"
        }
      ],
      "name": "onERC721Received",
      "outputs": [
        {
          "internalType": "bytes4",
          "name": "",
          "type": "bytes4"
        }
      ],
      "stateMutability": "nonpayable",
      "type": "function"
    },
    {
      "inputs": [
        {
          "internalType": "uint256",
          "name": "fracNFTId",
          "type": "uint256"
        }
      ],
      "name": "redeem",
      "outputs": [],
      "stateMutability": "nonpayable",
      "type": "function"
    },
    {
      "stateMutability": "payable",
      "type": "receive"
    }
  ],
  "bytecode": "608060405234801561001057600080fd5b506124bf806100206000396000f3fe608060405260043610620000db5760003560e01c80636386cd17116200007d578063b141d7811162000054578063b141d781146200029e578063d1bc6caa14620002da578063db006a75146200031857600080fd5b80636386cd17146200023b57806378fe17e514620002535780638478d997146200028757600080fd5b8063379607f511620000b2578063379607f514620001bd57806344c9af2814620001e25780636313531f146200021657600080fd5b806306fbd1f2146200011557806307bec66f146200014d578063150b7a02146200016657600080fd5b366200011057604051349033907f88a5966d370b9919b20f3e2c13ff65706f196a4e32cc2c12bf57088f8852587490600090a3005b600080fd5b3480156200012257600080fd5b506200013a620001343660046200136a565b6200033d565b6040519081526020015b60405180910390f35b620001646200015e36600462001403565b6200063d565b005b3480156200017357600080fd5b506200018b620001853660046200141d565b6200078e565b6040517fffffffff00000000000000000000000000000000000000000000000000000000909116815260200162000144565b348015620001ca57600080fd5b5062000164620001dc36600462001403565b620007e5565b348015620001ef57600080fd5b50620002076200020136600462001403565b62000b29565b604051620001449190620014db565b3480156200022357600080fd5b506200013a6200023536600462001403565b62000bb2565b3480156200024857600080fd5b506200013a60035481565b3480156200026057600080fd5b50620002786200027236600462001403565b62000bd4565b60405162000144919062001552565b3480156200029457600080fd5b506000546200013a565b348015620002ab57600080fd5b50620002c3620002bd36600462001403565b62000ce9565b604051620001449998979695949392919062001567565b348015620002e757600080fd5b50620002ff620002f936600462001403565b62000e6e565b6040516001600160a01b03909116815260200162000144565b3480156200032557600080fd5b50620001646200033736600462001403565b62000ef9565b600080858585336040516200035290620011dc565b620003619493929190620015e7565b604051809103906000f0801580156200037e573d6000803e3d6000fd5b50905060006200038d60005490565b90506040518061012001604052808281526020018981526020018a6001600160a01b03168152602001836001600160a01b03168152602001878152602001888152602001336001600160a01b0316815260200185815260200160006002811115620003fc57620003fc620014a2565b9052600160006200040b815490565b8152602080820192909252604090810160002083518155838301516001820155908301516002820180546001600160a01b039283167fffffffffffffffffffffffff00000000000000000000000000000000000000009182161790915560608501516003840180549190931691161790556080830151805191926200049992600485019290910190620011ea565b5060a08201518051620004b7916005840191602090910190620011ea565b5060c08201516006820180547fffffffffffffffffffffffff0000000000000000000000000000000000000000166001600160a01b0390921691909117905560e0820151600782015561010082015160088201805460ff19166001836002811115620005275762000527620014a2565b0217905550506000805460028054600180820183558285527f405787fa12a823e0f2b7631cc41b3ba8828b3321ca811111fa75cd3aa3bb5ace909101839055905460035501905550604051632142170760e11b81523360048201523060248201526044810189905289906001600160a01b038216906342842e0e90606401600060405180830381600087803b158015620005c057600080fd5b505af1158015620005d5573d6000803e3d6000fd5b5050505086604051620005e9919062001631565b6040519081900381206001600160a01b038516825290839033907fe2c8aefc9d0a52c93c762509eeeac2a518c41c52f791b6888c0673d07312c6059060200160405180910390a45098975050505050505050565b600081815260016020526040902060070154341015620006ca5760405162461bcd60e51b815260206004820152602760248201527f53656e6465722073656e74206c657373207468616e20746865206275796f757460448201527f2070726963652e0000000000000000000000000000000000000000000000000060648201526084015b60405180910390fd5b60008181526001602081905260409182902060088101805460ff191660029081179091558101549101549151632142170760e11b815230600482015233602482015260448101929092526001600160a01b03169081906342842e0e90606401600060405180830381600087803b1580156200074457600080fd5b505af115801562000759573d6000803e3d6000fd5b50506040518492503391507ffbbd268bb69cf922e3840dc96a6702dc064baf4b2d9594b5a66a2fe428f3f2aa90600090a35050565b60405160009033907fcce71fc9cfcacc4ce8153bde254a735ae423cdc2b7852fb754f4de746ac3018f908390a2507f150b7a023d4804d13e8c85fb27262cb750cf6ba9f9dd3bb30d90f482ceeb4b1f949350505050565b600260008281526001602052604090206008015460ff166002811115620008105762000810620014a2565b14620008855760405162461bcd60e51b815260206004820152602b60248201527f4672616374696f6e616c697a6564204e465420686173206e6f74206265656e2060448201527f626f75676874206f75742e0000000000000000000000000000000000000000006064820152608401620006c1565b6000818152600160205260408082206003015490516370a0823160e01b81523360048201526001600160a01b03909116919082906370a082319060240160206040518083038186803b158015620008db57600080fd5b505afa158015620008f0573d6000803e3d6000fd5b505050506040513d601f19601f820116820180604052508101906200091691906200164f565b905060008111620009905760405162461bcd60e51b815260206004820152602160248201527f436c61696d657220646f6573206e6f7420686f6c6420616e7920746f6b656e7360448201527f2e000000000000000000000000000000000000000000000000000000000000006064820152608401620006c1565b6040516323b872dd60e01b8152336004820152306024820152604481018290526001600160a01b038316906323b872dd90606401602060405180830381600087803b158015620009df57600080fd5b505af1158015620009f4573d6000803e3d6000fd5b505050506040513d601f19601f8201168201806040525081019062000a1a919062001669565b506000826001600160a01b03166318160ddd6040518163ffffffff1660e01b815260040160206040518083038186803b15801562000a5757600080fd5b505afa15801562000a6c573d6000803e3d6000fd5b505050506040513d601f19601f8201168201806040525081019062000a9291906200164f565b60008581526001602052604081206007015491925090829062000ab79085906200168d565b62000ac39190620016bb565b604051909150339082156108fc029083906000818181858888f1935050505015801562000af4573d6000803e3d6000fd5b50604051859033907fd8138f8a3f377c5259ca548e70e4c2de94f129f5a11036a15b69513cba2b426a90600090a35050505050565b60008162000b3660005490565b811062000b945760405162461bcd60e51b815260206004820152602560248201527f667261634e4654496420646f6573206e6f7420657869737420696e206672616360448201526427232a399760d91b6064820152608401620006c1565b60008381526001602052604090206008015460ff1691505b50919050565b6002818154811062000bc357600080fd5b600091825260209091200154905081565b60608162000be160005490565b811062000c3f5760405162461bcd60e51b815260206004820152602560248201527f667261634e4654496420646f6573206e6f7420657869737420696e206672616360448201526427232a399760d91b6064820152608401620006c1565b6000838152600160205260409020600401805462000c5d90620016de565b80601f016020809104026020016040519081016040528092919081815260200182805462000c8b90620016de565b801562000cdc5780601f1062000cb05761010080835404028352916020019162000cdc565b820191906000526020600020905b81548152906001019060200180831162000cbe57829003601f168201915b5050505050915050919050565b60016020819052600091825260409091208054918101546002820154600383015460048401805493946001600160a01b0393841694939092169262000d2e90620016de565b80601f016020809104026020016040519081016040528092919081815260200182805462000d5c90620016de565b801562000dad5780601f1062000d815761010080835404028352916020019162000dad565b820191906000526020600020905b81548152906001019060200180831162000d8f57829003601f168201915b50505050509080600501805462000dc490620016de565b80601f016020809104026020016040519081016040528092919081815260200182805462000df290620016de565b801562000e435780601f1062000e175761010080835404028352916020019162000e43565b820191906000526020600020905b81548152906001019060200180831162000e2557829003601f168201915b505050506006830154600784015460089094015492936001600160a01b039091169290915060ff1689565b60008162000e7b60005490565b811062000ed95760405162461bcd60e51b815260206004820152602560248201527f667261634e4654496420646f6573206e6f7420657869737420696e206672616360448201526427232a399760d91b6064820152608401620006c1565b50506000908152600160205260409020600301546001600160a01b031690565b6000818152600160205260408082206003015490516370a0823160e01b81523360048201526001600160a01b03909116919082906370a082319060240160206040518083038186803b15801562000f4f57600080fd5b505afa15801562000f64573d6000803e3d6000fd5b505050506040513d601f19601f8201168201806040525081019062000f8a91906200164f565b90506000826001600160a01b03166318160ddd6040518163ffffffff1660e01b815260040160206040518083038186803b15801562000fc857600080fd5b505afa15801562000fdd573d6000803e3d6000fd5b505050506040513d601f19601f820116820180604052508101906200100391906200164f565b90508082146200107c5760405162461bcd60e51b815260206004820152602a60248201527f52656465656d65657220646f6573206e6f7420686f6c642074686520656e746960448201527f726520737570706c792e000000000000000000000000000000000000000000006064820152608401620006c1565b600084815260016020819052604091829020600801805460ff19169091179055516323b872dd60e01b8152336004820152306024820152604481018390526001600160a01b038416906323b872dd90606401602060405180830381600087803b158015620010e957600080fd5b505af1158015620010fe573d6000803e3d6000fd5b505050506040513d601f19601f8201168201806040525081019062001124919062001669565b5060008481526001602081905260409182902060028101549101549151632142170760e11b815230600482015233602482015260448101929092526001600160a01b03169081906342842e0e90606401600060405180830381600087803b1580156200118f57600080fd5b505af1158015620011a4573d6000803e3d6000fd5b50506040518792503391507f4896181ff8f4543cc00db9fe9b6fb7e6f032b7eb772c72ab1ec1b4d2e03b936990600090a35050505050565b610d74806200171683390190565b828054620011f890620016de565b90600052602060002090601f0160209004810192826200121c576000855562001267565b82601f106200123757805160ff191683800117855562001267565b8280016001018555821562001267579182015b82811115620012675782518255916020019190600101906200124a565b506200127592915062001279565b5090565b5b808211156200127557600081556001016200127a565b80356001600160a01b0381168114620012a857600080fd5b919050565b634e487b7160e01b600052604160045260246000fd5b600067ffffffffffffffff80841115620012e157620012e1620012ad565b604051601f8501601f19908116603f011681019082821181831017156200130c576200130c620012ad565b816040528093508581528686860111156200132657600080fd5b858560208301376000602087830101525050509392505050565b600082601f8301126200135257600080fd5b6200136383833560208501620012c3565b9392505050565b60008060008060008060c087890312156200138457600080fd5b6200138f8762001290565b955060208701359450604087013567ffffffffffffffff80821115620013b457600080fd5b620013c28a838b0162001340565b95506060890135915080821115620013d957600080fd5b50620013e889828a0162001340565b9350506080870135915060a087013590509295509295509295565b6000602082840312156200141657600080fd5b5035919050565b600080600080608085870312156200143457600080fd5b6200143f8562001290565b93506200144f6020860162001290565b925060408501359150606085013567ffffffffffffffff8111156200147357600080fd5b8501601f810187136200148557600080fd5b6200149687823560208401620012c3565b91505092959194509250565b634e487b7160e01b600052602160045260246000fd5b60038110620014d757634e487b7160e01b600052602160045260246000fd5b9052565b60208101620014eb8284620014b8565b92915050565b60005b838110156200150e578181015183820152602001620014f4565b838111156200151e576000848401525b50505050565b600081518084526200153e816020860160208601620014f1565b601f01601f19169290920160200192915050565b60208152600062001363602083018462001524565b60006101208b83528a60208401526001600160a01b03808b166040850152808a166060850152816080850152620015a18285018a62001524565b915083820360a0850152620015b7828962001524565b925080871660c085015250508360e0830152620015d9610100830184620014b8565b9a9950505050505050505050565b608081526000620015fc608083018762001524565b828103602084015262001610818762001524565b9150508360408301526001600160a01b038316606083015295945050505050565b6000825162001645818460208701620014f1565b9190910192915050565b6000602082840312156200166257600080fd5b5051919050565b6000602082840312156200167c57600080fd5b815180151581146200136357600080fd5b6000816000190483118215151615620016b657634e487b7160e01b600052601160045260246000fd5b500290565b600082620016d957634e487b7160e01b600052601260045260246000fd5b500490565b600181811c90821680620016f357607f821691505b6020821081141562000bac57634e487b7160e01b600052602260045260246000fdfe60806040523480156200001157600080fd5b5060405162000d7438038062000d748339810160408190526200003491620002dd565b8351849084906200004d9060039060208501906200016a565b508051620000639060049060208401906200016a565b5050506200007881836200008260201b60201c565b50505050620003d6565b6001600160a01b038216620000dd5760405162461bcd60e51b815260206004820152601f60248201527f45524332303a206d696e7420746f20746865207a65726f206164647265737300604482015260640160405180910390fd5b8060026000828254620000f1919062000372565b90915550506001600160a01b038216600090815260208190526040812080548392906200012090849062000372565b90915550506040518181526001600160a01b038316906000907fddf252ad1be2c89b69c2b068fc378daa952ba7f163c4a11628f55a4df523b3ef9060200160405180910390a35050565b828054620001789062000399565b90600052602060002090601f0160209004810192826200019c5760008555620001e7565b82601f10620001b757805160ff1916838001178555620001e7565b82800160010185558215620001e7579182015b82811115620001e7578251825591602001919060010190620001ca565b50620001f5929150620001f9565b5090565b5b80821115620001f55760008155600101620001fa565b634e487b7160e01b600052604160045260246000fd5b600082601f8301126200023857600080fd5b81516001600160401b038082111562000255576200025562000210565b604051601f8301601f19908116603f0116810190828211818310171562000280576200028062000210565b816040528381526020925086838588010111156200029d57600080fd5b600091505b83821015620002c15785820183015181830184015290820190620002a2565b83821115620002d35760008385830101525b9695505050505050565b60008060008060808587031215620002f457600080fd5b84516001600160401b03808211156200030c57600080fd5b6200031a8883890162000226565b955060208701519150808211156200033157600080fd5b50620003408782880162000226565b60408701516060880151919550935090506001600160a01b03811681146200036757600080fd5b939692955090935050565b600082198211156200039457634e487b7160e01b600052601160045260246000fd5b500190565b600181811c90821680620003ae57607f821691505b60208210811415620003d057634e487b7160e01b600052602260045260246000fd5b50919050565b61098e80620003e66000396000f3fe608060405234801561001057600080fd5b50600436106100c95760003560e01c80633950935111610081578063a457c2d71161005b578063a457c2d714610187578063a9059cbb1461019a578063dd62ed3e146101ad57600080fd5b8063395093511461014357806370a082311461015657806395d89b411461017f57600080fd5b806318160ddd116100b257806318160ddd1461010f57806323b872dd14610121578063313ce5671461013457600080fd5b806306fdde03146100ce578063095ea7b3146100ec575b600080fd5b6100d66101e6565b6040516100e391906107cb565b60405180910390f35b6100ff6100fa36600461083c565b610278565b60405190151581526020016100e3565b6002545b6040519081526020016100e3565b6100ff61012f366004610866565b61028e565b604051601281526020016100e3565b6100ff61015136600461083c565b610352565b6101136101643660046108a2565b6001600160a01b031660009081526020819052604090205490565b6100d661038e565b6100ff61019536600461083c565b61039d565b6100ff6101a836600461083c565b61044e565b6101136101bb3660046108c4565b6001600160a01b03918216600090815260016020908152604080832093909416825291909152205490565b6060600380546101f5906108f7565b80601f0160208091040260200160405190810160405280929190818152602001828054610221906108f7565b801561026e5780601f106102435761010080835404028352916020019161026e565b820191906000526020600020905b81548152906001019060200180831161025157829003601f168201915b5050505050905090565b600061028533848461045b565b50600192915050565b600061029b8484846105b3565b6001600160a01b03841660009081526001602090815260408083203384529091529020548281101561033a5760405162461bcd60e51b815260206004820152602860248201527f45524332303a207472616e7366657220616d6f756e742065786365656473206160448201527f6c6c6f77616e636500000000000000000000000000000000000000000000000060648201526084015b60405180910390fd5b610347853385840361045b565b506001949350505050565b3360008181526001602090815260408083206001600160a01b03871684529091528120549091610285918590610389908690610932565b61045b565b6060600480546101f5906108f7565b3360009081526001602090815260408083206001600160a01b0386168452909152812054828110156104375760405162461bcd60e51b815260206004820152602560248201527f45524332303a2064656372656173656420616c6c6f77616e63652062656c6f7760448201527f207a65726f0000000000000000000000000000000000000000000000000000006064820152608401610331565b610444338585840361045b565b5060019392505050565b60006102853384846105b3565b6001600160a01b0383166104d65760405162461bcd60e51b8152602060048201526024808201527f45524332303a20617070726f76652066726f6d20746865207a65726f2061646460448201527f72657373000000000000000000000000000000000000000000000000000000006064820152608401610331565b6001600160a01b0382166105525760405162461bcd60e51b815260206004820152602260248201527f45524332303a20617070726f766520746f20746865207a65726f20616464726560448201527f73730000000000000000000000000000000000000000000000000000000000006064820152608401610331565b6001600160a01b0383811660008181526001602090815260408083209487168084529482529182902085905590518481527f8c5be1e5ebec7d5bd14f71427d1e84f3dd0314c0f7b2291e5b200ac8c7c3b925910160405180910390a3505050565b6001600160a01b03831661062f5760405162461bcd60e51b815260206004820152602560248201527f45524332303a207472616e736665722066726f6d20746865207a65726f20616460448201527f64726573730000000000000000000000000000000000000000000000000000006064820152608401610331565b6001600160a01b0382166106ab5760405162461bcd60e51b815260206004820152602360248201527f45524332303a207472616e7366657220746f20746865207a65726f206164647260448201527f65737300000000000000000000000000000000000000000000000000000000006064820152608401610331565b6001600160a01b0383166000908152602081905260409020548181101561073a5760405162461bcd60e51b815260206004820152602660248201527f45524332303a207472616e7366657220616d6f756e742065786365656473206260448201527f616c616e636500000000000000000000000000000000000000000000000000006064820152608401610331565b6001600160a01b03808516600090815260208190526040808220858503905591851681529081208054849290610771908490610932565b92505081905550826001600160a01b0316846001600160a01b03167fddf252ad1be2c89b69c2b068fc378daa952ba7f163c4a11628f55a4df523b3ef846040516107bd91815260200190565b60405180910390a350505050565b600060208083528351808285015260005b818110156107f8578581018301518582016040015282016107dc565b8181111561080a576000604083870101525b50601f01601f1916929092016040019392505050565b80356001600160a01b038116811461083757600080fd5b919050565b6000806040838503121561084f57600080fd5b61085883610820565b946020939093013593505050565b60008060006060848603121561087b57600080fd5b61088484610820565b925061089260208501610820565b9150604084013590509250925092565b6000602082840312156108b457600080fd5b6108bd82610820565b9392505050565b600080604083850312156108d757600080fd5b6108e083610820565b91506108ee60208401610820565b90509250929050565b600181811c9082168061090b57607f821691505b6020821081141561092c57634e487b7160e01b600052602260045260246000fd5b50919050565b6000821982111561095357634e487b7160e01b600052601160045260246000fd5b50019056fea2646970667358221220c33e18c39678a5baa01084cb37942d7727f5fcf4facff9b937c4fe17977492a564736f6c63430008090033a26469706673582212200710f3319aa1d8a39a4baba66dcab4a0f25f309aa78aa9d1db39d4c7a8aef83764736f6c63430008090033",
  "bytecodeSha1": "d24bfba503d7afd841be94009c06a468831c2262",
  "compiler": {
    "evm_version": "istanbul",
    "optimizer": {
      "enabled": true,
      "runs": 1500
    },
    "version": "0.8.9+commit.e5eed63a"
  },
  "contractName": "FractionalizeNFT",
  "language": "Solidity",
  "natspec": {
    "author": "Web3Wannabe",
    "kind": "dev",
    "methods": {
      "buyout(uint256)": {
        "notice": "Allows an account to buy the NFT from the contract for the specified buyout price.",
        "params": {
          "fracNFTId": "The ID of the fractionalized NFT to buy."
        }
      },
      "claim(uint256)": {
        "details": "Note, the ERC20 must be approved for transfer by the FractionalizeNFT contract before calling claim().",
        "notice": "Allows a holder of the ERC20 tokens to claim his share of the sale proceedings (in ether) following a buyout of the fractionalized NFT.",
        "params": {
          "fracNFTId": "The ID of the fractionalized NFT to claim a payout for."
        }
      },
      "fractionalizeNft(address,uint256,string,string,uint256,uint256)": {
        "details": "Note, the NFT must be approved for transfer by the FractionalizeNFT contract.",
        "notice": "Create a fractionalized NFT: Lock the NFT in the contract; create a new ERC20 token, as specified; and transfer the total supply of the token to the sender.",
        "params": {
          "buyoutPrice": "The price (in Wei) for which the fractionalized NFT can be be bought for from the contract.",
          "erc20Name": "The name of the newly created ERC20 token.",
          "erc20Supply": "The total supply of the newly created ERC20 token.",
          "erc20Symbol": "The symbol of the newly created ERC20 token.",
          "nftContractAddress": "The address of the NFT that is to be fractionalized.",
          "nftTokenId": "The token ID of the NFT that is to be fractionalized."
        },
        "returns": {
          "_0": "The ID of the newly created fractionalized NFT."
        }
      },
      "getERC20Address(uint256)": {
        "notice": "A getter function for the contract address of a fractionalized NFT's ERC20 token.",
        "params": {
          "fracNFTId": "The ID of the fractionalized NFT."
        },
        "returns": {
          "_0": "The ERC20 contract address."
        }
      },
      "getERC20Symbol(uint256)": {
        "notice": "A getter function for the symbol of a fractionalized NFT's ERC20 token.",
        "params": {
          "fracNFTId": "The ID of the fractionalized NFT."
        },
        "returns": {
          "_0": "The ERC20's symobl."
        }
      },
      "getFracNftCount()": {
        "notice": "A getter function to get the current number of fractionalized NFT entries in the contract.",
        "returns": {
          "_0": "The number of fractionalized NFT entries."
        }
      },
      "getState(uint256)": {
        "notice": "A getter function for the state of a fractionalized NFT.",
        "params": {
          "fracNFTId": "The ID of the fractionalized NFT."
        },
        "returns": {
          "_0": "The fractionalized NFT's state (Fractionalized, Redeemed or BoughtOut)."
        }
      },
      "idList(uint256)": {
        "notice": "List of all fractionalized NFT ids."
      },
      "idListLength()": {
        "notice": "idList length."
      },
      "onERC721Received(address,address,uint256,bytes)": {
        "details": "Required to use safeTransferFrom() from OpenZeppelin's ERC721 contract (when transferring NFTs to this contract)."
      },
      "redeem(uint256)": {
        "details": "Note, the ERC20 must be approved for transfer by the FractionalizeNFT contract before calling redeem().",
        "notice": "A holder of the entire ERC20 supply can call redeem in order to receive the underlying NFT from the contract. The ERC20 tokens get transferred to the contract address.",
        "params": {
          "fracNFTId": "The ID of the fractionalized NFT to redem."
        }
      }
    },
    "notice": "NFTs can be sent to the contract with a specified buyout price. The sender receives the total supply of a newly created ERC20 token.",
    "stateVariables": {
      "idList": {
        "details": "Used as a helper when iterating over fractionalized NFTs in frontend clients."
      },
      "idListLength": {
        "details": "Used as a helper when iterating over fractionalized NFTs in frontend clients."
      }
    },
    "title": "NFT Fractionalizer with Buyout Functionality",
    "version": 1
  },
  "opcodes": "PUSH1 0x80 PUSH1 0x40 MSTORE PUSH1 0x4 CALLDATASIZE LT PUSH3 0xDB JUMPI PUSH1 0x0 CALLDATALOAD PUSH1 0xE0 SHR DUP1 PUSH4 0x6386CD17 GT PUSH3 0x7D JUMPI DUP1 PUSH4 0xB141D781 GT PUSH3 0x54 JUMPI DUP1 PUSH4 0xB141D781 EQ PUSH3 0x29E JUMPI DUP1 PUSH4 0xD1BC6CAA EQ PUSH3 0x2DA JUMPI DUP1 PUSH4 0xDB006A75 EQ PUSH3 0x318 JUMPI PUSH1 0x0 DUP1 REVERT JUMPDEST DUP1 PUSH4 0x6386CD17 EQ PUSH3 0x23B JUMPI DUP1 PUSH4 0x78FE17E5 EQ PUSH3 0x253 JUMPI DUP1 PUSH4 0x8478D997 EQ PUSH3 0x287 JUMPI PUSH1 0x0 DUP1 REVERT JUMPDEST DUP1 PUSH4 0x379607F5 GT PUSH3 0xB2 JUMPI DUP1 PUSH4 0x379607F5 EQ PUSH3 0x1BD JUMPI DUP1 PUSH4 0x44C9AF28 EQ PUSH3 0x1E2 JUMPI DUP1 PUSH4 0x6313531F EQ PUSH3 0x216 JUMPI PUSH1 0x0 DUP1 REVERT JUMPDEST DUP1 PUSH4 0x6FBD1F2 EQ PUSH3 0x115 JUMPI DUP1 PUSH4 0x7BEC66F EQ PUSH3 0x14D JUMPI DUP1 PUSH4 0x150B7A02 EQ PUSH3 0x166 JUMPI PUSH1 0x0 DUP1 REVERT JUMPDEST CALLDATASIZE PUSH3 0x110 JUMPI PUSH1 0x40 MLOAD CALLVALUE SWAP1 CALLER SWAP1 PUSH32 0x88A5966D370B9919B20F3E2C13FF65706F196A4E32CC2C12BF57088F88525874 SWAP1 PUSH1 0x0 SWAP1 LOG3 STOP JUMPDEST PUSH1 0x0 DUP1 REVERT JUMPDEST CALLVALUE DUP1 ISZERO PUSH3 0x122 JUMPI PUSH1 0x0 DUP1 REVERT JUMPDEST POP PUSH3 0x13A PUSH3 0x134 CALLDATASIZE PUSH1 0x4 PUSH3 0x136A JUMP JUMPDEST PUSH3 0x33D JUMP JUMPDEST PUSH1 0x40 MLOAD SWAP1 DUP2 MSTORE PUSH1 0x20 ADD JUMPDEST PUSH1 0x40 MLOAD DUP1 SWAP2 SUB SWAP1 RETURN JUMPDEST PUSH3 0x164 PUSH3 0x15E CALLDATASIZE PUSH1 0x4 PUSH3 0x1403 JUMP JUMPDEST PUSH3 0x63D JUMP JUMPDEST STOP JUMPDEST CALLVALUE DUP1 ISZERO PUSH3 0x173 JUMPI PUSH1 0x0 DUP1 REVERT JUMPDEST POP PUSH3 0x18B PUSH3 0x185 CALLDATASIZE PUSH1 0x4 PUSH3 0x141D JUMP JUMPDEST PUSH3 0x78E JUMP JUMPDEST PUSH1 0x40 MLOAD PUSH32 0xFFFFFFFF00000000000000000000000000000000000000000000000000000000 SWAP1 SWAP2 AND DUP2 MSTORE PUSH1 0x20 ADD PUSH3 0x144 JUMP JUMPDEST CALLVALUE DUP1 ISZERO PUSH3 0x1CA JUMPI PUSH1 0x0 DUP1 REVERT JUMPDEST POP PUSH3 0x164 PUSH3 0x1DC CALLDATASIZE PUSH1 0x4 PUSH3 0x1403 JUMP JUMPDEST PUSH3 0x7E5 JUMP JUMPDEST CALLVALUE DUP1 ISZERO PUSH3 0x1EF JUMPI PUSH1 0x0 DUP1 REVERT JUMPDEST POP PUSH3 0x207 PUSH3 0x201 CALLDATASIZE PUSH1 0x4 PUSH3 0x1403 JUMP JUMPDEST PUSH3 0xB29 JUMP JUMPDEST PUSH1 0x40 MLOAD PUSH3 0x144 SWAP2 SWAP1 PUSH3 0x14DB JUMP JUMPDEST CALLVALUE DUP1 ISZERO PUSH3 0x223 JUMPI PUSH1 0x0 DUP1 REVERT JUMPDEST POP PUSH3 0x13A PUSH3 0x235 CALLDATASIZE PUSH1 0x4 PUSH3 0x1403 JUMP JUMPDEST PUSH3 0xBB2 JUMP JUMPDEST CALLVALUE DUP1 ISZERO PUSH3 0x248 JUMPI PUSH1 0x0 DUP1 REVERT JUMPDEST POP PUSH3 0x13A PUSH1 0x3 SLOAD DUP2 JUMP JUMPDEST CALLVALUE DUP1 ISZERO PUSH3 0x260 JUMPI PUSH1 0x0 DUP1 REVERT JUMPDEST POP PUSH3 0x278 PUSH3 0x272 CALLDATASIZE PUSH1 0x4 PUSH3 0x1403 JUMP JUMPDEST PUSH3 0xBD4 JUMP JUMPDEST PUSH1 0x40 MLOAD PUSH3 0x144 SWAP2 SWAP1 PUSH3 0x1552 JUMP JUMPDEST CALLVALUE DUP1 ISZERO PUSH3 0x294 JUMPI PUSH1 0x0 DUP1 REVERT JUMPDEST POP PUSH1 0x0 SLOAD PUSH3 0x13A JUMP JUMPDEST CALLVALUE DUP1 ISZERO PUSH3 0x2AB JUMPI PUSH1 0x0 DUP1 REVERT JUMPDEST POP PUSH3 0x2C3 PUSH3 0x2BD CALLDATASIZE PUSH1 0x4 PUSH3 0x1403 JUMP JUMPDEST PUSH3 0xCE9 JUMP JUMPDEST PUSH1 0x40 MLOAD PUSH3 0x144 SWAP10 SWAP9 SWAP8 SWAP7 SWAP6 SWAP5 SWAP4 SWAP3 SWAP2 SWAP1 PUSH3 0x1567 JUMP JUMPDEST CALLVALUE DUP1 ISZERO PUSH3 0x2E7 JUMPI PUSH1 0x0 DUP1 REVERT JUMPDEST POP PUSH3 0x2FF PUSH3 0x2F9 CALLDATASIZE PUSH1 0x4 PUSH3 0x1403 JUMP JUMPDEST PUSH3 0xE6E JUMP JUMPDEST PUSH1 0x40 MLOAD PUSH1 0x1 PUSH1 0x1 PUSH1 0xA0 SHL SUB SWAP1 SWAP2 AND DUP2 MSTORE PUSH1 0x20 ADD PUSH3 0x144 JUMP JUMPDEST CALLVALUE DUP1 ISZERO PUSH3 0x325 JUMPI PUSH1 0x0 DUP1 REVERT JUMPDEST POP PUSH3 0x164 PUSH3 0x337 CALLDATASIZE PUSH1 0x4 PUSH3 0x1403 JUMP JUMPDEST PUSH3 0xEF9 JUMP JUMPDEST PUSH1 0x0 DUP1 DUP6 DUP6 DUP6 CALLER PUSH1 0x40 MLOAD PUSH3 0x352 SWAP1 PUSH3 0x11DC JUMP JUMPDEST PUSH3 0x361 SWAP5 SWAP4 SWAP3 SWAP2 SWAP1 PUSH3 0x15E7 JUMP JUMPDEST PUSH1 0x40 MLOAD DUP1 SWAP2 SUB SWAP1 PUSH1 0x0 CREATE DUP1 ISZERO DUP1 ISZERO PUSH3 0x37E JUMPI RETURNDATASIZE PUSH1 0x0 DUP1 RETURNDATACOPY RETURNDATASIZE PUSH1 0x0 REVERT JUMPDEST POP SWAP1 POP PUSH1 0x0 PUSH3 0x38D PUSH1 0x0 SLOAD SWAP1 JUMP JUMPDEST SWAP1 POP PUSH1 0x40 MLOAD DUP1 PUSH2 0x120 ADD PUSH1 0x40 MSTORE DUP1 DUP3 DUP2 MSTORE PUSH1 0x20 ADD DUP10 DUP2 MSTORE PUSH1 0x20 ADD DUP11 PUSH1 0x1 PUSH1 0x1 PUSH1 0xA0 SHL SUB AND DUP2 MSTORE PUSH1 0x20 ADD DUP4 PUSH1 0x1 PUSH1 0x1 PUSH1 0xA0 SHL SUB AND DUP2 MSTORE PUSH1 0x20 ADD DUP8 DUP2 MSTORE PUSH1 0x20 ADD DUP9 DUP2 MSTORE PUSH1 0x20 ADD CALLER PUSH1 0x1 PUSH1 0x1 PUSH1 0xA0 SHL SUB AND DUP2 MSTORE PUSH1 0x20 ADD DUP6 DUP2 MSTORE PUSH1 0x20 ADD PUSH1 0x0 PUSH1 0x2 DUP2 GT ISZERO PUSH3 0x3FC JUMPI PUSH3 0x3FC PUSH3 0x14A2 JUMP JUMPDEST SWAP1 MSTORE PUSH1 0x1 PUSH1 0x0 PUSH3 0x40B DUP2 SLOAD SWAP1 JUMP JUMPDEST DUP2 MSTORE PUSH1 0x20 DUP1 DUP3 ADD SWAP3 SWAP1 SWAP3 MSTORE PUSH1 0x40 SWAP1 DUP2 ADD PUSH1 0x0 KECCAK256 DUP4 MLOAD DUP2 SSTORE DUP4 DUP4 ADD MLOAD PUSH1 0x1 DUP3 ADD SSTORE SWAP1 DUP4 ADD MLOAD PUSH1 0x2 DUP3 ADD DUP1 SLOAD PUSH1 0x1 PUSH1 0x1 PUSH1 0xA0 SHL SUB SWAP3 DUP4 AND PUSH32 0xFFFFFFFFFFFFFFFFFFFFFFFF0000000000000000000000000000000000000000 SWAP2 DUP3 AND OR SWAP1 SWAP2 SSTORE PUSH1 0x60 DUP6 ADD MLOAD PUSH1 0x3 DUP5 ADD DUP1 SLOAD SWAP2 SWAP1 SWAP4 AND SWAP2 AND OR SWAP1 SSTORE PUSH1 0x80 DUP4 ADD MLOAD DUP1 MLOAD SWAP2 SWAP3 PUSH3 0x499 SWAP3 PUSH1 0x4 DUP6 ADD SWAP3 SWAP1 SWAP2 ADD SWAP1 PUSH3 0x11EA JUMP JUMPDEST POP PUSH1 0xA0 DUP3 ADD MLOAD DUP1 MLOAD PUSH3 0x4B7 SWAP2 PUSH1 0x5 DUP5 ADD SWAP2 PUSH1 0x20 SWAP1 SWAP2 ADD SWAP1 PUSH3 0x11EA JUMP JUMPDEST POP PUSH1 0xC0 DUP3 ADD MLOAD PUSH1 0x6 DUP3 ADD DUP1 SLOAD PUSH32 0xFFFFFFFFFFFFFFFFFFFFFFFF0000000000000000000000000000000000000000 AND PUSH1 0x1 PUSH1 0x1 PUSH1 0xA0 SHL SUB SWAP1 SWAP3 AND SWAP2 SWAP1 SWAP2 OR SWAP1 SSTORE PUSH1 0xE0 DUP3 ADD MLOAD PUSH1 0x7 DUP3 ADD SSTORE PUSH2 0x100 DUP3 ADD MLOAD PUSH1 0x8 DUP3 ADD DUP1 SLOAD PUSH1 0xFF NOT AND PUSH1 0x1 DUP4 PUSH1 0x2 DUP2 GT ISZERO PUSH3 0x527 JUMPI PUSH3 0x527 PUSH3 0x14A2 JUMP JUMPDEST MUL OR SWAP1 SSTORE POP POP PUSH1 0x0 DUP1 SLOAD PUSH1 0x2 DUP1 SLOAD PUSH1 0x1 DUP1 DUP3 ADD DUP4 SSTORE DUP3 DUP6 MSTORE PUSH32 0x405787FA12A823E0F2B7631CC41B3BA8828B3321CA811111FA75CD3AA3BB5ACE SWAP1 SWAP2 ADD DUP4 SWAP1 SSTORE SWAP1 SLOAD PUSH1 0x3 SSTORE ADD SWAP1 SSTORE POP PUSH1 0x40 MLOAD PUSH4 0x21421707 PUSH1 0xE1 SHL DUP2 MSTORE CALLER PUSH1 0x4 DUP3 ADD MSTORE ADDRESS PUSH1 0x24 DUP3 ADD MSTORE PUSH1 0x44 DUP2 ADD DUP10 SWAP1 MSTORE DUP10 SWAP1 PUSH1 0x1 PUSH1 0x1 PUSH1 0xA0 SHL SUB DUP3 AND SWAP1 PUSH4 0x42842E0E SWAP1 PUSH1 0x64 ADD PUSH1 0x0 PUSH1 0x40 MLOAD DUP1 DUP4 SUB DUP2 PUSH1 0x0 DUP8 DUP1 EXTCODESIZE ISZERO DUP1 ISZERO PUSH3 0x5C0 JUMPI PUSH1 0x0 DUP1 REVERT JUMPDEST POP GAS CALL ISZERO DUP1 ISZERO PUSH3 0x5D5 JUMPI RETURNDATASIZE PUSH1 0x0 DUP1 RETURNDATACOPY RETURNDATASIZE PUSH1 0x0 REVERT JUMPDEST POP POP POP POP DUP7 PUSH1 0x40 MLOAD PUSH3 0x5E9 SWAP2 SWAP1 PUSH3 0x1631 JUMP JUMPDEST PUSH1 0x40 MLOAD SWAP1 DUP2 SWAP1 SUB DUP2 KECCAK256 PUSH1 0x1 PUSH1 0x1 PUSH1 0xA0 SHL SUB DUP6 AND DUP3 MSTORE SWAP1 DUP4 SWAP1 CALLER SWAP1 PUSH32 0xE2C8AEFC9D0A52C93C762509EEEAC2A518C41C52F791B6888C0673D07312C605 SWAP1 PUSH1 0x20 ADD PUSH1 0x40 MLOAD DUP1 SWAP2 SUB SWAP1 LOG4 POP SWAP9 SWAP8 POP POP POP POP POP POP POP POP JUMP JUMPDEST PUSH1 0x0 DUP2 DUP2 MSTORE PUSH1 0x1 PUSH1 0x20 MSTORE PUSH1 0x40 SWAP1 KECCAK256 PUSH1 0x7 ADD SLOAD CALLVALUE LT ISZERO PUSH3 0x6CA JUMPI PUSH1 0x40 MLOAD PUSH3 0x461BCD PUSH1 0xE5 SHL DUP2 MSTORE PUSH1 0x20 PUSH1 0x4 DUP3 ADD MSTORE PUSH1 0x27 PUSH1 0x24 DUP3 ADD MSTORE PUSH32 0x53656E6465722073656E74206C657373207468616E20746865206275796F7574 PUSH1 0x44 DUP3 ADD MSTORE PUSH32 0x2070726963652E00000000000000000000000000000000000000000000000000 PUSH1 0x64 DUP3 ADD MSTORE PUSH1 0x84 ADD JUMPDEST PUSH1 0x40 MLOAD DUP1 SWAP2 SUB SWAP1 REVERT JUMPDEST PUSH1 0x0 DUP2 DUP2 MSTORE PUSH1 0x1 PUSH1 0x20 DUP2 SWAP1 MSTORE PUSH1 0x40 SWAP2 DUP3 SWAP1 KECCAK256 PUSH1 0x8 DUP2 ADD DUP1 SLOAD PUSH1 0xFF NOT AND PUSH1 0x2 SWAP1 DUP2 OR SWAP1 SWAP2 SSTORE DUP2 ADD SLOAD SWAP2 ADD SLOAD SWAP2 MLOAD PUSH4 0x21421707 PUSH1 0xE1 SHL DUP2 MSTORE ADDRESS PUSH1 0x4 DUP3 ADD MSTORE CALLER PUSH1 0x24 DUP3 ADD MSTORE PUSH1 0x44 DUP2 ADD SWAP3 SWAP1 SWAP3 MSTORE PUSH1 0x1 PUSH1 0x1 PUSH1 0xA0 SHL SUB AND SWAP1 DUP2 SWAP1 PUSH4 0x42842E0E SWAP1 PUSH1 0x64 ADD PUSH1 0x0 PUSH1 0x40 MLOAD DUP1 DUP4 SUB DUP2 PUSH1 0x0 DUP8 DUP1 EXTCODESIZE ISZERO DUP1 ISZERO PUSH3 0x744 JUMPI PUSH1 0x0 DUP1 REVERT JUMPDEST POP GAS CALL ISZERO DUP1 ISZERO PUSH3 0x759 JUMPI RETURNDATASIZE PUSH1 0x0 DUP1 RETURNDATACOPY RETURNDATASIZE PUSH1 0x0 REVERT JUMPDEST POP POP PUSH1 0x40 MLOAD DUP5 SWAP3 POP CALLER SWAP2 POP PUSH32 0xFBBD268BB69CF922E3840DC96A6702DC064BAF4B2D9594B5A66A2FE428F3F2AA SWAP1 PUSH1 0x0 SWAP1 LOG3 POP POP JUMP JUMPDEST PUSH1 0x40 MLOAD PUSH1 0x0 SWAP1 CALLER SWAP1 PUSH32 0xCCE71FC9CFCACC4CE8153BDE254A735AE423CDC2B7852FB754F4DE746AC3018F SWAP1 DUP4 SWAP1 LOG2 POP PUSH32 0x150B7A023D4804D13E8C85FB27262CB750CF6BA9F9DD3BB30D90F482CEEB4B1F SWAP5 SWAP4 POP POP POP POP JUMP JUMPDEST PUSH1 0x2 PUSH1 0x0 DUP3 DUP2 MSTORE PUSH1 0x1 PUSH1 0x20 MSTORE PUSH1 0x40 SWAP1 KECCAK256 PUSH1 0x8 ADD SLOAD PUSH1 0xFF AND PUSH1 0x2 DUP2 GT ISZERO PUSH3 0x810 JUMPI PUSH3 0x810 PUSH3 0x14A2 JUMP JUMPDEST EQ PUSH3 0x885 JUMPI PUSH1 0x40 MLOAD PUSH3 0x461BCD PUSH1 0xE5 SHL DUP2 MSTORE PUSH1 0x20 PUSH1 0x4 DUP3 ADD MSTORE PUSH1 0x2B PUSH1 0x24 DUP3 ADD MSTORE PUSH32 0x4672616374696F6E616C697A6564204E465420686173206E6F74206265656E20 PUSH1 0x44 DUP3 ADD MSTORE PUSH32 0x626F75676874206F75742E000000000000000000000000000000000000000000 PUSH1 0x64 DUP3 ADD MSTORE PUSH1 0x84 ADD PUSH3 0x6C1 JUMP JUMPDEST PUSH1 0x0 DUP2 DUP2 MSTORE PUSH1 0x1 PUSH1 0x20 MSTORE PUSH1 0x40 DUP1 DUP3 KECCAK256 PUSH1 0x3 ADD SLOAD SWAP1 MLOAD PUSH4 0x70A08231 PUSH1 0xE0 SHL DUP2 MSTORE CALLER PUSH1 0x4 DUP3 ADD MSTORE PUSH1 0x1 PUSH1 0x1 PUSH1 0xA0 SHL SUB SWAP1 SWAP2 AND SWAP2 SWAP1 DUP3 SWAP1 PUSH4 0x70A08231 SWAP1 PUSH1 0x24 ADD PUSH1 0x20 PUSH1 0x40 MLOAD DUP1 DUP4 SUB DUP2 DUP7 DUP1 EXTCODESIZE ISZERO DUP1 ISZERO PUSH3 0x8DB JUMPI PUSH1 0x0 DUP1 REVERT JUMPDEST POP GAS STATICCALL ISZERO DUP1 ISZERO PUSH3 0x8F0 JUMPI RETURNDATASIZE PUSH1 0x0 DUP1 RETURNDATACOPY RETURNDATASIZE PUSH1 0x0 REVERT JUMPDEST POP POP POP POP PUSH1 0x40 MLOAD RETURNDATASIZE PUSH1 0x1F NOT PUSH1 0x1F DUP3 ADD AND DUP3 ADD DUP1 PUSH1 0x40 MSTORE POP DUP2 ADD SWAP1 PUSH3 0x916 SWAP2 SWAP1 PUSH3 0x164F JUMP JUMPDEST SWAP1 POP PUSH1 0x0 DUP2 GT PUSH3 0x990 JUMPI PUSH1 0x40 MLOAD PUSH3 0x461BCD PUSH1 0xE5 SHL DUP2 MSTORE PUSH1 0x20 PUSH1 0x4 DUP3 ADD MSTORE PUSH1 0x21 PUSH1 0x24 DUP3 ADD MSTORE PUSH32 0x436C61696D657220646F6573206E6F7420686F6C6420616E7920746F6B656E73 PUSH1 0x44 DUP3 ADD MSTORE PUSH32 0x2E00000000000000000000000000000000000000000000000000000000000000 PUSH1 0x64 DUP3 ADD MSTORE PUSH1 0x84 ADD PUSH3 0x6C1 JUMP JUMPDEST PUSH1 0x40 MLOAD PUSH4 0x23B872DD PUSH1 0xE0 SHL DUP2 MSTORE CALLER PUSH1 0x4 DUP3 ADD MSTORE ADDRESS PUSH1 0x24 DUP3 ADD MSTORE PUSH1 0x44 DUP2 ADD DUP3 SWAP1 MSTORE PUSH1 0x1 PUSH1 0x1 PUSH1 0xA0 SHL SUB DUP4 AND SWAP1 PUSH4 0x23B872DD SWAP1 PUSH1 0x64 ADD PUSH1 0x20 PUSH1 0x40 MLOAD DUP1 DUP4 SUB DUP2 PUSH1 0x0 DUP8 DUP1 EXTCODESIZE ISZERO DUP1 ISZERO PUSH3 0x9DF JUMPI PUSH1 0x0 DUP1 REVERT JUMPDEST POP GAS CALL ISZERO DUP1 ISZERO PUSH3 0x9F4 JUMPI RETURNDATASIZE PUSH1 0x0 DUP1 RETURNDATACOPY RETURNDATASIZE PUSH1 0x0 REVERT JUMPDEST POP POP POP POP PUSH1 0x40 MLOAD RETURNDATASIZE PUSH1 0x1F NOT PUSH1 0x1F DUP3 ADD AND DUP3 ADD DUP1 PUSH1 0x40 MSTORE POP DUP2 ADD SWAP1 PUSH3 0xA1A SWAP2 SWAP1 PUSH3 0x1669 JUMP JUMPDEST POP PUSH1 0x0 DUP3 PUSH1 0x1 PUSH1 0x1 PUSH1 0xA0 SHL SUB AND PUSH4 0x18160DDD PUSH1 0x40 MLOAD DUP2 PUSH4 0xFFFFFFFF AND PUSH1 0xE0 SHL DUP2 MSTORE PUSH1 0x4 ADD PUSH1 0x20 PUSH1 0x40 MLOAD DUP1 DUP4 SUB DUP2 DUP7 DUP1 EXTCODESIZE ISZERO DUP1 ISZERO PUSH3 0xA57 JUMPI PUSH1 0x0 DUP1 REVERT JUMPDEST POP GAS STATICCALL ISZERO DUP1 ISZERO PUSH3 0xA6C JUMPI RETURNDATASIZE PUSH1 0x0 DUP1 RETURNDATACOPY RETURNDATASIZE PUSH1 0x0 REVERT JUMPDEST POP POP POP POP PUSH1 0x40 MLOAD RETURNDATASIZE PUSH1 0x1F NOT PUSH1 0x1F DUP3 ADD AND DUP3 ADD DUP1 PUSH1 0x40 MSTORE POP DUP2 ADD SWAP1 PUSH3 0xA92 SWAP2 SWAP1 PUSH3 0x164F JUMP JUMPDEST PUSH1 0x0 DUP6 DUP2 MSTORE PUSH1 0x1 PUSH1 0x20 MSTORE PUSH1 0x40 DUP2 KECCAK256 PUSH1 0x7 ADD SLOAD SWAP2 SWAP3 POP SWAP1 DUP3 SWAP1 PUSH3 0xAB7 SWAP1 DUP6 SWAP1 PUSH3 0x168D JUMP JUMPDEST PUSH3 0xAC3 SWAP2 SWAP1 PUSH3 0x16BB JUMP JUMPDEST PUSH1 0x40 MLOAD SWAP1 SWAP2 POP CALLER SWAP1 DUP3 ISZERO PUSH2 0x8FC MUL SWAP1 DUP4 SWAP1 PUSH1 0x0 DUP2 DUP2 DUP2 DUP6 DUP9 DUP9 CALL SWAP4 POP POP POP POP ISZERO DUP1 ISZERO PUSH3 0xAF4 JUMPI RETURNDATASIZE PUSH1 0x0 DUP1 RETURNDATACOPY RETURNDATASIZE PUSH1 0x0 REVERT JUMPDEST POP PUSH1 0x40 MLOAD DUP6 SWAP1 CALLER SWAP1 PUSH32 0xD8138F8A3F377C5259CA548E70E4C2DE94F129F5A11036A15B69513CBA2B426A SWAP1 PUSH1 0x0 SWAP1 LOG3 POP POP POP POP POP JUMP JUMPDEST PUSH1 0x0 DUP2 PUSH3 0xB36 PUSH1 0x0 SLOAD SWAP1 JUMP JUMPDEST DUP2 LT PUSH3 0xB94 JUMPI PUSH1 0x40 MLOAD PUSH3 0x461BCD PUSH1 0xE5 SHL DUP2 MSTORE PUSH1 0x20 PUSH1 0x4 DUP3 ADD MSTORE PUSH1 0x25 PUSH1 0x24 DUP3 ADD MSTORE PUSH32 0x667261634E4654496420646F6573206E6F7420657869737420696E2066726163 PUSH1 0x44 DUP3 ADD MSTORE PUSH5 0x27232A3997 PUSH1 0xD9 SHL PUSH1 0x64 DUP3 ADD MSTORE PUSH1 0x84 ADD PUSH3 0x6C1 JUMP JUMPDEST PUSH1 0x0 DUP4 DUP2 MSTORE PUSH1 0x1 PUSH1 0x20 MSTORE PUSH1 0x40 SWAP1 KECCAK256 PUSH1 0x8 ADD SLOAD PUSH1 0xFF AND SWAP2 POP JUMPDEST POP SWAP2 SWAP1 POP JUMP JUMPDEST PUSH1 0x2 DUP2 DUP2 SLOAD DUP2 LT PUSH3 0xBC3 JUMPI PUSH1 0x0 DUP1 REVERT JUMPDEST PUSH1 0x0 SWAP2 DUP3 MSTORE PUSH1 0x20 SWAP1 SWAP2 KECCAK256 ADD SLOAD SWAP1 POP DUP2 JUMP JUMPDEST PUSH1 0x60 DUP2 PUSH3 0xBE1 PUSH1 0x0 SLOAD SWAP1 JUMP JUMPDEST DUP2 LT PUSH3 0xC3F JUMPI PUSH1 0x40 MLOAD PUSH3 0x461BCD PUSH1 0xE5 SHL DUP2 MSTORE PUSH1 0x20 PUSH1 0x4 DUP3 ADD MSTORE PUSH1 0x25 PUSH1 0x24 DUP3 ADD MSTORE PUSH32 0x667261634E4654496420646F6573206E6F7420657869737420696E2066726163 PUSH1 0x44 DUP3 ADD MSTORE PUSH5 0x27232A3997 PUSH1 0xD9 SHL PUSH1 0x64 DUP3 ADD MSTORE PUSH1 0x84 ADD PUSH3 0x6C1 JUMP JUMPDEST PUSH1 0x0 DUP4 DUP2 MSTORE PUSH1 0x1 PUSH1 0x20 MSTORE PUSH1 0x40 SWAP1 KECCAK256 PUSH1 0x4 ADD DUP1 SLOAD PUSH3 0xC5D SWAP1 PUSH3 0x16DE JUMP JUMPDEST DUP1 PUSH1 0x1F ADD PUSH1 0x20 DUP1 SWAP2 DIV MUL PUSH1 0x20 ADD PUSH1 0x40 MLOAD SWAP1 DUP2 ADD PUSH1 0x40 MSTORE DUP1 SWAP3 SWAP2 SWAP1 DUP2 DUP2 MSTORE PUSH1 0x20 ADD DUP3 DUP1 SLOAD PUSH3 0xC8B SWAP1 PUSH3 0x16DE JUMP JUMPDEST DUP1 ISZERO PUSH3 0xCDC JUMPI DUP1 PUSH1 0x1F LT PUSH3 0xCB0 JUMPI PUSH2 0x100 DUP1 DUP4 SLOAD DIV MUL DUP4 MSTORE SWAP2 PUSH1 0x20 ADD SWAP2 PUSH3 0xCDC JUMP JUMPDEST DUP3 ADD SWAP2 SWAP1 PUSH1 0x0 MSTORE PUSH1 0x20 PUSH1 0x0 KECCAK256 SWAP1 JUMPDEST DUP2 SLOAD DUP2 MSTORE SWAP1 PUSH1 0x1 ADD SWAP1 PUSH1 0x20 ADD DUP1 DUP4 GT PUSH3 0xCBE JUMPI DUP3 SWAP1 SUB PUSH1 0x1F AND DUP3 ADD SWAP2 JUMPDEST POP POP POP POP POP SWAP2 POP POP SWAP2 SWAP1 POP JUMP JUMPDEST PUSH1 0x1 PUSH1 0x20 DUP2 SWAP1 MSTORE PUSH1 0x0 SWAP2 DUP3 MSTORE PUSH1 0x40 SWAP1 SWAP2 KECCAK256 DUP1 SLOAD SWAP2 DUP2 ADD SLOAD PUSH1 0x2 DUP3 ADD SLOAD PUSH1 0x3 DUP4 ADD SLOAD PUSH1 0x4 DUP5 ADD DUP1 SLOAD SWAP4 SWAP5 PUSH1 0x1 PUSH1 0x1 PUSH1 0xA0 SHL SUB SWAP4 DUP5 AND SWAP5 SWAP4 SWAP1 SWAP3 AND SWAP3 PUSH3 0xD2E SWAP1 PUSH3 0x16DE JUMP JUMPDEST DUP1 PUSH1 0x1F ADD PUSH1 0x20 DUP1 SWAP2 DIV MUL PUSH1 0x20 ADD PUSH1 0x40 MLOAD SWAP1 DUP2 ADD PUSH1 0x40 MSTORE DUP1 SWAP3 SWAP2 SWAP1 DUP2 DUP2 MSTORE PUSH1 0x20 ADD DUP3 DUP1 SLOAD PUSH3 0xD5C SWAP1 PUSH3 0x16DE JUMP JUMPDEST DUP1 ISZERO PUSH3 0xDAD JUMPI DUP1 PUSH1 0x1F LT PUSH3 0xD81 JUMPI PUSH2 0x100 DUP1 DUP4 SLOAD DIV MUL DUP4 MSTORE SWAP2 PUSH1 0x20 ADD SWAP2 PUSH3 0xDAD JUMP JUMPDEST DUP3 ADD SWAP2 SWAP1 PUSH1 0x0 MSTORE PUSH1 0x20 PUSH1 0x0 KECCAK256 SWAP1 JUMPDEST DUP2 SLOAD DUP2 MSTORE SWAP1 PUSH1 0x1 ADD SWAP1 PUSH1 0x20 ADD DUP1 DUP4 GT PUSH3 0xD8F JUMPI DUP3 SWAP1 SUB PUSH1 0x1F AND DUP3 ADD SWAP2 JUMPDEST POP POP POP POP POP SWAP1 DUP1 PUSH1 0x5 ADD DUP1 SLOAD PUSH3 0xDC4 SWAP1 PUSH3 0x16DE JUMP JUMPDEST DUP1 PUSH1 0x1F ADD PUSH1 0x20 DUP1 SWAP2 DIV MUL PUSH1 0x20 ADD PUSH1 0x40 MLOAD SWAP1 DUP2 ADD PUSH1 0x40 MSTORE DUP1 SWAP3 SWAP2 SWAP1 DUP2 DUP2 MSTORE PUSH1 0x20 ADD DUP3 DUP1 SLOAD PUSH3 0xDF2 SWAP1 PUSH3 0x16DE JUMP JUMPDEST DUP1 ISZERO PUSH3 0xE43 JUMPI DUP1 PUSH1 0x1F LT PUSH3 0xE17 JUMPI PUSH2 0x100 DUP1 DUP4 SLOAD DIV MUL DUP4 MSTORE SWAP2 PUSH1 0x20 ADD SWAP2 PUSH3 0xE43 JUMP JUMPDEST DUP3 ADD SWAP2 SWAP1 PUSH1 0x0 MSTORE PUSH1 0x20 PUSH1 0x0 KECCAK256 SWAP1 JUMPDEST DUP2 SLOAD DUP2 MSTORE SWAP1 PUSH1 0x1 ADD SWAP1 PUSH1 0x20 ADD DUP1 DUP4 GT PUSH3 0xE25 JUMPI DUP3 SWAP1 SUB PUSH1 0x1F AND DUP3 ADD SWAP2 JUMPDEST POP POP POP POP PUSH1 0x6 DUP4 ADD SLOAD PUSH1 0x7 DUP5 ADD SLOAD PUSH1 0x8 SWAP1 SWAP5 ADD SLOAD SWAP3 SWAP4 PUSH1 0x1 PUSH1 0x1 PUSH1 0xA0 SHL SUB SWAP1 SWAP2 AND SWAP3 SWAP1 SWAP2 POP PUSH1 0xFF AND DUP10 JUMP JUMPDEST PUSH1 0x0 DUP2 PUSH3 0xE7B PUSH1 0x0 SLOAD SWAP1 JUMP JUMPDEST DUP2 LT PUSH3 0xED9 JUMPI PUSH1 0x40 MLOAD PUSH3 0x461BCD PUSH1 0xE5 SHL DUP2 MSTORE PUSH1 0x20 PUSH1 0x4 DUP3 ADD MSTORE PUSH1 0x25 PUSH1 0x24 DUP3 ADD MSTORE PUSH32 0x667261634E4654496420646F6573206E6F7420657869737420696E2066726163 PUSH1 0x44 DUP3 ADD MSTORE PUSH5 0x27232A3997 PUSH1 0xD9 SHL PUSH1 0x64 DUP3 ADD MSTORE PUSH1 0x84 ADD PUSH3 0x6C1 JUMP JUMPDEST POP POP PUSH1 0x0 SWAP1 DUP2 MSTORE PUSH1 0x1 PUSH1 0x20 MSTORE PUSH1 0x40 SWAP1 KECCAK256 PUSH1 0x3 ADD SLOAD PUSH1 0x1 PUSH1 0x1 PUSH1 0xA0 SHL SUB AND SWAP1 JUMP JUMPDEST PUSH1 0x0 DUP2 DUP2 MSTORE PUSH1 0x1 PUSH1 0x20 MSTORE PUSH1 0x40 DUP1 DUP3 KECCAK256 PUSH1 0x3 ADD SLOAD SWAP1 MLOAD PUSH4 0x70A08231 PUSH1 0xE0 SHL DUP2 MSTORE CALLER PUSH1 0x4 DUP3 ADD MSTORE PUSH1 0x1 PUSH1 0x1 PUSH1 0xA0 SHL SUB SWAP1 SWAP2 AND SWAP2 SWAP1 DUP3 SWAP1 PUSH4 0x70A08231 SWAP1 PUSH1 0x24 ADD PUSH1 0x20 PUSH1 0x40 MLOAD DUP1 DUP4 SUB DUP2 DUP7 DUP1 EXTCODESIZE ISZERO DUP1 ISZERO PUSH3 0xF4F JUMPI PUSH1 0x0 DUP1 REVERT JUMPDEST POP GAS STATICCALL ISZERO DUP1 ISZERO PUSH3 0xF64 JUMPI RETURNDATASIZE PUSH1 0x0 DUP1 RETURNDATACOPY RETURNDATASIZE PUSH1 0x0 REVERT JUMPDEST POP POP POP POP PUSH1 0x40 MLOAD RETURNDATASIZE PUSH1 0x1F NOT PUSH1 0x1F DUP3 ADD AND DUP3 ADD DUP1 PUSH1 0x40 MSTORE POP DUP2 ADD SWAP1 PUSH3 0xF8A SWAP2 SWAP1 PUSH3 0x164F JUMP JUMPDEST SWAP1 POP PUSH1 0x0 DUP3 PUSH1 0x1 PUSH1 0x1 PUSH1 0xA0 SHL SUB AND PUSH4 0x18160DDD PUSH1 0x40 MLOAD DUP2 PUSH4 0xFFFFFFFF AND PUSH1 0xE0 SHL DUP2 MSTORE PUSH1 0x4 ADD PUSH1 0x20 PUSH1 0x40 MLOAD DUP1 DUP4 SUB DUP2 DUP7 DUP1 EXTCODESIZE ISZERO DUP1 ISZERO PUSH3 0xFC8 JUMPI PUSH1 0x0 DUP1 REVERT JUMPDEST POP GAS STATICCALL ISZERO DUP1 ISZERO PUSH3 0xFDD JUMPI RETURNDATASIZE PUSH1 0x0 DUP1 RETURNDATACOPY RETURNDATASIZE PUSH1 0x0 REVERT JUMPDEST POP POP POP POP PUSH1 0x40 MLOAD RETURNDATASIZE PUSH1 0x1F NOT PUSH1 0x1F DUP3 ADD AND DUP3 ADD DUP1 PUSH1 0x40 MSTORE POP DUP2 ADD SWAP1 PUSH3 0x1003 SWAP2 SWAP1 PUSH3 0x164F JUMP JUMPDEST SWAP1 POP DUP1 DUP3 EQ PUSH3 0x107C JUMPI PUSH1 0x40 MLOAD PUSH3 0x461BCD PUSH1 0xE5 SHL DUP2 MSTORE PUSH1 0x20 PUSH1 0x4 DUP3 ADD MSTORE PUSH1 0x2A PUSH1 0x24 DUP3 ADD MSTORE PUSH32 0x52656465656D65657220646F6573206E6F7420686F6C642074686520656E7469 PUSH1 0x44 DUP3 ADD MSTORE PUSH32 0x726520737570706C792E00000000000000000000000000000000000000000000 PUSH1 0x64 DUP3 ADD MSTORE PUSH1 0x84 ADD PUSH3 0x6C1 JUMP JUMPDEST PUSH1 0x0 DUP5 DUP2 MSTORE PUSH1 0x1 PUSH1 0x20 DUP2 SWAP1 MSTORE PUSH1 0x40 SWAP2 DUP3 SWAP1 KECCAK256 PUSH1 0x8 ADD DUP1 SLOAD PUSH1 0xFF NOT AND SWAP1 SWAP2 OR SWAP1 SSTORE MLOAD PUSH4 0x23B872DD PUSH1 0xE0 SHL DUP2 MSTORE CALLER PUSH1 0x4 DUP3 ADD MSTORE ADDRESS PUSH1 0x24 DUP3 ADD MSTORE PUSH1 0x44 DUP2 ADD DUP4 SWAP1 MSTORE PUSH1 0x1 PUSH1 0x1 PUSH1 0xA0 SHL SUB DUP5 AND SWAP1 PUSH4 0x23B872DD SWAP1 PUSH1 0x64 ADD PUSH1 0x20 PUSH1 0x40 MLOAD DUP1 DUP4 SUB DUP2 PUSH1 0x0 DUP8 DUP1 EXTCODESIZE ISZERO DUP1 ISZERO PUSH3 0x10E9 JUMPI PUSH1 0x0 DUP1 REVERT JUMPDEST POP GAS CALL ISZERO DUP1 ISZERO PUSH3 0x10FE JUMPI RETURNDATASIZE PUSH1 0x0 DUP1 RETURNDATACOPY RETURNDATASIZE PUSH1 0x0 REVERT JUMPDEST POP POP POP POP PUSH1 0x40 MLOAD RETURNDATASIZE PUSH1 0x1F NOT PUSH1 0x1F DUP3 ADD AND DUP3 ADD DUP1 PUSH1 0x40 MSTORE POP DUP2 ADD SWAP1 PUSH3 0x1124 SWAP2 SWAP1 PUSH3 0x1669 JUMP JUMPDEST POP PUSH1 0x0 DUP5 DUP2 MSTORE PUSH1 0x1 PUSH1 0x20 DUP2 SWAP1 MSTORE PUSH1 0x40 SWAP2 DUP3 SWAP1 KECCAK256 PUSH1 0x2 DUP2 ADD SLOAD SWAP2 ADD SLOAD SWAP2 MLOAD PUSH4 0x21421707 PUSH1 0xE1 SHL DUP2 MSTORE ADDRESS PUSH1 0x4 DUP3 ADD MSTORE CALLER PUSH1 0x24 DUP3 ADD MSTORE PUSH1 0x44 DUP2 ADD SWAP3 SWAP1 SWAP3 MSTORE PUSH1 0x1 PUSH1 0x1 PUSH1 0xA0 SHL SUB AND SWAP1 DUP2 SWAP1 PUSH4 0x42842E0E SWAP1 PUSH1 0x64 ADD PUSH1 0x0 PUSH1 0x40 MLOAD DUP1 DUP4 SUB DUP2 PUSH1 0x0 DUP8 DUP1 EXTCODESIZE ISZERO DUP1 ISZERO PUSH3 0x118F JUMPI PUSH1 0x0 DUP1 REVERT JUMPDEST POP GAS CALL ISZERO DUP1 ISZERO PUSH3 0x11A4 JUMPI RETURNDATASIZE PUSH1 0x0 DUP1 RETURNDATACOPY RETURNDATASIZE PUSH1 0x0 REVERT JUMPDEST POP POP PUSH1 0x40 MLOAD DUP8 SWAP3 POP CALLER SWAP2 POP PUSH32 0x4896181FF8F4543CC00DB9FE9B6FB7E6F032B7EB772C72AB1EC1B4D2E03B9369 SWAP1 PUSH1 0x0 SWAP1 LOG3 POP POP POP POP POP JUMP JUMPDEST PUSH2 0xD74 DUP1 PUSH3 0x1716 DUP4 CODECOPY ADD SWAP1 JUMP JUMPDEST DUP3 DUP1 SLOAD PUSH3 0x11F8 SWAP1 PUSH3 0x16DE JUMP JUMPDEST SWAP1 PUSH1 0x0 MSTORE PUSH1 0x20 PUSH1 0x0 KECCAK256 SWAP1 PUSH1 0x1F ADD PUSH1 0x20 SWAP1 DIV DUP2 ADD SWAP3 DUP3 PUSH3 0x121C JUMPI PUSH1 0x0 DUP6 SSTORE PUSH3 0x1267 JUMP JUMPDEST DUP3 PUSH1 0x1F LT PUSH3 0x1237 JUMPI DUP1 MLOAD PUSH1 0xFF NOT AND DUP4 DUP1 ADD OR DUP6 SSTORE PUSH3 0x1267 JUMP JUMPDEST DUP3 DUP1 ADD PUSH1 0x1 ADD DUP6 SSTORE DUP3 ISZERO PUSH3 0x1267 JUMPI SWAP2 DUP3 ADD JUMPDEST DUP3 DUP2 GT ISZERO PUSH3 0x1267 JUMPI DUP3 MLOAD DUP3 SSTORE SWAP2 PUSH1 0x20 ADD SWAP2 SWAP1 PUSH1 0x1 ADD SWAP1 PUSH3 0x124A JUMP JUMPDEST POP PUSH3 0x1275 SWAP3 SWAP2 POP PUSH3 0x1279 JUMP JUMPDEST POP SWAP1 JUMP JUMPDEST JUMPDEST DUP1 DUP3 GT ISZERO PUSH3 0x1275 JUMPI PUSH1 0x0 DUP2 SSTORE PUSH1 0x1 ADD PUSH3 0x127A JUMP JUMPDEST DUP1 CALLDATALOAD PUSH1 0x1 PUSH1 0x1 PUSH1 0xA0 SHL SUB DUP2 AND DUP2 EQ PUSH3 0x12A8 JUMPI PUSH1 0x0 DUP1 REVERT JUMPDEST SWAP2 SWAP1 POP JUMP JUMPDEST PUSH4 0x4E487B71 PUSH1 0xE0 SHL PUSH1 0x0 MSTORE PUSH1 0x41 PUSH1 0x4 MSTORE PUSH1 0x24 PUSH1 0x0 REVERT JUMPDEST PUSH1 0x0 PUSH8 0xFFFFFFFFFFFFFFFF DUP1 DUP5 GT ISZERO PUSH3 0x12E1 JUMPI PUSH3 0x12E1 PUSH3 0x12AD JUMP JUMPDEST PUSH1 0x40 MLOAD PUSH1 0x1F DUP6 ADD PUSH1 0x1F NOT SWAP1 DUP2 AND PUSH1 0x3F ADD AND DUP2 ADD SWAP1 DUP3 DUP3 GT DUP2 DUP4 LT OR ISZERO PUSH3 0x130C JUMPI PUSH3 0x130C PUSH3 0x12AD JUMP JUMPDEST DUP2 PUSH1 0x40 MSTORE DUP1 SWAP4 POP DUP6 DUP2 MSTORE DUP7 DUP7 DUP7 ADD GT ISZERO PUSH3 0x1326 JUMPI PUSH1 0x0 DUP1 REVERT JUMPDEST DUP6 DUP6 PUSH1 0x20 DUP4 ADD CALLDATACOPY PUSH1 0x0 PUSH1 0x20 DUP8 DUP4 ADD ADD MSTORE POP POP POP SWAP4 SWAP3 POP POP POP JUMP JUMPDEST PUSH1 0x0 DUP3 PUSH1 0x1F DUP4 ADD SLT PUSH3 0x1352 JUMPI PUSH1 0x0 DUP1 REVERT JUMPDEST PUSH3 0x1363 DUP4 DUP4 CALLDATALOAD PUSH1 0x20 DUP6 ADD PUSH3 0x12C3 JUMP JUMPDEST SWAP4 SWAP3 POP POP POP JUMP JUMPDEST PUSH1 0x0 DUP1 PUSH1 0x0 DUP1 PUSH1 0x0 DUP1 PUSH1 0xC0 DUP8 DUP10 SUB SLT ISZERO PUSH3 0x1384 JUMPI PUSH1 0x0 DUP1 REVERT JUMPDEST PUSH3 0x138F DUP8 PUSH3 0x1290 JUMP JUMPDEST SWAP6 POP PUSH1 0x20 DUP8 ADD CALLDATALOAD SWAP5 POP PUSH1 0x40 DUP8 ADD CALLDATALOAD PUSH8 0xFFFFFFFFFFFFFFFF DUP1 DUP3 GT ISZERO PUSH3 0x13B4 JUMPI PUSH1 0x0 DUP1 REVERT JUMPDEST PUSH3 0x13C2 DUP11 DUP4 DUP12 ADD PUSH3 0x1340 JUMP JUMPDEST SWAP6 POP PUSH1 0x60 DUP10 ADD CALLDATALOAD SWAP2 POP DUP1 DUP3 GT ISZERO PUSH3 0x13D9 JUMPI PUSH1 0x0 DUP1 REVERT JUMPDEST POP PUSH3 0x13E8 DUP10 DUP3 DUP11 ADD PUSH3 0x1340 JUMP JUMPDEST SWAP4 POP POP PUSH1 0x80 DUP8 ADD CALLDATALOAD SWAP2 POP PUSH1 0xA0 DUP8 ADD CALLDATALOAD SWAP1 POP SWAP3 SWAP6 POP SWAP3 SWAP6 POP SWAP3 SWAP6 JUMP JUMPDEST PUSH1 0x0 PUSH1 0x20 DUP3 DUP5 SUB SLT ISZERO PUSH3 0x1416 JUMPI PUSH1 0x0 DUP1 REVERT JUMPDEST POP CALLDATALOAD SWAP2 SWAP1 POP JUMP JUMPDEST PUSH1 0x0 DUP1 PUSH1 0x0 DUP1 PUSH1 0x80 DUP6 DUP8 SUB SLT ISZERO PUSH3 0x1434 JUMPI PUSH1 0x0 DUP1 REVERT JUMPDEST PUSH3 0x143F DUP6 PUSH3 0x1290 JUMP JUMPDEST SWAP4 POP PUSH3 0x144F PUSH1 0x20 DUP7 ADD PUSH3 0x1290 JUMP JUMPDEST SWAP3 POP PUSH1 0x40 DUP6 ADD CALLDATALOAD SWAP2 POP PUSH1 0x60 DUP6 ADD CALLDATALOAD PUSH8 0xFFFFFFFFFFFFFFFF DUP2 GT ISZERO PUSH3 0x1473 JUMPI PUSH1 0x0 DUP1 REVERT JUMPDEST DUP6 ADD PUSH1 0x1F DUP2 ADD DUP8 SGT PUSH3 0x1485 JUMPI PUSH1 0x0 DUP1 REVERT JUMPDEST PUSH3 0x1496 DUP8 DUP3 CALLDATALOAD PUSH1 0x20 DUP5 ADD PUSH3 0x12C3 JUMP JUMPDEST SWAP2 POP POP SWAP3 SWAP6 SWAP2 SWAP5 POP SWAP3 POP JUMP JUMPDEST PUSH4 0x4E487B71 PUSH1 0xE0 SHL PUSH1 0x0 MSTORE PUSH1 0x21 PUSH1 0x4 MSTORE PUSH1 0x24 PUSH1 0x0 REVERT JUMPDEST PUSH1 0x3 DUP2 LT PUSH3 0x14D7 JUMPI PUSH4 0x4E487B71 PUSH1 0xE0 SHL PUSH1 0x0 MSTORE PUSH1 0x21 PUSH1 0x4 MSTORE PUSH1 0x24 PUSH1 0x0 REVERT JUMPDEST SWAP1 MSTORE JUMP JUMPDEST PUSH1 0x20 DUP2 ADD PUSH3 0x14EB DUP3 DUP5 PUSH3 0x14B8 JUMP JUMPDEST SWAP3 SWAP2 POP POP JUMP JUMPDEST PUSH1 0x0 JUMPDEST DUP4 DUP2 LT ISZERO PUSH3 0x150E JUMPI DUP2 DUP2 ADD MLOAD DUP4 DUP3 ADD MSTORE PUSH1 0x20 ADD PUSH3 0x14F4 JUMP JUMPDEST DUP4 DUP2 GT ISZERO PUSH3 0x151E JUMPI PUSH1 0x0 DUP5 DUP5 ADD MSTORE JUMPDEST POP POP POP POP JUMP JUMPDEST PUSH1 0x0 DUP2 MLOAD DUP1 DUP5 MSTORE PUSH3 0x153E DUP2 PUSH1 0x20 DUP7 ADD PUSH1 0x20 DUP7 ADD PUSH3 0x14F1 JUMP JUMPDEST PUSH1 0x1F ADD PUSH1 0x1F NOT AND SWAP3 SWAP1 SWAP3 ADD PUSH1 0x20 ADD SWAP3 SWAP2 POP POP JUMP JUMPDEST PUSH1 0x20 DUP2 MSTORE PUSH1 0x0 PUSH3 0x1363 PUSH1 0x20 DUP4 ADD DUP5 PUSH3 0x1524 JUMP JUMPDEST PUSH1 0x0 PUSH2 0x120 DUP12 DUP4 MSTORE DUP11 PUSH1 0x20 DUP5 ADD MSTORE PUSH1 0x1 PUSH1 0x1 PUSH1 0xA0 SHL SUB DUP1 DUP12 AND PUSH1 0x40 DUP6 ADD MSTORE DUP1 DUP11 AND PUSH1 0x60 DUP6 ADD MSTORE DUP2 PUSH1 0x80 DUP6 ADD MSTORE PUSH3 0x15A1 DUP3 DUP6 ADD DUP11 PUSH3 0x1524 JUMP JUMPDEST SWAP2 POP DUP4 DUP3 SUB PUSH1 0xA0 DUP6 ADD MSTORE PUSH3 0x15B7 DUP3 DUP10 PUSH3 0x1524 JUMP JUMPDEST SWAP3 POP DUP1 DUP8 AND PUSH1 0xC0 DUP6 ADD MSTORE POP POP DUP4 PUSH1 0xE0 DUP4 ADD MSTORE PUSH3 0x15D9 PUSH2 0x100 DUP4 ADD DUP5 PUSH3 0x14B8 JUMP JUMPDEST SWAP11 SWAP10 POP POP POP POP POP POP POP POP POP POP JUMP JUMPDEST PUSH1 0x80 DUP2 MSTORE PUSH1 0x0 PUSH3 0x15FC PUSH1 0x80 DUP4 ADD DUP8 PUSH3 0x1524 JUMP JUMPDEST DUP3 DUP2 SUB PUSH1 0x20 DUP5 ADD MSTORE PUSH3 0x1610 DUP2 DUP8 PUSH3 0x1524 JUMP JUMPDEST SWAP2 POP POP DUP4 PUSH1 0x40 DUP4 ADD MSTORE PUSH1 0x1 PUSH1 0x1 PUSH1 0xA0 SHL SUB DUP4 AND PUSH1 0x60 DUP4 ADD MSTORE SWAP6 SWAP5 POP POP POP POP POP JUMP JUMPDEST PUSH1 0x0 DUP3 MLOAD PUSH3 0x1645 DUP2 DUP5 PUSH1 0x20 DUP8 ADD PUSH3 0x14F1 JUMP JUMPDEST SWAP2 SWAP1 SWAP2 ADD SWAP3 SWAP2 POP POP JUMP JUMPDEST PUSH1 0x0 PUSH1 0x20 DUP3 DUP5 SUB SLT ISZERO PUSH3 0x1662 JUMPI PUSH1 0x0 DUP1 REVERT JUMPDEST POP MLOAD SWAP2 SWAP1 POP JUMP JUMPDEST PUSH1 0x0 PUSH1 0x20 DUP3 DUP5 SUB SLT ISZERO PUSH3 0x167C JUMPI PUSH1 0x0 DUP1 REVERT JUMPDEST DUP2 MLOAD DUP1 ISZERO ISZERO DUP2 EQ PUSH3 0x1363 JUMPI PUSH1 0x0 DUP1 REVERT JUMPDEST PUSH1 0x0 DUP2 PUSH1 0x0 NOT DIV DUP4 GT DUP3 ISZERO ISZERO AND ISZERO PUSH3 0x16B6 JUMPI PUSH4 0x4E487B71 PUSH1 0xE0 SHL PUSH1 0x0 MSTORE PUSH1 0x11 PUSH1 0x4 MSTORE PUSH1 0x24 PUSH1 0x0 REVERT JUMPDEST POP MUL SWAP1 JUMP JUMPDEST PUSH1 0x0 DUP3 PUSH3 0x16D9 JUMPI PUSH4 0x4E487B71 PUSH1 0xE0 SHL PUSH1 0x0 MSTORE PUSH1 0x12 PUSH1 0x4 MSTORE PUSH1 0x24 PUSH1 0x0 REVERT JUMPDEST POP DIV SWAP1 JUMP JUMPDEST PUSH1 0x1 DUP2 DUP2 SHR SWAP1 DUP3 AND DUP1 PUSH3 0x16F3 JUMPI PUSH1 0x7F DUP3 AND SWAP2 POP JUMPDEST PUSH1 0x20 DUP3 LT DUP2 EQ ISZERO PUSH3 0xBAC JUMPI PUSH4 0x4E487B71 PUSH1 0xE0 SHL PUSH1 0x0 MSTORE PUSH1 0x22 PUSH1 0x4 MSTORE PUSH1 0x24 PUSH1 0x0 REVERT INVALID PUSH1 0x80 PUSH1 0x40 MSTORE CALLVALUE DUP1 ISZERO PUSH3 0x11 JUMPI PUSH1 0x0 DUP1 REVERT JUMPDEST POP PUSH1 0x40 MLOAD PUSH3 0xD74 CODESIZE SUB DUP1 PUSH3 0xD74 DUP4 CODECOPY DUP2 ADD PUSH1 0x40 DUP2 SWAP1 MSTORE PUSH3 0x34 SWAP2 PUSH3 0x2DD JUMP JUMPDEST DUP4 MLOAD DUP5 SWAP1 DUP5 SWAP1 PUSH3 0x4D SWAP1 PUSH1 0x3 SWAP1 PUSH1 0x20 DUP6 ADD SWAP1 PUSH3 0x16A JUMP JUMPDEST POP DUP1 MLOAD PUSH3 0x63 SWAP1 PUSH1 0x4 SWAP1 PUSH1 0x20 DUP5 ADD SWAP1 PUSH3 0x16A JUMP JUMPDEST POP POP POP PUSH3 0x78 DUP2 DUP4 PUSH3 0x82 PUSH1 0x20 SHL PUSH1 0x20 SHR JUMP JUMPDEST POP POP POP POP PUSH3 0x3D6 JUMP JUMPDEST PUSH1 0x1 PUSH1 0x1 PUSH1 0xA0 SHL SUB DUP3 AND PUSH3 0xDD JUMPI PUSH1 0x40 MLOAD PUSH3 0x461BCD PUSH1 0xE5 SHL DUP2 MSTORE PUSH1 0x20 PUSH1 0x4 DUP3 ADD MSTORE PUSH1 0x1F PUSH1 0x24 DUP3 ADD MSTORE PUSH32 0x45524332303A206D696E7420746F20746865207A65726F206164647265737300 PUSH1 0x44 DUP3 ADD MSTORE PUSH1 0x64 ADD PUSH1 0x40 MLOAD DUP1 SWAP2 SUB SWAP1 REVERT JUMPDEST DUP1 PUSH1 0x2 PUSH1 0x0 DUP3 DUP3 SLOAD PUSH3 0xF1 SWAP2 SWAP1 PUSH3 0x372 JUMP JUMPDEST SWAP1 SWAP2 SSTORE POP POP PUSH1 0x1 PUSH1 0x1 PUSH1 0xA0 SHL SUB DUP3 AND PUSH1 0x0 SWAP1 DUP2 MSTORE PUSH1 0x20 DUP2 SWAP1 MSTORE PUSH1 0x40 DUP2 KECCAK256 DUP1 SLOAD DUP4 SWAP3 SWAP1 PUSH3 0x120 SWAP1 DUP5 SWAP1 PUSH3 0x372 JUMP JUMPDEST SWAP1 SWAP2 SSTORE POP POP PUSH1 0x40 MLOAD DUP2 DUP2 MSTORE PUSH1 0x1 PUSH1 0x1 PUSH1 0xA0 SHL SUB DUP4 AND SWAP1 PUSH1 0x0 SWAP1 PUSH32 0xDDF252AD1BE2C89B69C2B068FC378DAA952BA7F163C4A11628F55A4DF523B3EF SWAP1 PUSH1 0x20 ADD PUSH1 0x40 MLOAD DUP1 SWAP2 SUB SWAP1 LOG3 POP POP JUMP JUMPDEST DUP3 DUP1 SLOAD PUSH3 0x178 SWAP1 PUSH3 0x399 JUMP JUMPDEST SWAP1 PUSH1 0x0 MSTORE PUSH1 0x20 PUSH1 0x0 KECCAK256 SWAP1 PUSH1 0x1F ADD PUSH1 0x20 SWAP1 DIV DUP2 ADD SWAP3 DUP3 PUSH3 0x19C JUMPI PUSH1 0x0 DUP6 SSTORE PUSH3 0x1E7 JUMP JUMPDEST DUP3 PUSH1 0x1F LT PUSH3 0x1B7 JUMPI DUP1 MLOAD PUSH1 0xFF NOT AND DUP4 DUP1 ADD OR DUP6 SSTORE PUSH3 0x1E7 JUMP JUMPDEST DUP3 DUP1 ADD PUSH1 0x1 ADD DUP6 SSTORE DUP3 ISZERO PUSH3 0x1E7 JUMPI SWAP2 DUP3 ADD JUMPDEST DUP3 DUP2 GT ISZERO PUSH3 0x1E7 JUMPI DUP3 MLOAD DUP3 SSTORE SWAP2 PUSH1 0x20 ADD SWAP2 SWAP1 PUSH1 0x1 ADD SWAP1 PUSH3 0x1CA JUMP JUMPDEST POP PUSH3 0x1F5 SWAP3 SWAP2 POP PUSH3 0x1F9 JUMP JUMPDEST POP SWAP1 JUMP JUMPDEST JUMPDEST DUP1 DUP3 GT ISZERO PUSH3 0x1F5 JUMPI PUSH1 0x0 DUP2 SSTORE PUSH1 0x1 ADD PUSH3 0x1FA JUMP JUMPDEST PUSH4 0x4E487B71 PUSH1 0xE0 SHL PUSH1 0x0 MSTORE PUSH1 0x41 PUSH1 0x4 MSTORE PUSH1 0x24 PUSH1 0x0 REVERT JUMPDEST PUSH1 0x0 DUP3 PUSH1 0x1F DUP4 ADD SLT PUSH3 0x238 JUMPI PUSH1 0x0 DUP1 REVERT JUMPDEST DUP2 MLOAD PUSH1 0x1 PUSH1 0x1 PUSH1 0x40 SHL SUB DUP1 DUP3 GT ISZERO PUSH3 0x255 JUMPI PUSH3 0x255 PUSH3 0x210 JUMP JUMPDEST PUSH1 0x40 MLOAD PUSH1 0x1F DUP4 ADD PUSH1 0x1F NOT SWAP1 DUP2 AND PUSH1 0x3F ADD AND DUP2 ADD SWAP1 DUP3 DUP3 GT DUP2 DUP4 LT OR ISZERO PUSH3 0x280 JUMPI PUSH3 0x280 PUSH3 0x210 JUMP JUMPDEST DUP2 PUSH1 0x40 MSTORE DUP4 DUP2 MSTORE PUSH1 0x20 SWAP3 POP DUP7 DUP4 DUP6 DUP9 ADD ADD GT ISZERO PUSH3 0x29D JUMPI PUSH1 0x0 DUP1 REVERT JUMPDEST PUSH1 0x0 SWAP2 POP JUMPDEST DUP4 DUP3 LT ISZERO PUSH3 0x2C1 JUMPI DUP6 DUP3 ADD DUP4 ADD MLOAD DUP2 DUP4 ADD DUP5 ADD MSTORE SWAP1 DUP3 ADD SWAP1 PUSH3 0x2A2 JUMP JUMPDEST DUP4 DUP3 GT ISZERO PUSH3 0x2D3 JUMPI PUSH1 0x0 DUP4 DUP6 DUP4 ADD ADD MSTORE JUMPDEST SWAP7 SWAP6 POP POP POP POP POP POP JUMP JUMPDEST PUSH1 0x0 DUP1 PUSH1 0x0 DUP1 PUSH1 0x80 DUP6 DUP8 SUB SLT ISZERO PUSH3 0x2F4 JUMPI PUSH1 0x0 DUP1 REVERT JUMPDEST DUP5 MLOAD PUSH1 0x1 PUSH1 0x1 PUSH1 0x40 SHL SUB DUP1 DUP3 GT ISZERO PUSH3 0x30C JUMPI PUSH1 0x0 DUP1 REVERT JUMPDEST PUSH3 0x31A DUP9 DUP4 DUP10 ADD PUSH3 0x226 JUMP JUMPDEST SWAP6 POP PUSH1 0x20 DUP8 ADD MLOAD SWAP2 POP DUP1 DUP3 GT ISZERO PUSH3 0x331 JUMPI PUSH1 0x0 DUP1 REVERT JUMPDEST POP PUSH3 0x340 DUP8 DUP3 DUP9 ADD PUSH3 0x226 JUMP JUMPDEST PUSH1 0x40 DUP8 ADD MLOAD PUSH1 0x60 DUP9 ADD MLOAD SWAP2 SWAP6 POP SWAP4 POP SWAP1 POP PUSH1 0x1 PUSH1 0x1 PUSH1 0xA0 SHL SUB DUP2 AND DUP2 EQ PUSH3 0x367 JUMPI PUSH1 0x0 DUP1 REVERT JUMPDEST SWAP4 SWAP7 SWAP3 SWAP6 POP SWAP1 SWAP4 POP POP JUMP JUMPDEST PUSH1 0x0 DUP3 NOT DUP3 GT ISZERO PUSH3 0x394 JUMPI PUSH4 0x4E487B71 PUSH1 0xE0 SHL PUSH1 0x0 MSTORE PUSH1 0x11 PUSH1 0x4 MSTORE PUSH1 0x24 PUSH1 0x0 REVERT JUMPDEST POP ADD SWAP1 JUMP JUMPDEST PUSH1 0x1 DUP2 DUP2 SHR SWAP1 DUP3 AND DUP1 PUSH3 0x3AE JUMPI PUSH1 0x7F DUP3 AND SWAP2 POP JUMPDEST PUSH1 0x20 DUP3 LT DUP2 EQ ISZERO PUSH3 0x3D0 JUMPI PUSH4 0x4E487B71 PUSH1 0xE0 SHL PUSH1 0x0 MSTORE PUSH1 0x22 PUSH1 0x4 MSTORE PUSH1 0x24 PUSH1 0x0 REVERT JUMPDEST POP SWAP2 SWAP1 POP JUMP JUMPDEST PUSH2 0x98E DUP1 PUSH3 0x3E6 PUSH1 0x0 CODECOPY PUSH1 0x0 RETURN INVALID PUSH1 0x80 PUSH1 0x40 MSTORE CALLVALUE DUP1 ISZERO PUSH2 0x10 JUMPI PUSH1 0x0 DUP1 REVERT JUMPDEST POP PUSH1 0x4 CALLDATASIZE LT PUSH2 0xC9 JUMPI PUSH1 0x0 CALLDATALOAD PUSH1 0xE0 SHR DUP1 PUSH4 0x39509351 GT PUSH2 0x81 JUMPI DUP1 PUSH4 0xA457C2D7 GT PUSH2 0x5B JUMPI DUP1 PUSH4 0xA457C2D7 EQ PUSH2 0x187 JUMPI DUP1 PUSH4 0xA9059CBB EQ PUSH2 0x19A JUMPI DUP1 PUSH4 0xDD62ED3E EQ PUSH2 0x1AD JUMPI PUSH1 0x0 DUP1 REVERT JUMPDEST DUP1 PUSH4 0x39509351 EQ PUSH2 0x143 JUMPI DUP1 PUSH4 0x70A08231 EQ PUSH2 0x156 JUMPI DUP1 PUSH4 0x95D89B41 EQ PUSH2 0x17F JUMPI PUSH1 0x0 DUP1 REVERT JUMPDEST DUP1 PUSH4 0x18160DDD GT PUSH2 0xB2 JUMPI DUP1 PUSH4 0x18160DDD EQ PUSH2 0x10F JUMPI DUP1 PUSH4 0x23B872DD EQ PUSH2 0x121 JUMPI DUP1 PUSH4 0x313CE567 EQ PUSH2 0x134 JUMPI PUSH1 0x0 DUP1 REVERT JUMPDEST DUP1 PUSH4 0x6FDDE03 EQ PUSH2 0xCE JUMPI DUP1 PUSH4 0x95EA7B3 EQ PUSH2 0xEC JUMPI JUMPDEST PUSH1 0x0 DUP1 REVERT JUMPDEST PUSH2 0xD6 PUSH2 0x1E6 JUMP JUMPDEST PUSH1 0x40 MLOAD PUSH2 0xE3 SWAP2 SWAP1 PUSH2 0x7CB JUMP JUMPDEST PUSH1 0x40 MLOAD DUP1 SWAP2 SUB SWAP1 RETURN JUMPDEST PUSH2 0xFF PUSH2 0xFA CALLDATASIZE PUSH1 0x4 PUSH2 0x83C JUMP JUMPDEST PUSH2 0x278 JUMP JUMPDEST PUSH1 0x40 MLOAD SWAP1 ISZERO ISZERO DUP2 MSTORE PUSH1 0x20 ADD PUSH2 0xE3 JUMP JUMPDEST PUSH1 0x2 SLOAD JUMPDEST PUSH1 0x40 MLOAD SWAP1 DUP2 MSTORE PUSH1 0x20 ADD PUSH2 0xE3 JUMP JUMPDEST PUSH2 0xFF PUSH2 0x12F CALLDATASIZE PUSH1 0x4 PUSH2 0x866 JUMP JUMPDEST PUSH2 0x28E JUMP JUMPDEST PUSH1 0x40 MLOAD PUSH1 0x12 DUP2 MSTORE PUSH1 0x20 ADD PUSH2 0xE3 JUMP JUMPDEST PUSH2 0xFF PUSH2 0x151 CALLDATASIZE PUSH1 0x4 PUSH2 0x83C JUMP JUMPDEST PUSH2 0x352 JUMP JUMPDEST PUSH2 0x113 PUSH2 0x164 CALLDATASIZE PUSH1 0x4 PUSH2 0x8A2 JUMP JUMPDEST PUSH1 0x1 PUSH1 0x1 PUSH1 0xA0 SHL SUB AND PUSH1 0x0 SWAP1 DUP2 MSTORE PUSH1 0x20 DUP2 SWAP1 MSTORE PUSH1 0x40 SWAP1 KECCAK256 SLOAD SWAP1 JUMP JUMPDEST PUSH2 0xD6 PUSH2 0x38E JUMP JUMPDEST PUSH2 0xFF PUSH2 0x195 CALLDATASIZE PUSH1 0x4 PUSH2 0x83C JUMP JUMPDEST PUSH2 0x39D JUMP JUMPDEST PUSH2 0xFF PUSH2 0x1A8 CALLDATASIZE PUSH1 0x4 PUSH2 0x83C JUMP JUMPDEST PUSH2 0x44E JUMP JUMPDEST PUSH2 0x113 PUSH2 0x1BB CALLDATASIZE PUSH1 0x4 PUSH2 0x8C4 JUMP JUMPDEST PUSH1 0x1 PUSH1 0x1 PUSH1 0xA0 SHL SUB SWAP2 DUP3 AND PUSH1 0x0 SWAP1 DUP2 MSTORE PUSH1 0x1 PUSH1 0x20 SWAP1 DUP2 MSTORE PUSH1 0x40 DUP1 DUP4 KECCAK256 SWAP4 SWAP1 SWAP5 AND DUP3 MSTORE SWAP2 SWAP1 SWAP2 MSTORE KECCAK256 SLOAD SWAP1 JUMP JUMPDEST PUSH1 0x60 PUSH1 0x3 DUP1 SLOAD PUSH2 0x1F5 SWAP1 PUSH2 0x8F7 JUMP JUMPDEST DUP1 PUSH1 0x1F ADD PUSH1 0x20 DUP1 SWAP2 DIV MUL PUSH1 0x20 ADD PUSH1 0x40 MLOAD SWAP1 DUP2 ADD PUSH1 0x40 MSTORE DUP1 SWAP3 SWAP2 SWAP1 DUP2 DUP2 MSTORE PUSH1 0x20 ADD DUP3 DUP1 SLOAD PUSH2 0x221 SWAP1 PUSH2 0x8F7 JUMP JUMPDEST DUP1 ISZERO PUSH2 0x26E JUMPI DUP1 PUSH1 0x1F LT PUSH2 0x243 JUMPI PUSH2 0x100 DUP1 DUP4 SLOAD DIV MUL DUP4 MSTORE SWAP2 PUSH1 0x20 ADD SWAP2 PUSH2 0x26E JUMP JUMPDEST DUP3 ADD SWAP2 SWAP1 PUSH1 0x0 MSTORE PUSH1 0x20 PUSH1 0x0 KECCAK256 SWAP1 JUMPDEST DUP2 SLOAD DUP2 MSTORE SWAP1 PUSH1 0x1 ADD SWAP1 PUSH1 0x20 ADD DUP1 DUP4 GT PUSH2 0x251 JUMPI DUP3 SWAP1 SUB PUSH1 0x1F AND DUP3 ADD SWAP2 JUMPDEST POP POP POP POP POP SWAP1 POP SWAP1 JUMP JUMPDEST PUSH1 0x0 PUSH2 0x285 CALLER DUP5 DUP5 PUSH2 0x45B JUMP JUMPDEST POP PUSH1 0x1 SWAP3 SWAP2 POP POP JUMP JUMPDEST PUSH1 0x0 PUSH2 0x29B DUP5 DUP5 DUP5 PUSH2 0x5B3 JUMP JUMPDEST PUSH1 0x1 PUSH1 0x1 PUSH1 0xA0 SHL SUB DUP5 AND PUSH1 0x0 SWAP1 DUP2 MSTORE PUSH1 0x1 PUSH1 0x20 SWAP1 DUP2 MSTORE PUSH1 0x40 DUP1 DUP4 KECCAK256 CALLER DUP5 MSTORE SWAP1 SWAP2 MSTORE SWAP1 KECCAK256 SLOAD DUP3 DUP2 LT ISZERO PUSH2 0x33A JUMPI PUSH1 0x40 MLOAD PUSH3 0x461BCD PUSH1 0xE5 SHL DUP2 MSTORE PUSH1 0x20 PUSH1 0x4 DUP3 ADD MSTORE PUSH1 0x28 PUSH1 0x24 DUP3 ADD MSTORE PUSH32 0x45524332303A207472616E7366657220616D6F756E7420657863656564732061 PUSH1 0x44 DUP3 ADD MSTORE PUSH32 0x6C6C6F77616E6365000000000000000000000000000000000000000000000000 PUSH1 0x64 DUP3 ADD MSTORE PUSH1 0x84 ADD JUMPDEST PUSH1 0x40 MLOAD DUP1 SWAP2 SUB SWAP1 REVERT JUMPDEST PUSH2 0x347 DUP6 CALLER DUP6 DUP5 SUB PUSH2 0x45B JUMP JUMPDEST POP PUSH1 0x1 SWAP5 SWAP4 POP POP POP POP JUMP JUMPDEST CALLER PUSH1 0x0 DUP2 DUP2 MSTORE PUSH1 0x1 PUSH1 0x20 SWAP1 DUP2 MSTORE PUSH1 0x40 DUP1 DUP4 KECCAK256 PUSH1 0x1 PUSH1 0x1 PUSH1 0xA0 SHL SUB DUP8 AND DUP5 MSTORE SWAP1 SWAP2 MSTORE DUP2 KECCAK256 SLOAD SWAP1 SWAP2 PUSH2 0x285 SWAP2 DUP6 SWAP1 PUSH2 0x389 SWAP1 DUP7 SWAP1 PUSH2 0x932 JUMP JUMPDEST PUSH2 0x45B JUMP JUMPDEST PUSH1 0x60 PUSH1 0x4 DUP1 SLOAD PUSH2 0x1F5 SWAP1 PUSH2 0x8F7 JUMP JUMPDEST CALLER PUSH1 0x0 SWAP1 DUP2 MSTORE PUSH1 0x1 PUSH1 0x20 SWAP1 DUP2 MSTORE PUSH1 0x40 DUP1 DUP4 KECCAK256 PUSH1 0x1 PUSH1 0x1 PUSH1 0xA0 SHL SUB DUP7 AND DUP5 MSTORE SWAP1 SWAP2 MSTORE DUP2 KECCAK256 SLOAD DUP3 DUP2 LT ISZERO PUSH2 0x437 JUMPI PUSH1 0x40 MLOAD PUSH3 0x461BCD PUSH1 0xE5 SHL DUP2 MSTORE PUSH1 0x20 PUSH1 0x4 DUP3 ADD MSTORE PUSH1 0x25 PUSH1 0x24 DUP3 ADD MSTORE PUSH32 0x45524332303A2064656372656173656420616C6C6F77616E63652062656C6F77 PUSH1 0x44 DUP3 ADD MSTORE PUSH32 0x207A65726F000000000000000000000000000000000000000000000000000000 PUSH1 0x64 DUP3 ADD MSTORE PUSH1 0x84 ADD PUSH2 0x331 JUMP JUMPDEST PUSH2 0x444 CALLER DUP6 DUP6 DUP5 SUB PUSH2 0x45B JUMP JUMPDEST POP PUSH1 0x1 SWAP4 SWAP3 POP POP POP JUMP JUMPDEST PUSH1 0x0 PUSH2 0x285 CALLER DUP5 DUP5 PUSH2 0x5B3 JUMP JUMPDEST PUSH1 0x1 PUSH1 0x1 PUSH1 0xA0 SHL SUB DUP4 AND PUSH2 0x4D6 JUMPI PUSH1 0x40 MLOAD PUSH3 0x461BCD PUSH1 0xE5 SHL DUP2 MSTORE PUSH1 0x20 PUSH1 0x4 DUP3 ADD MSTORE PUSH1 0x24 DUP1 DUP3 ADD MSTORE PUSH32 0x45524332303A20617070726F76652066726F6D20746865207A65726F20616464 PUSH1 0x44 DUP3 ADD MSTORE PUSH32 0x7265737300000000000000000000000000000000000000000000000000000000 PUSH1 0x64 DUP3 ADD MSTORE PUSH1 0x84 ADD PUSH2 0x331 JUMP JUMPDEST PUSH1 0x1 PUSH1 0x1 PUSH1 0xA0 SHL SUB DUP3 AND PUSH2 0x552 JUMPI PUSH1 0x40 MLOAD PUSH3 0x461BCD PUSH1 0xE5 SHL DUP2 MSTORE PUSH1 0x20 PUSH1 0x4 DUP3 ADD MSTORE PUSH1 0x22 PUSH1 0x24 DUP3 ADD MSTORE PUSH32 0x45524332303A20617070726F766520746F20746865207A65726F206164647265 PUSH1 0x44 DUP3 ADD MSTORE PUSH32 0x7373000000000000000000000000000000000000000000000000000000000000 PUSH1 0x64 DUP3 ADD MSTORE PUSH1 0x84 ADD PUSH2 0x331 JUMP JUMPDEST PUSH1 0x1 PUSH1 0x1 PUSH1 0xA0 SHL SUB DUP4 DUP2 AND PUSH1 0x0 DUP2 DUP2 MSTORE PUSH1 0x1 PUSH1 0x20 SWAP1 DUP2 MSTORE PUSH1 0x40 DUP1 DUP4 KECCAK256 SWAP5 DUP8 AND DUP1 DUP5 MSTORE SWAP5 DUP3 MSTORE SWAP2 DUP3 SWAP1 KECCAK256 DUP6 SWAP1 SSTORE SWAP1 MLOAD DUP5 DUP2 MSTORE PUSH32 0x8C5BE1E5EBEC7D5BD14F71427D1E84F3DD0314C0F7B2291E5B200AC8C7C3B925 SWAP2 ADD PUSH1 0x40 MLOAD DUP1 SWAP2 SUB SWAP1 LOG3 POP POP POP JUMP JUMPDEST PUSH1 0x1 PUSH1 0x1 PUSH1 0xA0 SHL SUB DUP4 AND PUSH2 0x62F JUMPI PUSH1 0x40 MLOAD PUSH3 0x461BCD PUSH1 0xE5 SHL DUP2 MSTORE PUSH1 0x20 PUSH1 0x4 DUP3 ADD MSTORE PUSH1 0x25 PUSH1 0x24 DUP3 ADD MSTORE PUSH32 0x45524332303A207472616E736665722066726F6D20746865207A65726F206164 PUSH1 0x44 DUP3 ADD MSTORE PUSH32 0x6472657373000000000000000000000000000000000000000000000000000000 PUSH1 0x64 DUP3 ADD MSTORE PUSH1 0x84 ADD PUSH2 0x331 JUMP JUMPDEST PUSH1 0x1 PUSH1 0x1 PUSH1 0xA0 SHL SUB DUP3 AND PUSH2 0x6AB JUMPI PUSH1 0x40 MLOAD PUSH3 0x461BCD PUSH1 0xE5 SHL DUP2 MSTORE PUSH1 0x20 PUSH1 0x4 DUP3 ADD MSTORE PUSH1 0x23 PUSH1 0x24 DUP3 ADD MSTORE PUSH32 0x45524332303A207472616E7366657220746F20746865207A65726F2061646472 PUSH1 0x44 DUP3 ADD MSTORE PUSH32 0x6573730000000000000000000000000000000000000000000000000000000000 PUSH1 0x64 DUP3 ADD MSTORE PUSH1 0x84 ADD PUSH2 0x331 JUMP JUMPDEST PUSH1 0x1 PUSH1 0x1 PUSH1 0xA0 SHL SUB DUP4 AND PUSH1 0x0 SWAP1 DUP2 MSTORE PUSH1 0x20 DUP2 SWAP1 MSTORE PUSH1 0x40 SWAP1 KECCAK256 SLOAD DUP2 DUP2 LT ISZERO PUSH2 0x73A JUMPI PUSH1 0x40 MLOAD PUSH3 0x461BCD PUSH1 0xE5 SHL DUP2 MSTORE PUSH1 0x20 PUSH1 0x4 DUP3 ADD MSTORE PUSH1 0x26 PUSH1 0x24 DUP3 ADD MSTORE PUSH32 0x45524332303A207472616E7366657220616D6F756E7420657863656564732062 PUSH1 0x44 DUP3 ADD MSTORE PUSH32 0x616C616E63650000000000000000000000000000000000000000000000000000 PUSH1 0x64 DUP3 ADD MSTORE PUSH1 0x84 ADD PUSH2 0x331 JUMP JUMPDEST PUSH1 0x1 PUSH1 0x1 PUSH1 0xA0 SHL SUB DUP1 DUP6 AND PUSH1 0x0 SWAP1 DUP2 MSTORE PUSH1 0x20 DUP2 SWAP1 MSTORE PUSH1 0x40 DUP1 DUP3 KECCAK256 DUP6 DUP6 SUB SWAP1 SSTORE SWAP2 DUP6 AND DUP2 MSTORE SWAP1 DUP2 KECCAK256 DUP1 SLOAD DUP5 SWAP3 SWAP1 PUSH2 0x771 SWAP1 DUP5 SWAP1 PUSH2 0x932 JUMP JUMPDEST SWAP3 POP POP DUP2 SWAP1 SSTORE POP DUP3 PUSH1 0x1 PUSH1 0x1 PUSH1 0xA0 SHL SUB AND DUP5 PUSH1 0x1 PUSH1 0x1 PUSH1 0xA0 SHL SUB AND PUSH32 0xDDF252AD1BE2C89B69C2B068FC378DAA952BA7F163C4A11628F55A4DF523B3EF DUP5 PUSH1 0x40 MLOAD PUSH2 0x7BD SWAP2 DUP2 MSTORE PUSH1 0x20 ADD SWAP1 JUMP JUMPDEST PUSH1 0x40 MLOAD DUP1 SWAP2 SUB SWAP1 LOG3 POP POP POP POP JUMP JUMPDEST PUSH1 0x0 PUSH1 0x20 DUP1 DUP4 MSTORE DUP4 MLOAD DUP1 DUP3 DUP6 ADD MSTORE PUSH1 0x0 JUMPDEST DUP2 DUP2 LT ISZERO PUSH2 0x7F8 JUMPI DUP6 DUP2 ADD DUP4 ADD MLOAD DUP6 DUP3 ADD PUSH1 0x40 ADD MSTORE DUP3 ADD PUSH2 0x7DC JUMP JUMPDEST DUP2 DUP2 GT ISZERO PUSH2 0x80A JUMPI PUSH1 0x0 PUSH1 0x40 DUP4 DUP8 ADD ADD MSTORE JUMPDEST POP PUSH1 0x1F ADD PUSH1 0x1F NOT AND SWAP3 SWAP1 SWAP3 ADD PUSH1 0x40 ADD SWAP4 SWAP3 POP POP POP JUMP JUMPDEST DUP1 CALLDATALOAD PUSH1 0x1 PUSH1 0x1 PUSH1 0xA0 SHL SUB DUP2 AND DUP2 EQ PUSH2 0x837 JUMPI PUSH1 0x0 DUP1 REVERT JUMPDEST SWAP2 SWAP1 POP JUMP JUMPDEST PUSH1 0x0 DUP1 PUSH1 0x40 DUP4 DUP6 SUB SLT ISZERO PUSH2 0x84F JUMPI PUSH1 0x0 DUP1 REVERT JUMPDEST PUSH2 0x858 DUP4 PUSH2 0x820 JUMP JUMPDEST SWAP5 PUSH1 0x20 SWAP4 SWAP1 SWAP4 ADD CALLDATALOAD SWAP4 POP POP POP JUMP JUMPDEST PUSH1 0x0 DUP1 PUSH1 0x0 PUSH1 0x60 DUP5 DUP7 SUB SLT ISZERO PUSH2 0x87B JUMPI PUSH1 0x0 DUP1 REVERT JUMPDEST PUSH2 0x884 DUP5 PUSH2 0x820 JUMP JUMPDEST SWAP3 POP PUSH2 0x892 PUSH1 0x20 DUP6 ADD PUSH2 0x820 JUMP JUMPDEST SWAP2 POP PUSH1 0x40 DUP5 ADD CALLDATALOAD SWAP1 POP SWAP3 POP SWAP3 POP SWAP3 JUMP JUMPDEST PUSH1 0x0 PUSH1 0x20 DUP3 DUP5 SUB SLT ISZERO PUSH2 0x8B4 JUMPI PUSH1 0x0 DUP1 REVERT JUMPDEST PUSH2 0x8BD DUP3 PUSH2 0x820 JUMP JUMPDEST SWAP4 SWAP3 POP POP POP JUMP JUMPDEST PUSH1 0x0 DUP1 PUSH1 0x40 DUP4 DUP6 SUB SLT ISZERO PUSH2 0x8D7 JUMPI PUSH1 0x0 DUP1 REVERT JUMPDEST PUSH2 0x8E0 DUP4 PUSH2 0x820 JUMP JUMPDEST SWAP2 POP PUSH2 0x8EE PUSH1 0x20 DUP5 ADD PUSH2 0x820 JUMP JUMPDEST SWAP1 POP SWAP3 POP SWAP3 SWAP1 POP JUMP JUMPDEST PUSH1 0x1 DUP2 DUP2 SHR SWAP1 DUP3 AND DUP1 PUSH2 0x90B JUMPI PUSH1 0x7F DUP3 AND SWAP2 POP JUMPDEST PUSH1 0x20 DUP3 LT DUP2 EQ ISZERO PUSH2 0x92C JUMPI PUSH4 0x4E487B71 PUSH1 0xE0 SHL PUSH1 0x0 MSTORE PUSH1 0x22 PUSH1 0x4 MSTORE PUSH1 0x24 PUSH1 0x0 REVERT JUMPDEST POP SWAP2 SWAP1 POP JUMP JUMPDEST PUSH1 0x0 DUP3 NOT DUP3 GT ISZERO PUSH2 0x953 JUMPI PUSH4 0x4E487B71 PUSH1 0xE0 SHL PUSH1 0x0 MSTORE PUSH1 0x11 PUSH1 0x4 MSTORE PUSH1 0x24 PUSH1 0x0 REVERT JUMPDEST POP ADD SWAP1 JUMP INVALID LOG2 PUSH5 0x6970667358 0x22 SLT KECCAK256 0xC3 RETURNDATACOPY XOR 0xC3 SWAP7 PUSH25 0xA5BAA01084CB37942D7727F5FCF4FACFF9B937C4FE17977492 0xA5 PUSH5 0x736F6C6343 STOP ADDMOD MULMOD STOP CALLER LOG2 PUSH5 0x6970667358 0x22 SLT KECCAK256 SMOD LT RETURN BALANCE SWAP11 LOG1 0xD8 LOG3 SWAP11 0x4B 0xAB 0xA6 PUSH14 0xCAB4A0F25F309AA78AA9D1DB39D4 0xC7 0xA8 0xAE 0xF8 CALLDATACOPY PUSH5 0x736F6C6343 STOP ADDMOD MULMOD STOP CALLER ",
  "sha1": "2844b9e6693e7987f9ef2bb3e94874cbc989bed2",
  "source": "// SPDX-License-Identifier: MIT\npragma solidity 0.8.9;\n\nimport \"@openzeppelin/contracts/utils/Counters.sol\";\nimport \"@openzeppelin/contracts/token/ERC20/ERC20.sol\";\nimport \"@openzeppelin/contracts/token/ERC721/ERC721.sol\";\n\nimport \"./ERC20Factory.sol\";\n\n/// @title NFT Fractionalizer with Buyout Functionality\n/// @author Web3Wannabe\n/// @notice NFTs can be sent to the contract with a specified buyout price. The sender receives the total supply of a newly created ERC20 token.\ncontract FractionalizeNFT is IERC721Receiver {\n    using Counters for Counters.Counter;\n    Counters.Counter private _fracNFTCount;\n\n    mapping(uint256 => FractionalizedNFT) public fracNFTs; // A mapping of all fractionalized NFTs.\n\n    struct FractionalizedNFT {\n        uint256 fracNFTId;\n        uint256 nftTokenId;\n        address erc721Address;\n        address erc20Address;\n        string erc20Symbol;\n        string erc20Name;\n        address payable originalOwner;\n        uint256 buyoutPrice;\n        State state;\n    }\n\n    enum State {\n        Fractionalized,\n        Redeemed,\n        BoughtOut\n    }\n\n    constructor() {}\n\n    /// @notice Emitted when ether is sent to the contract.\n    /// @param sender The sender of the transaction/ether.\n    /// @param value The amount of ether sent.\n    event Received(address indexed sender, uint256 indexed value);\n\n    /// @notice Emitted when an NFT is transferred to the FractionalizeNFT contract.\n    /// @param sender The address that sent the NFT.\n    event NftReceived(address indexed sender);\n\n    /// @notice Emitted when a user successfully fractionalizes an NFT and receives the total supply of the newly created ERC20 token.\n    /// @param sender The address that sent/fractionalized the NFT (i.e., the address that called fractionalize()).\n    /// @param fracNFTId The ID of the newly fractionalized NFT.\n    /// @param erc20Name The name of the newly created ERC20 token.\n    /// @param erc20Address The contract address of the newly created ERC20 token.\n    event Fractionalized(\n        address indexed sender,\n        uint256 indexed fracNFTId,\n        string indexed erc20Name,\n        address erc20Address\n    );\n\n    /// @notice List of all fractionalized NFT ids.\n    /// @dev Used as a helper when iterating over fractionalized NFTs in frontend clients.\n    uint256[] public idList;\n\n    /// @notice idList length.\n    /// @dev Used as a helper when iterating over fractionalized NFTs in frontend clients.\n    uint256 public idListLength;\n\n    /// @notice Emitted when a user successfully redeems an NFT in exchange for the total ERC20 supply.\n    /// @param sender The address that redeemed the NFT (i.e., the address that called redeem()).\n    /// @param fracNFTId The index of the fractionalized NFT that was redeemed.\n    event Redeemed(address indexed sender, uint256 indexed fracNFTId);\n\n    /// @notice Emitted when a user successfully claims a payout following the buyout of an NFT from the FractionalizeNFT contract.\n    /// @param sender The address that the user held ERC20 tokens for (i.e., the address that called claim()).\n    /// @param fracNFTId The index of the fractionalized NFT that was bought.\n    event Claimed(address indexed sender, uint256 indexed fracNFTId);\n\n    /// @notice Emitted when a user successfully buys an NFT from the FractionalizeNFT contract.\n    /// @param sender The address that bought the NFT (i.e., the address that called buyout()).\n    /// @param fracNFTId The index of the fractionalized NFT that was bought.\n    event BoughtOut(address indexed sender, uint256 indexed fracNFTId);\n\n    modifier isLegalFracNftId(uint256 fracNFTId) {\n        require(\n            fracNFTId < _fracNFTCount.current(),\n            \"fracNFTId does not exist in fracNFTs.\"\n        );\n        _;\n    }\n\n    receive() external payable {\n        emit Received(msg.sender, msg.value);\n    }\n\n    fallback() external payable {\n        revert();\n    }\n\n    /// @notice A getter function to get the current number of fractionalized NFT entries in the contract.\n    /// @return The number of fractionalized NFT entries.\n    function getFracNftCount() public view returns (uint256) {\n        return _fracNFTCount.current();\n    }\n\n    /// @notice A getter function for the contract address of a fractionalized NFT's ERC20 token.\n    /// @param fracNFTId The ID of the fractionalized NFT.\n    /// @return The ERC20 contract address.\n    function getERC20Address(uint256 fracNFTId)\n        public\n        view\n        isLegalFracNftId(fracNFTId)\n        returns (address)\n    {\n        return fracNFTs[fracNFTId].erc20Address;\n    }\n\n    /// @notice A getter function for the symbol of a fractionalized NFT's ERC20 token.\n    /// @param fracNFTId The ID of the fractionalized NFT.\n    /// @return The ERC20's symobl.\n    function getERC20Symbol(uint256 fracNFTId)\n        public\n        view\n        isLegalFracNftId(fracNFTId)\n        returns (string memory)\n    {\n        return fracNFTs[fracNFTId].erc20Symbol;\n    }\n\n    /// @notice A getter function for the state of a fractionalized NFT.\n    /// @param fracNFTId The ID of the fractionalized NFT.\n    /// @return The fractionalized NFT's state (Fractionalized, Redeemed or BoughtOut).\n    function getState(uint256 fracNFTId)\n        public\n        view\n        isLegalFracNftId(fracNFTId)\n        returns (State)\n    {\n        return fracNFTs[fracNFTId].state;\n    }\n\n    /// @notice Create a fractionalized NFT: Lock the NFT in the contract; create a new ERC20 token, as specified; and transfer the total supply of the token to the sender.\n    /// @param nftContractAddress The address of the NFT that is to be fractionalized.\n    /// @param nftTokenId The token ID of the NFT that is to be fractionalized.\n    /// @param erc20Name The name of the newly created ERC20 token.\n    /// @param erc20Symbol The symbol of the newly created ERC20 token.\n    /// @param erc20Supply The total supply of the newly created ERC20 token.\n    /// @param buyoutPrice The price (in Wei) for which the fractionalized NFT can be be bought for from the contract.\n    /// @dev Note, the NFT must be approved for transfer by the FractionalizeNFT contract.\n    /// @return The ID of the newly created fractionalized NFT.\n    function fractionalizeNft(\n        address nftContractAddress,\n        uint256 nftTokenId,\n        string memory erc20Name,\n        string memory erc20Symbol,\n        uint256 erc20Supply,\n        uint256 buyoutPrice\n    ) public returns (uint256) {\n        ERC20 erc20 = (new ERC20Factory)(\n            erc20Name,\n            erc20Symbol,\n            erc20Supply,\n            msg.sender\n        );\n        uint256 fracNFTId = _fracNFTCount.current();\n        fracNFTs[_fracNFTCount.current()] = FractionalizedNFT({\n            fracNFTId: fracNFTId,\n            nftTokenId: nftTokenId,\n            erc721Address: nftContractAddress,\n            erc20Address: address(erc20),\n            erc20Symbol: erc20Symbol,\n            erc20Name: erc20Name,\n            originalOwner: payable(msg.sender),\n            buyoutPrice: buyoutPrice,\n            state: State.Fractionalized\n        });\n        idList.push(_fracNFTCount.current());\n        idListLength = idList.length;\n        _fracNFTCount.increment();\n        ERC721 nft = ERC721(nftContractAddress);\n        nft.safeTransferFrom(msg.sender, address(this), nftTokenId);\n        emit Fractionalized(msg.sender, fracNFTId, erc20Symbol, address(erc20));\n        return fracNFTId;\n    }\n\n    /// @notice A holder of the entire ERC20 supply can call redeem in order to receive the underlying NFT from the contract. The ERC20 tokens get transferred to the contract address.\n    /// @param fracNFTId The ID of the fractionalized NFT to redem.\n    /// @dev Note, the ERC20 must be approved for transfer by the FractionalizeNFT contract before calling redeem().\n    function redeem(uint256 fracNFTId) public {\n        ERC20 erc20 = ERC20(fracNFTs[fracNFTId].erc20Address);\n        uint256 redeemerBalance = erc20.balanceOf(msg.sender);\n        uint256 erc20Supply = erc20.totalSupply();\n        require(\n            redeemerBalance == erc20Supply,\n            \"Redeemeer does not hold the entire supply.\"\n        );\n        fracNFTs[fracNFTId].state = State.Redeemed;\n        erc20.transferFrom(msg.sender, address(this), redeemerBalance);\n        ERC721 erc721 = ERC721(fracNFTs[fracNFTId].erc721Address);\n        erc721.safeTransferFrom(\n            address(this),\n            msg.sender,\n            fracNFTs[fracNFTId].nftTokenId\n        );\n        emit Redeemed(msg.sender, fracNFTId);\n    }\n\n    /// @notice Allows a holder of the ERC20 tokens to claim his share of the sale proceedings (in ether) following a buyout of the fractionalized NFT.\n    /// @param fracNFTId The ID of the fractionalized NFT to claim a payout for.\n    /// @dev Note, the ERC20 must be approved for transfer by the FractionalizeNFT contract before calling claim().\n    function claim(uint256 fracNFTId) public {\n        require(\n            fracNFTs[fracNFTId].state == State.BoughtOut,\n            \"Fractionalized NFT has not been bought out.\"\n        );\n        ERC20 erc20 = ERC20(fracNFTs[fracNFTId].erc20Address);\n        uint256 claimerBalance = erc20.balanceOf(msg.sender);\n        require(claimerBalance > 0, \"Claimer does not hold any tokens.\");\n        erc20.transferFrom(msg.sender, address(this), claimerBalance);\n        uint256 erc20Supply = erc20.totalSupply();\n        uint256 claimAmountWei = (fracNFTs[fracNFTId].buyoutPrice *\n            claimerBalance) / erc20Supply;\n        payable(msg.sender).transfer(claimAmountWei);\n        emit Claimed(msg.sender, fracNFTId);\n    }\n\n    /// @notice Allows an account to buy the NFT from the contract for the specified buyout price.\n    /// @param fracNFTId The ID of the fractionalized NFT to buy.\n    function buyout(uint256 fracNFTId) public payable {\n        // A buyer can buy the NFT as specified by the buyout price by sending ETH to the contract.\n        require(\n            msg.value >= fracNFTs[fracNFTId].buyoutPrice,\n            \"Sender sent less than the buyout price.\"\n        );\n        fracNFTs[fracNFTId].state = State.BoughtOut;\n        ERC721 erc721 = ERC721(fracNFTs[fracNFTId].erc721Address);\n        erc721.safeTransferFrom(\n            address(this),\n            msg.sender,\n            fracNFTs[fracNFTId].nftTokenId\n        );\n        emit BoughtOut(msg.sender, fracNFTId);\n    }\n\n    /// @dev Required to use safeTransferFrom() from OpenZeppelin's ERC721 contract (when transferring NFTs to this contract).\n    function onERC721Received(\n        address operator,\n        address from,\n        uint256 nftTokenId,\n        bytes memory data\n    ) public returns (bytes4) {\n        emit NftReceived(msg.sender);\n        return\n            bytes4(\n                keccak256(\"onERC721Received(address,address,uint256,bytes)\")\n            );\n    }\n}\n",
  "sourcePath": "contracts/FractionalizeNFT.sol",
  "type": "contract"
}