{
  "abi": [
    {
      "inputs": [],
      "stateMutability": "nonpayable",
      "type": "constructor"
    },
    {
      "anonymous": false,
      "inputs": [
        {
          "indexed": true,
          "internalType": "address",
          "name": "sender",
          "type": "address"
        },
        {
          "indexed": true,
          "internalType": "uint256",
          "name": "fracNFTId",
          "type": "uint256"
        }
      ],
      "name": "BoughtOut",
      "type": "event"
    },
    {
      "anonymous": false,
      "inputs": [
        {
          "indexed": true,
          "internalType": "address",
          "name": "sender",
          "type": "address"
        },
        {
          "indexed": true,
          "internalType": "uint256",
          "name": "fracNFTId",
          "type": "uint256"
        }
      ],
      "name": "Claimed",
      "type": "event"
    },
    {
      "anonymous": false,
      "inputs": [
        {
          "indexed": true,
          "internalType": "address",
          "name": "sender",
          "type": "address"
        },
        {
          "indexed": true,
          "internalType": "uint256",
          "name": "fracNFTId",
          "type": "uint256"
        },
        {
          "indexed": true,
          "internalType": "string",
          "name": "erc20Name",
          "type": "string"
        },
        {
          "indexed": false,
          "internalType": "address",
          "name": "erc20Address",
          "type": "address"
        }
      ],
      "name": "Fractionalized",
      "type": "event"
    },
    {
      "anonymous": false,
      "inputs": [
        {
          "indexed": true,
          "internalType": "address",
          "name": "sender",
          "type": "address"
        }
      ],
      "name": "NftReceived",
      "type": "event"
    },
    {
      "anonymous": false,
      "inputs": [
        {
          "indexed": true,
          "internalType": "address",
          "name": "sender",
          "type": "address"
        },
        {
          "indexed": true,
          "internalType": "uint256",
          "name": "value",
          "type": "uint256"
        }
      ],
      "name": "Received",
      "type": "event"
    },
    {
      "anonymous": false,
      "inputs": [
        {
          "indexed": true,
          "internalType": "address",
          "name": "sender",
          "type": "address"
        },
        {
          "indexed": true,
          "internalType": "uint256",
          "name": "fracNFTId",
          "type": "uint256"
        }
      ],
      "name": "Redeemed",
      "type": "event"
    },
    {
      "stateMutability": "payable",
      "type": "fallback"
    },
    {
      "inputs": [
        {
          "internalType": "uint256",
          "name": "fracNFTId",
          "type": "uint256"
        }
      ],
      "name": "buyout",
      "outputs": [],
      "stateMutability": "payable",
      "type": "function"
    },
    {
      "inputs": [
        {
          "internalType": "uint256",
          "name": "fracNFTId",
          "type": "uint256"
        }
      ],
      "name": "claim",
      "outputs": [],
      "stateMutability": "nonpayable",
      "type": "function"
    },
    {
      "inputs": [],
      "name": "fracNFTCount",
      "outputs": [
        {
          "internalType": "uint256",
          "name": "",
          "type": "uint256"
        }
      ],
      "stateMutability": "view",
      "type": "function"
    },
    {
      "inputs": [
        {
          "internalType": "uint256",
          "name": "",
          "type": "uint256"
        }
      ],
      "name": "fracNFTs",
      "outputs": [
        {
          "internalType": "uint256",
          "name": "fracNFTId",
          "type": "uint256"
        },
        {
          "internalType": "uint256",
          "name": "nftTokenId",
          "type": "uint256"
        },
        {
          "internalType": "address",
          "name": "erc721Address",
          "type": "address"
        },
        {
          "internalType": "address",
          "name": "erc20Address",
          "type": "address"
        },
        {
          "internalType": "string",
          "name": "erc20Symbol",
          "type": "string"
        },
        {
          "internalType": "string",
          "name": "erc20Name",
          "type": "string"
        },
        {
          "internalType": "address payable",
          "name": "originalOwner",
          "type": "address"
        },
        {
          "internalType": "uint256",
          "name": "buyoutPrice",
          "type": "uint256"
        },
        {
          "internalType": "enum FractionalizeNFT.State",
          "name": "state",
          "type": "uint8"
        }
      ],
      "stateMutability": "view",
      "type": "function"
    },
    {
      "inputs": [
        {
          "internalType": "address",
          "name": "nftContractAddress",
          "type": "address"
        },
        {
          "internalType": "uint256",
          "name": "nftTokenId",
          "type": "uint256"
        },
        {
          "internalType": "string",
          "name": "erc20Name",
          "type": "string"
        },
        {
          "internalType": "string",
          "name": "erc20Symbol",
          "type": "string"
        },
        {
          "internalType": "uint256",
          "name": "erc20Supply",
          "type": "uint256"
        },
        {
          "internalType": "uint256",
          "name": "buyoutPrice",
          "type": "uint256"
        }
      ],
      "name": "fractionalizeNft",
      "outputs": [
        {
          "internalType": "uint256",
          "name": "",
          "type": "uint256"
        }
      ],
      "stateMutability": "nonpayable",
      "type": "function"
    },
    {
      "inputs": [
        {
          "internalType": "uint256",
          "name": "fracNFTId",
          "type": "uint256"
        }
      ],
      "name": "getERC20Address",
      "outputs": [
        {
          "internalType": "address",
          "name": "",
          "type": "address"
        }
      ],
      "stateMutability": "view",
      "type": "function"
    },
    {
      "inputs": [
        {
          "internalType": "uint256",
          "name": "fracNFTId",
          "type": "uint256"
        }
      ],
      "name": "getERC20Symbol",
      "outputs": [
        {
          "internalType": "string",
          "name": "",
          "type": "string"
        }
      ],
      "stateMutability": "view",
      "type": "function"
    },
    {
      "inputs": [
        {
          "internalType": "uint256",
          "name": "fracNFTId",
          "type": "uint256"
        }
      ],
      "name": "getState",
      "outputs": [
        {
          "internalType": "enum FractionalizeNFT.State",
          "name": "",
          "type": "uint8"
        }
      ],
      "stateMutability": "view",
      "type": "function"
    },
    {
      "inputs": [
        {
          "internalType": "uint256",
          "name": "",
          "type": "uint256"
        }
      ],
      "name": "idList",
      "outputs": [
        {
          "internalType": "uint256",
          "name": "",
          "type": "uint256"
        }
      ],
      "stateMutability": "view",
      "type": "function"
    },
    {
      "inputs": [],
      "name": "idListLength",
      "outputs": [
        {
          "internalType": "uint256",
          "name": "",
          "type": "uint256"
        }
      ],
      "stateMutability": "view",
      "type": "function"
    },
    {
      "inputs": [
        {
          "internalType": "address",
          "name": "operator",
          "type": "address"
        },
        {
          "internalType": "address",
          "name": "from",
          "type": "address"
        },
        {
          "internalType": "uint256",
          "name": "nftTokenId",
          "type": "uint256"
        },
        {
          "internalType": "bytes",
          "name": "data",
          "type": "bytes"
        }
      ],
      "name": "onERC721Received",
      "outputs": [
        {
          "internalType": "bytes4",
          "name": "",
          "type": "bytes4"
        }
      ],
      "stateMutability": "nonpayable",
      "type": "function"
    },
    {
      "inputs": [
        {
          "internalType": "uint256",
          "name": "fracNFTId",
          "type": "uint256"
        }
      ],
      "name": "redeem",
      "outputs": [],
      "stateMutability": "nonpayable",
      "type": "function"
    },
    {
      "stateMutability": "payable",
      "type": "receive"
    }
  ],
  "bytecode": "6080604052600060015534801561001557600080fd5b5061220f806100256000396000f3fe608060405260043610620000b95760003560e01c80636386cd17116200006c5780636386cd17146200021357806378fe17e5146200022b5780637ff58ad9146200025f578063b141d7811462000277578063d1bc6caa14620002b3578063db006a75146200030957600080fd5b806306fbd1f214620000f357806307bec66f146200012b578063150b7a021462000144578063379607f5146200018357806344c9af2814620001a85780636313531f14620001ee57600080fd5b36620000ee57604051349033907f88a5966d370b9919b20f3e2c13ff65706f196a4e32cc2c12bf57088f8852587490600090a3005b600080fd5b3480156200010057600080fd5b50620001186200011236600462001131565b6200032e565b6040519081526020015b60405180910390f35b620001426200013c366004620011ca565b620005fd565b005b3480156200015157600080fd5b506200016962000163366004620011e4565b62000736565b6040516001600160e01b0319909116815260200162000122565b3480156200019057600080fd5b5062000142620001a2366004620011ca565b6200078d565b348015620001b557600080fd5b50620001df620001c7366004620011ca565b60009081526020819052604090206008015460ff1690565b604051620001229190620012a2565b348015620001fb57600080fd5b50620001186200020d366004620011ca565b62000aa1565b3480156200022057600080fd5b506200011860035481565b3480156200023857600080fd5b50620002506200024a366004620011ca565b62000ac3565b60405162000122919062001319565b3480156200026c57600080fd5b506200011860015481565b3480156200028457600080fd5b506200029c62000296366004620011ca565b62000b70565b60405162000122999897969594939291906200132e565b348015620002c057600080fd5b50620002f0620002d2366004620011ca565b6000908152602081905260409020600301546001600160a01b031690565b6040516001600160a01b03909116815260200162000122565b3480156200031657600080fd5b506200014262000328366004620011ca565b62000cf5565b604051632142170760e11b815260009087906001600160a01b038216906342842e0e906200036590339030908c90600401620013b1565b600060405180830381600087803b1580156200038057600080fd5b505af115801562000395573d6000803e3d6000fd5b50505050600086868633604051620003ad9062000fa3565b620003bc9493929190620013d5565b604051809103906000f080158015620003d9573d6000803e3d6000fd5b509050600060015490506040518061012001604052808281526020018a81526020018b6001600160a01b03168152602001836001600160a01b03168152602001888152602001898152602001336001600160a01b031681526020018681526020016000600281111562000450576200045062001269565b90526001805460009081526020818152604091829020845181558482015193810193909355908301516002830180546001600160a01b039283166001600160a01b031991821617909155606085015160038501805491909316911617905560808301518051620004c7926004850192019062000fb1565b5060a08201518051620004e591600584019160209091019062000fb1565b5060c08201516006820180546001600160a01b0319166001600160a01b0390921691909117905560e0820151600782015561010082015160088201805460ff191660018360028111156200053d576200053d62001269565b0217905550506001805460028054808401825560008281527f405787fa12a823e0f2b7631cc41b3ba8828b3321ca811111fa75cd3aa3bb5ace90910183905590546003559192508291906200059490839062001436565b9091555050604051620005a990889062001451565b6040519081900381206001600160a01b038416825290829033907fe2c8aefc9d0a52c93c762509eeeac2a518c41c52f791b6888c0673d07312c6059060200160405180910390a49998505050505050505050565b600081815260208190526040902060070154341015620006745760405162461bcd60e51b815260206004820152602760248201527f53656e6465722073656e74206c657373207468616e20746865206275796f757460448201526610383934b1b29760c91b60648201526084015b60405180910390fd5b6000818152602081905260409081902060088101805460ff191660029081179091558101546001909101549151632142170760e11b81526001600160a01b039091169182916342842e0e91620006d19130913391600401620013b1565b600060405180830381600087803b158015620006ec57600080fd5b505af115801562000701573d6000803e3d6000fd5b50506040518492503391507ffbbd268bb69cf922e3840dc96a6702dc064baf4b2d9594b5a66a2fe428f3f2aa90600090a35050565b60405160009033907fcce71fc9cfcacc4ce8153bde254a735ae423cdc2b7852fb754f4de746ac3018f908390a2507f150b7a023d4804d13e8c85fb27262cb750cf6ba9f9dd3bb30d90f482ceeb4b1f949350505050565b600260008281526020819052604090206008015460ff166002811115620007b857620007b862001269565b146200081b5760405162461bcd60e51b815260206004820152602b60248201527f4672616374696f6e616c697a6564204e465420686173206e6f74206265656e2060448201526a3137bab3b43a1037baba1760a91b60648201526084016200066b565b6000818152602081905260408082206003015490516370a0823160e01b81523360048201526001600160a01b03909116919082906370a082319060240160206040518083038186803b1580156200087157600080fd5b505afa15801562000886573d6000803e3d6000fd5b505050506040513d601f19601f82011682018060405250810190620008ac91906200146f565b9050600081116200090a5760405162461bcd60e51b815260206004820152602160248201527f436c61696d657220646f6573206e6f7420686f6c6420616e7920746f6b656e736044820152601760f91b60648201526084016200066b565b6040516323b872dd60e01b81526001600160a01b038316906323b872dd906200093c90339030908690600401620013b1565b602060405180830381600087803b1580156200095757600080fd5b505af11580156200096c573d6000803e3d6000fd5b505050506040513d601f19601f8201168201806040525081019062000992919062001489565b506000826001600160a01b03166318160ddd6040518163ffffffff1660e01b815260040160206040518083038186803b158015620009cf57600080fd5b505afa158015620009e4573d6000803e3d6000fd5b505050506040513d601f19601f8201168201806040525081019062000a0a91906200146f565b60008581526020819052604081206007015491925090829062000a2f908590620014ad565b62000a3b9190620014cf565b604051909150339082156108fc029083906000818181858888f1935050505015801562000a6c573d6000803e3d6000fd5b50604051859033907fd8138f8a3f377c5259ca548e70e4c2de94f129f5a11036a15b69513cba2b426a90600090a35050505050565b6002818154811062000ab257600080fd5b600091825260209091200154905081565b600081815260208190526040902060040180546060919062000ae590620014f2565b80601f016020809104026020016040519081016040528092919081815260200182805462000b1390620014f2565b801562000b645780601f1062000b385761010080835404028352916020019162000b64565b820191906000526020600020905b81548152906001019060200180831162000b4657829003601f168201915b50505050509050919050565b60006020819052908152604090208054600182015460028301546003840154600485018054949593946001600160a01b0393841694929093169262000bb590620014f2565b80601f016020809104026020016040519081016040528092919081815260200182805462000be390620014f2565b801562000c345780601f1062000c085761010080835404028352916020019162000c34565b820191906000526020600020905b81548152906001019060200180831162000c1657829003601f168201915b50505050509080600501805462000c4b90620014f2565b80601f016020809104026020016040519081016040528092919081815260200182805462000c7990620014f2565b801562000cca5780601f1062000c9e5761010080835404028352916020019162000cca565b820191906000526020600020905b81548152906001019060200180831162000cac57829003601f168201915b505050506006830154600784015460089094015492936001600160a01b039091169290915060ff1689565b6000818152602081905260408082206003015490516370a0823160e01b81523360048201526001600160a01b03909116919082906370a082319060240160206040518083038186803b15801562000d4b57600080fd5b505afa15801562000d60573d6000803e3d6000fd5b505050506040513d601f19601f8201168201806040525081019062000d8691906200146f565b90506000826001600160a01b03166318160ddd6040518163ffffffff1660e01b815260040160206040518083038186803b15801562000dc457600080fd5b505afa15801562000dd9573d6000803e3d6000fd5b505050506040513d601f19601f8201168201806040525081019062000dff91906200146f565b905080821462000e655760405162461bcd60e51b815260206004820152602a60248201527f52656465656d65657220646f6573206e6f7420686f6c642074686520656e746960448201526939329039bab838363c9760b11b60648201526084016200066b565b6040516323b872dd60e01b81526001600160a01b038416906323b872dd9062000e9790339030908790600401620013b1565b602060405180830381600087803b15801562000eb257600080fd5b505af115801562000ec7573d6000803e3d6000fd5b505050506040513d601f19601f8201168201806040525081019062000eed919062001489565b506000848152602081905260409081902060028101546001909101549151632142170760e11b81526001600160a01b039091169182916342842e0e9162000f3b9130913391600401620013b1565b600060405180830381600087803b15801562000f5657600080fd5b505af115801562000f6b573d6000803e3d6000fd5b50506040518792503391507f4896181ff8f4543cc00db9fe9b6fb7e6f032b7eb772c72ab1ec1b4d2e03b936990600090a35050505050565b610caa806200153083390190565b82805462000fbf90620014f2565b90600052602060002090601f01602090048101928262000fe357600085556200102e565b82601f1062000ffe57805160ff19168380011785556200102e565b828001600101855582156200102e579182015b828111156200102e57825182559160200191906001019062001011565b506200103c92915062001040565b5090565b5b808211156200103c576000815560010162001041565b80356001600160a01b03811681146200106f57600080fd5b919050565b634e487b7160e01b600052604160045260246000fd5b600067ffffffffffffffff80841115620010a857620010a862001074565b604051601f8501601f19908116603f01168101908282118183101715620010d357620010d362001074565b81604052809350858152868686011115620010ed57600080fd5b858560208301376000602087830101525050509392505050565b600082601f8301126200111957600080fd5b6200112a838335602085016200108a565b9392505050565b60008060008060008060c087890312156200114b57600080fd5b620011568762001057565b955060208701359450604087013567ffffffffffffffff808211156200117b57600080fd5b620011898a838b0162001107565b95506060890135915080821115620011a057600080fd5b50620011af89828a0162001107565b9350506080870135915060a087013590509295509295509295565b600060208284031215620011dd57600080fd5b5035919050565b60008060008060808587031215620011fb57600080fd5b620012068562001057565b9350620012166020860162001057565b925060408501359150606085013567ffffffffffffffff8111156200123a57600080fd5b8501601f810187136200124c57600080fd5b6200125d878235602084016200108a565b91505092959194509250565b634e487b7160e01b600052602160045260246000fd5b600381106200129e57634e487b7160e01b600052602160045260246000fd5b9052565b60208101620012b282846200127f565b92915050565b60005b83811015620012d5578181015183820152602001620012bb565b83811115620012e5576000848401525b50505050565b6000815180845262001305816020860160208601620012b8565b601f01601f19169290920160200192915050565b6020815260006200112a6020830184620012eb565b898152602081018990526001600160a01b0388811660408301528781166060830152610120608083018190526000916200136b8483018a620012eb565b915083820360a0850152620013818289620012eb565b925080871660c085015250508360e0830152620013a36101008301846200127f565b9a9950505050505050505050565b6001600160a01b039384168152919092166020820152604081019190915260600190565b608081526000620013ea6080830187620012eb565b8281036020840152620013fe8187620012eb565b604084019590955250506001600160a01b039190911660609091015292915050565b634e487b7160e01b600052601160045260246000fd5b600082198211156200144c576200144c62001420565b500190565b6000825162001465818460208701620012b8565b9190910192915050565b6000602082840312156200148257600080fd5b5051919050565b6000602082840312156200149c57600080fd5b815180151581146200112a57600080fd5b6000816000190483118215151615620014ca57620014ca62001420565b500290565b600082620014ed57634e487b7160e01b600052601260045260246000fd5b500490565b600181811c908216806200150757607f821691505b602082108114156200152957634e487b7160e01b600052602260045260246000fd5b5091905056fe60806040523480156200001157600080fd5b5060405162000caa38038062000caa8339810160408190526200003491620002dd565b8351849084906200004d9060039060208501906200016a565b508051620000639060049060208401906200016a565b5050506200007881836200008260201b60201c565b50505050620003d6565b6001600160a01b038216620000dd5760405162461bcd60e51b815260206004820152601f60248201527f45524332303a206d696e7420746f20746865207a65726f206164647265737300604482015260640160405180910390fd5b8060026000828254620000f1919062000372565b90915550506001600160a01b038216600090815260208190526040812080548392906200012090849062000372565b90915550506040518181526001600160a01b038316906000907fddf252ad1be2c89b69c2b068fc378daa952ba7f163c4a11628f55a4df523b3ef9060200160405180910390a35050565b828054620001789062000399565b90600052602060002090601f0160209004810192826200019c5760008555620001e7565b82601f10620001b757805160ff1916838001178555620001e7565b82800160010185558215620001e7579182015b82811115620001e7578251825591602001919060010190620001ca565b50620001f5929150620001f9565b5090565b5b80821115620001f55760008155600101620001fa565b634e487b7160e01b600052604160045260246000fd5b600082601f8301126200023857600080fd5b81516001600160401b038082111562000255576200025562000210565b604051601f8301601f19908116603f0116810190828211818310171562000280576200028062000210565b816040528381526020925086838588010111156200029d57600080fd5b600091505b83821015620002c15785820183015181830184015290820190620002a2565b83821115620002d35760008385830101525b9695505050505050565b60008060008060808587031215620002f457600080fd5b84516001600160401b03808211156200030c57600080fd5b6200031a8883890162000226565b955060208701519150808211156200033157600080fd5b50620003408782880162000226565b60408701516060880151919550935090506001600160a01b03811681146200036757600080fd5b939692955090935050565b600082198211156200039457634e487b7160e01b600052601160045260246000fd5b500190565b600181811c90821680620003ae57607f821691505b60208210811415620003d057634e487b7160e01b600052602260045260246000fd5b50919050565b6108c480620003e66000396000f3fe608060405234801561001057600080fd5b50600436106100a95760003560e01c80633950935111610071578063395093511461012357806370a082311461013657806395d89b411461015f578063a457c2d714610167578063a9059cbb1461017a578063dd62ed3e1461018d57600080fd5b806306fdde03146100ae578063095ea7b3146100cc57806318160ddd146100ef57806323b872dd14610101578063313ce56714610114575b600080fd5b6100b66101c6565b6040516100c39190610701565b60405180910390f35b6100df6100da366004610772565b610258565b60405190151581526020016100c3565b6002545b6040519081526020016100c3565b6100df61010f36600461079c565b61026e565b604051601281526020016100c3565b6100df610131366004610772565b61031d565b6100f36101443660046107d8565b6001600160a01b031660009081526020819052604090205490565b6100b6610359565b6100df610175366004610772565b610368565b6100df610188366004610772565b610401565b6100f361019b3660046107fa565b6001600160a01b03918216600090815260016020908152604080832093909416825291909152205490565b6060600380546101d59061082d565b80601f01602080910402602001604051908101604052809291908181526020018280546102019061082d565b801561024e5780601f106102235761010080835404028352916020019161024e565b820191906000526020600020905b81548152906001019060200180831161023157829003601f168201915b5050505050905090565b600061026533848461040e565b50600192915050565b600061027b848484610532565b6001600160a01b0384166000908152600160209081526040808320338452909152902054828110156103055760405162461bcd60e51b815260206004820152602860248201527f45524332303a207472616e7366657220616d6f756e74206578636565647320616044820152676c6c6f77616e636560c01b60648201526084015b60405180910390fd5b610312853385840361040e565b506001949350505050565b3360008181526001602090815260408083206001600160a01b03871684529091528120549091610265918590610354908690610868565b61040e565b6060600480546101d59061082d565b3360009081526001602090815260408083206001600160a01b0386168452909152812054828110156103ea5760405162461bcd60e51b815260206004820152602560248201527f45524332303a2064656372656173656420616c6c6f77616e63652062656c6f77604482015264207a65726f60d81b60648201526084016102fc565b6103f7338585840361040e565b5060019392505050565b6000610265338484610532565b6001600160a01b0383166104705760405162461bcd60e51b8152602060048201526024808201527f45524332303a20617070726f76652066726f6d20746865207a65726f206164646044820152637265737360e01b60648201526084016102fc565b6001600160a01b0382166104d15760405162461bcd60e51b815260206004820152602260248201527f45524332303a20617070726f766520746f20746865207a65726f206164647265604482015261737360f01b60648201526084016102fc565b6001600160a01b0383811660008181526001602090815260408083209487168084529482529182902085905590518481527f8c5be1e5ebec7d5bd14f71427d1e84f3dd0314c0f7b2291e5b200ac8c7c3b925910160405180910390a3505050565b6001600160a01b0383166105965760405162461bcd60e51b815260206004820152602560248201527f45524332303a207472616e736665722066726f6d20746865207a65726f206164604482015264647265737360d81b60648201526084016102fc565b6001600160a01b0382166105f85760405162461bcd60e51b815260206004820152602360248201527f45524332303a207472616e7366657220746f20746865207a65726f206164647260448201526265737360e81b60648201526084016102fc565b6001600160a01b038316600090815260208190526040902054818110156106705760405162461bcd60e51b815260206004820152602660248201527f45524332303a207472616e7366657220616d6f756e7420657863656564732062604482015265616c616e636560d01b60648201526084016102fc565b6001600160a01b038085166000908152602081905260408082208585039055918516815290812080548492906106a7908490610868565b92505081905550826001600160a01b0316846001600160a01b03167fddf252ad1be2c89b69c2b068fc378daa952ba7f163c4a11628f55a4df523b3ef846040516106f391815260200190565b60405180910390a350505050565b600060208083528351808285015260005b8181101561072e57858101830151858201604001528201610712565b81811115610740576000604083870101525b50601f01601f1916929092016040019392505050565b80356001600160a01b038116811461076d57600080fd5b919050565b6000806040838503121561078557600080fd5b61078e83610756565b946020939093013593505050565b6000806000606084860312156107b157600080fd5b6107ba84610756565b92506107c860208501610756565b9150604084013590509250925092565b6000602082840312156107ea57600080fd5b6107f382610756565b9392505050565b6000806040838503121561080d57600080fd5b61081683610756565b915061082460208401610756565b90509250929050565b600181811c9082168061084157607f821691505b6020821081141561086257634e487b7160e01b600052602260045260246000fd5b50919050565b6000821982111561088957634e487b7160e01b600052601160045260246000fd5b50019056fea26469706673582212209147407f41d281300cec2a9f644c0521d6e4697b4af5985bc81dfe0f3c829c0064736f6c63430008090033a26469706673582212201c7735fc9b64141619a1475f5430652e71e3555d3c88fb9fe8a568136513514f64736f6c63430008090033",
  "bytecodeSha1": "356e002ccd993ece09ce625543d2d201d331afad",
  "compiler": {
    "evm_version": "istanbul",
    "optimizer": {
      "enabled": true,
      "runs": 200
    },
    "version": "0.8.9+commit.e5eed63a"
  },
  "contractName": "FractionalizeNFT",
  "language": "Solidity",
  "natspec": {
    "kind": "dev",
    "methods": {
      "buyout(uint256)": {
        "notice": "Allows an account to buy the NFT from the contract for the specified buyout price.",
        "params": {
          "fracNFTId": "The ID of the fractionalized NFT to buy."
        }
      },
      "claim(uint256)": {
        "details": "Note, the ERC20 must be approved for transfer by the FractionalizeNFT contract before calling claim().",
        "notice": "Allows a holder of the ERC20 tokens to claim his share of the sale proceedings (in ether) following a buyout of the fractionalized NFT.",
        "params": {
          "fracNFTId": "The ID of the fractionalized NFT to claim a payout for."
        }
      },
      "fractionalizeNft(address,uint256,string,string,uint256,uint256)": {
        "details": "Note, the NFT must be approved for transfer by the FractionalizeNFT contract.",
        "notice": "Create a fractionalized NFT: Lock the NFT in the contract; create a new ERC20 token, as specified; and transfer the total supply of the token to the sender.",
        "params": {
          "buyoutPrice": "The price (in Wei) for which the fractionalized NFT can be be bought for from the contract.",
          "erc20Name": "The name of the newly created ERC20 token.",
          "erc20Supply": "The total supply of the newly created ERC20 token.",
          "erc20Symbol": "The symbol of the newly created ERC20 token.",
          "nftContractAddress": "The address of the NFT that is to be fractionalized.",
          "nftTokenId": "The token ID of the NFT that is to be fractionalized."
        },
        "returns": {
          "_0": "The ID of the newly created fractionalized NFT."
        }
      },
      "getERC20Address(uint256)": {
        "notice": "A getter function for the contract address of a fractionalized NFT's ERC20 token.",
        "params": {
          "fracNFTId": "The ID of the fractionalized NFT."
        },
        "returns": {
          "_0": "The ERC20 contract address."
        }
      },
      "getERC20Symbol(uint256)": {
        "notice": "A getter function for the symbol of a fractionalized NFT's ERC20 token.",
        "params": {
          "fracNFTId": "The ID of the fractionalized NFT."
        },
        "returns": {
          "_0": "The ERC20's symobl."
        }
      },
      "getState(uint256)": {
        "notice": "A getter function for the state of a fractionalized NFT.",
        "params": {
          "fracNFTId": "The ID of the fractionalized NFT."
        },
        "returns": {
          "_0": "The fractionalized NFT's state (Fractionalized, Redeemed or BoughtOut)."
        }
      },
      "idList(uint256)": {
        "notice": "List of all fractionalized NFT ids."
      },
      "idListLength()": {
        "notice": "idList length."
      },
      "onERC721Received(address,address,uint256,bytes)": {
        "details": "Required to use safeTransferFrom() from OpenZeppelin's ERC721 contract (when transferring NFTs to this contract)."
      },
      "redeem(uint256)": {
        "details": "Note, the ERC20 must be approved for transfer by the FractionalizeNFT contract before calling redeem().",
        "notice": "A holder of the entire ERC20 supply can call redeem in order to receive the underlying NFT from the contract. The ERC20 tokens get transferred to the contract address.",
        "params": {
          "fracNFTId": "The ID of the fractionalized NFT to redem."
        }
      }
    },
    "stateVariables": {
      "idList": {
        "details": "Used as a helper when iterating over fractionalized NFTs in frontend clients."
      },
      "idListLength": {
        "details": "Used as a helper when iterating over fractionalized NFTs in frontend clients."
      }
    },
    "version": 1
  },
  "opcodes": "PUSH1 0x80 PUSH1 0x40 MSTORE PUSH1 0x4 CALLDATASIZE LT PUSH3 0xB9 JUMPI PUSH1 0x0 CALLDATALOAD PUSH1 0xE0 SHR DUP1 PUSH4 0x6386CD17 GT PUSH3 0x6C JUMPI DUP1 PUSH4 0x6386CD17 EQ PUSH3 0x213 JUMPI DUP1 PUSH4 0x78FE17E5 EQ PUSH3 0x22B JUMPI DUP1 PUSH4 0x7FF58AD9 EQ PUSH3 0x25F JUMPI DUP1 PUSH4 0xB141D781 EQ PUSH3 0x277 JUMPI DUP1 PUSH4 0xD1BC6CAA EQ PUSH3 0x2B3 JUMPI DUP1 PUSH4 0xDB006A75 EQ PUSH3 0x309 JUMPI PUSH1 0x0 DUP1 REVERT JUMPDEST DUP1 PUSH4 0x6FBD1F2 EQ PUSH3 0xF3 JUMPI DUP1 PUSH4 0x7BEC66F EQ PUSH3 0x12B JUMPI DUP1 PUSH4 0x150B7A02 EQ PUSH3 0x144 JUMPI DUP1 PUSH4 0x379607F5 EQ PUSH3 0x183 JUMPI DUP1 PUSH4 0x44C9AF28 EQ PUSH3 0x1A8 JUMPI DUP1 PUSH4 0x6313531F EQ PUSH3 0x1EE JUMPI PUSH1 0x0 DUP1 REVERT JUMPDEST CALLDATASIZE PUSH3 0xEE JUMPI PUSH1 0x40 MLOAD CALLVALUE SWAP1 CALLER SWAP1 PUSH32 0x88A5966D370B9919B20F3E2C13FF65706F196A4E32CC2C12BF57088F88525874 SWAP1 PUSH1 0x0 SWAP1 LOG3 STOP JUMPDEST PUSH1 0x0 DUP1 REVERT JUMPDEST CALLVALUE DUP1 ISZERO PUSH3 0x100 JUMPI PUSH1 0x0 DUP1 REVERT JUMPDEST POP PUSH3 0x118 PUSH3 0x112 CALLDATASIZE PUSH1 0x4 PUSH3 0x1131 JUMP JUMPDEST PUSH3 0x32E JUMP JUMPDEST PUSH1 0x40 MLOAD SWAP1 DUP2 MSTORE PUSH1 0x20 ADD JUMPDEST PUSH1 0x40 MLOAD DUP1 SWAP2 SUB SWAP1 RETURN JUMPDEST PUSH3 0x142 PUSH3 0x13C CALLDATASIZE PUSH1 0x4 PUSH3 0x11CA JUMP JUMPDEST PUSH3 0x5FD JUMP JUMPDEST STOP JUMPDEST CALLVALUE DUP1 ISZERO PUSH3 0x151 JUMPI PUSH1 0x0 DUP1 REVERT JUMPDEST POP PUSH3 0x169 PUSH3 0x163 CALLDATASIZE PUSH1 0x4 PUSH3 0x11E4 JUMP JUMPDEST PUSH3 0x736 JUMP JUMPDEST PUSH1 0x40 MLOAD PUSH1 0x1 PUSH1 0x1 PUSH1 0xE0 SHL SUB NOT SWAP1 SWAP2 AND DUP2 MSTORE PUSH1 0x20 ADD PUSH3 0x122 JUMP JUMPDEST CALLVALUE DUP1 ISZERO PUSH3 0x190 JUMPI PUSH1 0x0 DUP1 REVERT JUMPDEST POP PUSH3 0x142 PUSH3 0x1A2 CALLDATASIZE PUSH1 0x4 PUSH3 0x11CA JUMP JUMPDEST PUSH3 0x78D JUMP JUMPDEST CALLVALUE DUP1 ISZERO PUSH3 0x1B5 JUMPI PUSH1 0x0 DUP1 REVERT JUMPDEST POP PUSH3 0x1DF PUSH3 0x1C7 CALLDATASIZE PUSH1 0x4 PUSH3 0x11CA JUMP JUMPDEST PUSH1 0x0 SWAP1 DUP2 MSTORE PUSH1 0x20 DUP2 SWAP1 MSTORE PUSH1 0x40 SWAP1 KECCAK256 PUSH1 0x8 ADD SLOAD PUSH1 0xFF AND SWAP1 JUMP JUMPDEST PUSH1 0x40 MLOAD PUSH3 0x122 SWAP2 SWAP1 PUSH3 0x12A2 JUMP JUMPDEST CALLVALUE DUP1 ISZERO PUSH3 0x1FB JUMPI PUSH1 0x0 DUP1 REVERT JUMPDEST POP PUSH3 0x118 PUSH3 0x20D CALLDATASIZE PUSH1 0x4 PUSH3 0x11CA JUMP JUMPDEST PUSH3 0xAA1 JUMP JUMPDEST CALLVALUE DUP1 ISZERO PUSH3 0x220 JUMPI PUSH1 0x0 DUP1 REVERT JUMPDEST POP PUSH3 0x118 PUSH1 0x3 SLOAD DUP2 JUMP JUMPDEST CALLVALUE DUP1 ISZERO PUSH3 0x238 JUMPI PUSH1 0x0 DUP1 REVERT JUMPDEST POP PUSH3 0x250 PUSH3 0x24A CALLDATASIZE PUSH1 0x4 PUSH3 0x11CA JUMP JUMPDEST PUSH3 0xAC3 JUMP JUMPDEST PUSH1 0x40 MLOAD PUSH3 0x122 SWAP2 SWAP1 PUSH3 0x1319 JUMP JUMPDEST CALLVALUE DUP1 ISZERO PUSH3 0x26C JUMPI PUSH1 0x0 DUP1 REVERT JUMPDEST POP PUSH3 0x118 PUSH1 0x1 SLOAD DUP2 JUMP JUMPDEST CALLVALUE DUP1 ISZERO PUSH3 0x284 JUMPI PUSH1 0x0 DUP1 REVERT JUMPDEST POP PUSH3 0x29C PUSH3 0x296 CALLDATASIZE PUSH1 0x4 PUSH3 0x11CA JUMP JUMPDEST PUSH3 0xB70 JUMP JUMPDEST PUSH1 0x40 MLOAD PUSH3 0x122 SWAP10 SWAP9 SWAP8 SWAP7 SWAP6 SWAP5 SWAP4 SWAP3 SWAP2 SWAP1 PUSH3 0x132E JUMP JUMPDEST CALLVALUE DUP1 ISZERO PUSH3 0x2C0 JUMPI PUSH1 0x0 DUP1 REVERT JUMPDEST POP PUSH3 0x2F0 PUSH3 0x2D2 CALLDATASIZE PUSH1 0x4 PUSH3 0x11CA JUMP JUMPDEST PUSH1 0x0 SWAP1 DUP2 MSTORE PUSH1 0x20 DUP2 SWAP1 MSTORE PUSH1 0x40 SWAP1 KECCAK256 PUSH1 0x3 ADD SLOAD PUSH1 0x1 PUSH1 0x1 PUSH1 0xA0 SHL SUB AND SWAP1 JUMP JUMPDEST PUSH1 0x40 MLOAD PUSH1 0x1 PUSH1 0x1 PUSH1 0xA0 SHL SUB SWAP1 SWAP2 AND DUP2 MSTORE PUSH1 0x20 ADD PUSH3 0x122 JUMP JUMPDEST CALLVALUE DUP1 ISZERO PUSH3 0x316 JUMPI PUSH1 0x0 DUP1 REVERT JUMPDEST POP PUSH3 0x142 PUSH3 0x328 CALLDATASIZE PUSH1 0x4 PUSH3 0x11CA JUMP JUMPDEST PUSH3 0xCF5 JUMP JUMPDEST PUSH1 0x40 MLOAD PUSH4 0x21421707 PUSH1 0xE1 SHL DUP2 MSTORE PUSH1 0x0 SWAP1 DUP8 SWAP1 PUSH1 0x1 PUSH1 0x1 PUSH1 0xA0 SHL SUB DUP3 AND SWAP1 PUSH4 0x42842E0E SWAP1 PUSH3 0x365 SWAP1 CALLER SWAP1 ADDRESS SWAP1 DUP13 SWAP1 PUSH1 0x4 ADD PUSH3 0x13B1 JUMP JUMPDEST PUSH1 0x0 PUSH1 0x40 MLOAD DUP1 DUP4 SUB DUP2 PUSH1 0x0 DUP8 DUP1 EXTCODESIZE ISZERO DUP1 ISZERO PUSH3 0x380 JUMPI PUSH1 0x0 DUP1 REVERT JUMPDEST POP GAS CALL ISZERO DUP1 ISZERO PUSH3 0x395 JUMPI RETURNDATASIZE PUSH1 0x0 DUP1 RETURNDATACOPY RETURNDATASIZE PUSH1 0x0 REVERT JUMPDEST POP POP POP POP PUSH1 0x0 DUP7 DUP7 DUP7 CALLER PUSH1 0x40 MLOAD PUSH3 0x3AD SWAP1 PUSH3 0xFA3 JUMP JUMPDEST PUSH3 0x3BC SWAP5 SWAP4 SWAP3 SWAP2 SWAP1 PUSH3 0x13D5 JUMP JUMPDEST PUSH1 0x40 MLOAD DUP1 SWAP2 SUB SWAP1 PUSH1 0x0 CREATE DUP1 ISZERO DUP1 ISZERO PUSH3 0x3D9 JUMPI RETURNDATASIZE PUSH1 0x0 DUP1 RETURNDATACOPY RETURNDATASIZE PUSH1 0x0 REVERT JUMPDEST POP SWAP1 POP PUSH1 0x0 PUSH1 0x1 SLOAD SWAP1 POP PUSH1 0x40 MLOAD DUP1 PUSH2 0x120 ADD PUSH1 0x40 MSTORE DUP1 DUP3 DUP2 MSTORE PUSH1 0x20 ADD DUP11 DUP2 MSTORE PUSH1 0x20 ADD DUP12 PUSH1 0x1 PUSH1 0x1 PUSH1 0xA0 SHL SUB AND DUP2 MSTORE PUSH1 0x20 ADD DUP4 PUSH1 0x1 PUSH1 0x1 PUSH1 0xA0 SHL SUB AND DUP2 MSTORE PUSH1 0x20 ADD DUP9 DUP2 MSTORE PUSH1 0x20 ADD DUP10 DUP2 MSTORE PUSH1 0x20 ADD CALLER PUSH1 0x1 PUSH1 0x1 PUSH1 0xA0 SHL SUB AND DUP2 MSTORE PUSH1 0x20 ADD DUP7 DUP2 MSTORE PUSH1 0x20 ADD PUSH1 0x0 PUSH1 0x2 DUP2 GT ISZERO PUSH3 0x450 JUMPI PUSH3 0x450 PUSH3 0x1269 JUMP JUMPDEST SWAP1 MSTORE PUSH1 0x1 DUP1 SLOAD PUSH1 0x0 SWAP1 DUP2 MSTORE PUSH1 0x20 DUP2 DUP2 MSTORE PUSH1 0x40 SWAP2 DUP3 SWAP1 KECCAK256 DUP5 MLOAD DUP2 SSTORE DUP5 DUP3 ADD MLOAD SWAP4 DUP2 ADD SWAP4 SWAP1 SWAP4 SSTORE SWAP1 DUP4 ADD MLOAD PUSH1 0x2 DUP4 ADD DUP1 SLOAD PUSH1 0x1 PUSH1 0x1 PUSH1 0xA0 SHL SUB SWAP3 DUP4 AND PUSH1 0x1 PUSH1 0x1 PUSH1 0xA0 SHL SUB NOT SWAP2 DUP3 AND OR SWAP1 SWAP2 SSTORE PUSH1 0x60 DUP6 ADD MLOAD PUSH1 0x3 DUP6 ADD DUP1 SLOAD SWAP2 SWAP1 SWAP4 AND SWAP2 AND OR SWAP1 SSTORE PUSH1 0x80 DUP4 ADD MLOAD DUP1 MLOAD PUSH3 0x4C7 SWAP3 PUSH1 0x4 DUP6 ADD SWAP3 ADD SWAP1 PUSH3 0xFB1 JUMP JUMPDEST POP PUSH1 0xA0 DUP3 ADD MLOAD DUP1 MLOAD PUSH3 0x4E5 SWAP2 PUSH1 0x5 DUP5 ADD SWAP2 PUSH1 0x20 SWAP1 SWAP2 ADD SWAP1 PUSH3 0xFB1 JUMP JUMPDEST POP PUSH1 0xC0 DUP3 ADD MLOAD PUSH1 0x6 DUP3 ADD DUP1 SLOAD PUSH1 0x1 PUSH1 0x1 PUSH1 0xA0 SHL SUB NOT AND PUSH1 0x1 PUSH1 0x1 PUSH1 0xA0 SHL SUB SWAP1 SWAP3 AND SWAP2 SWAP1 SWAP2 OR SWAP1 SSTORE PUSH1 0xE0 DUP3 ADD MLOAD PUSH1 0x7 DUP3 ADD SSTORE PUSH2 0x100 DUP3 ADD MLOAD PUSH1 0x8 DUP3 ADD DUP1 SLOAD PUSH1 0xFF NOT AND PUSH1 0x1 DUP4 PUSH1 0x2 DUP2 GT ISZERO PUSH3 0x53D JUMPI PUSH3 0x53D PUSH3 0x1269 JUMP JUMPDEST MUL OR SWAP1 SSTORE POP POP PUSH1 0x1 DUP1 SLOAD PUSH1 0x2 DUP1 SLOAD DUP1 DUP5 ADD DUP3 SSTORE PUSH1 0x0 DUP3 DUP2 MSTORE PUSH32 0x405787FA12A823E0F2B7631CC41B3BA8828B3321CA811111FA75CD3AA3BB5ACE SWAP1 SWAP2 ADD DUP4 SWAP1 SSTORE SWAP1 SLOAD PUSH1 0x3 SSTORE SWAP2 SWAP3 POP DUP3 SWAP2 SWAP1 PUSH3 0x594 SWAP1 DUP4 SWAP1 PUSH3 0x1436 JUMP JUMPDEST SWAP1 SWAP2 SSTORE POP POP PUSH1 0x40 MLOAD PUSH3 0x5A9 SWAP1 DUP9 SWAP1 PUSH3 0x1451 JUMP JUMPDEST PUSH1 0x40 MLOAD SWAP1 DUP2 SWAP1 SUB DUP2 KECCAK256 PUSH1 0x1 PUSH1 0x1 PUSH1 0xA0 SHL SUB DUP5 AND DUP3 MSTORE SWAP1 DUP3 SWAP1 CALLER SWAP1 PUSH32 0xE2C8AEFC9D0A52C93C762509EEEAC2A518C41C52F791B6888C0673D07312C605 SWAP1 PUSH1 0x20 ADD PUSH1 0x40 MLOAD DUP1 SWAP2 SUB SWAP1 LOG4 SWAP10 SWAP9 POP POP POP POP POP POP POP POP POP JUMP JUMPDEST PUSH1 0x0 DUP2 DUP2 MSTORE PUSH1 0x20 DUP2 SWAP1 MSTORE PUSH1 0x40 SWAP1 KECCAK256 PUSH1 0x7 ADD SLOAD CALLVALUE LT ISZERO PUSH3 0x674 JUMPI PUSH1 0x40 MLOAD PUSH3 0x461BCD PUSH1 0xE5 SHL DUP2 MSTORE PUSH1 0x20 PUSH1 0x4 DUP3 ADD MSTORE PUSH1 0x27 PUSH1 0x24 DUP3 ADD MSTORE PUSH32 0x53656E6465722073656E74206C657373207468616E20746865206275796F7574 PUSH1 0x44 DUP3 ADD MSTORE PUSH7 0x10383934B1B297 PUSH1 0xC9 SHL PUSH1 0x64 DUP3 ADD MSTORE PUSH1 0x84 ADD JUMPDEST PUSH1 0x40 MLOAD DUP1 SWAP2 SUB SWAP1 REVERT JUMPDEST PUSH1 0x0 DUP2 DUP2 MSTORE PUSH1 0x20 DUP2 SWAP1 MSTORE PUSH1 0x40 SWAP1 DUP2 SWAP1 KECCAK256 PUSH1 0x8 DUP2 ADD DUP1 SLOAD PUSH1 0xFF NOT AND PUSH1 0x2 SWAP1 DUP2 OR SWAP1 SWAP2 SSTORE DUP2 ADD SLOAD PUSH1 0x1 SWAP1 SWAP2 ADD SLOAD SWAP2 MLOAD PUSH4 0x21421707 PUSH1 0xE1 SHL DUP2 MSTORE PUSH1 0x1 PUSH1 0x1 PUSH1 0xA0 SHL SUB SWAP1 SWAP2 AND SWAP2 DUP3 SWAP2 PUSH4 0x42842E0E SWAP2 PUSH3 0x6D1 SWAP2 ADDRESS SWAP2 CALLER SWAP2 PUSH1 0x4 ADD PUSH3 0x13B1 JUMP JUMPDEST PUSH1 0x0 PUSH1 0x40 MLOAD DUP1 DUP4 SUB DUP2 PUSH1 0x0 DUP8 DUP1 EXTCODESIZE ISZERO DUP1 ISZERO PUSH3 0x6EC JUMPI PUSH1 0x0 DUP1 REVERT JUMPDEST POP GAS CALL ISZERO DUP1 ISZERO PUSH3 0x701 JUMPI RETURNDATASIZE PUSH1 0x0 DUP1 RETURNDATACOPY RETURNDATASIZE PUSH1 0x0 REVERT JUMPDEST POP POP PUSH1 0x40 MLOAD DUP5 SWAP3 POP CALLER SWAP2 POP PUSH32 0xFBBD268BB69CF922E3840DC96A6702DC064BAF4B2D9594B5A66A2FE428F3F2AA SWAP1 PUSH1 0x0 SWAP1 LOG3 POP POP JUMP JUMPDEST PUSH1 0x40 MLOAD PUSH1 0x0 SWAP1 CALLER SWAP1 PUSH32 0xCCE71FC9CFCACC4CE8153BDE254A735AE423CDC2B7852FB754F4DE746AC3018F SWAP1 DUP4 SWAP1 LOG2 POP PUSH32 0x150B7A023D4804D13E8C85FB27262CB750CF6BA9F9DD3BB30D90F482CEEB4B1F SWAP5 SWAP4 POP POP POP POP JUMP JUMPDEST PUSH1 0x2 PUSH1 0x0 DUP3 DUP2 MSTORE PUSH1 0x20 DUP2 SWAP1 MSTORE PUSH1 0x40 SWAP1 KECCAK256 PUSH1 0x8 ADD SLOAD PUSH1 0xFF AND PUSH1 0x2 DUP2 GT ISZERO PUSH3 0x7B8 JUMPI PUSH3 0x7B8 PUSH3 0x1269 JUMP JUMPDEST EQ PUSH3 0x81B JUMPI PUSH1 0x40 MLOAD PUSH3 0x461BCD PUSH1 0xE5 SHL DUP2 MSTORE PUSH1 0x20 PUSH1 0x4 DUP3 ADD MSTORE PUSH1 0x2B PUSH1 0x24 DUP3 ADD MSTORE PUSH32 0x4672616374696F6E616C697A6564204E465420686173206E6F74206265656E20 PUSH1 0x44 DUP3 ADD MSTORE PUSH11 0x3137BAB3B43A1037BABA17 PUSH1 0xA9 SHL PUSH1 0x64 DUP3 ADD MSTORE PUSH1 0x84 ADD PUSH3 0x66B JUMP JUMPDEST PUSH1 0x0 DUP2 DUP2 MSTORE PUSH1 0x20 DUP2 SWAP1 MSTORE PUSH1 0x40 DUP1 DUP3 KECCAK256 PUSH1 0x3 ADD SLOAD SWAP1 MLOAD PUSH4 0x70A08231 PUSH1 0xE0 SHL DUP2 MSTORE CALLER PUSH1 0x4 DUP3 ADD MSTORE PUSH1 0x1 PUSH1 0x1 PUSH1 0xA0 SHL SUB SWAP1 SWAP2 AND SWAP2 SWAP1 DUP3 SWAP1 PUSH4 0x70A08231 SWAP1 PUSH1 0x24 ADD PUSH1 0x20 PUSH1 0x40 MLOAD DUP1 DUP4 SUB DUP2 DUP7 DUP1 EXTCODESIZE ISZERO DUP1 ISZERO PUSH3 0x871 JUMPI PUSH1 0x0 DUP1 REVERT JUMPDEST POP GAS STATICCALL ISZERO DUP1 ISZERO PUSH3 0x886 JUMPI RETURNDATASIZE PUSH1 0x0 DUP1 RETURNDATACOPY RETURNDATASIZE PUSH1 0x0 REVERT JUMPDEST POP POP POP POP PUSH1 0x40 MLOAD RETURNDATASIZE PUSH1 0x1F NOT PUSH1 0x1F DUP3 ADD AND DUP3 ADD DUP1 PUSH1 0x40 MSTORE POP DUP2 ADD SWAP1 PUSH3 0x8AC SWAP2 SWAP1 PUSH3 0x146F JUMP JUMPDEST SWAP1 POP PUSH1 0x0 DUP2 GT PUSH3 0x90A JUMPI PUSH1 0x40 MLOAD PUSH3 0x461BCD PUSH1 0xE5 SHL DUP2 MSTORE PUSH1 0x20 PUSH1 0x4 DUP3 ADD MSTORE PUSH1 0x21 PUSH1 0x24 DUP3 ADD MSTORE PUSH32 0x436C61696D657220646F6573206E6F7420686F6C6420616E7920746F6B656E73 PUSH1 0x44 DUP3 ADD MSTORE PUSH1 0x17 PUSH1 0xF9 SHL PUSH1 0x64 DUP3 ADD MSTORE PUSH1 0x84 ADD PUSH3 0x66B JUMP JUMPDEST PUSH1 0x40 MLOAD PUSH4 0x23B872DD PUSH1 0xE0 SHL DUP2 MSTORE PUSH1 0x1 PUSH1 0x1 PUSH1 0xA0 SHL SUB DUP4 AND SWAP1 PUSH4 0x23B872DD SWAP1 PUSH3 0x93C SWAP1 CALLER SWAP1 ADDRESS SWAP1 DUP7 SWAP1 PUSH1 0x4 ADD PUSH3 0x13B1 JUMP JUMPDEST PUSH1 0x20 PUSH1 0x40 MLOAD DUP1 DUP4 SUB DUP2 PUSH1 0x0 DUP8 DUP1 EXTCODESIZE ISZERO DUP1 ISZERO PUSH3 0x957 JUMPI PUSH1 0x0 DUP1 REVERT JUMPDEST POP GAS CALL ISZERO DUP1 ISZERO PUSH3 0x96C JUMPI RETURNDATASIZE PUSH1 0x0 DUP1 RETURNDATACOPY RETURNDATASIZE PUSH1 0x0 REVERT JUMPDEST POP POP POP POP PUSH1 0x40 MLOAD RETURNDATASIZE PUSH1 0x1F NOT PUSH1 0x1F DUP3 ADD AND DUP3 ADD DUP1 PUSH1 0x40 MSTORE POP DUP2 ADD SWAP1 PUSH3 0x992 SWAP2 SWAP1 PUSH3 0x1489 JUMP JUMPDEST POP PUSH1 0x0 DUP3 PUSH1 0x1 PUSH1 0x1 PUSH1 0xA0 SHL SUB AND PUSH4 0x18160DDD PUSH1 0x40 MLOAD DUP2 PUSH4 0xFFFFFFFF AND PUSH1 0xE0 SHL DUP2 MSTORE PUSH1 0x4 ADD PUSH1 0x20 PUSH1 0x40 MLOAD DUP1 DUP4 SUB DUP2 DUP7 DUP1 EXTCODESIZE ISZERO DUP1 ISZERO PUSH3 0x9CF JUMPI PUSH1 0x0 DUP1 REVERT JUMPDEST POP GAS STATICCALL ISZERO DUP1 ISZERO PUSH3 0x9E4 JUMPI RETURNDATASIZE PUSH1 0x0 DUP1 RETURNDATACOPY RETURNDATASIZE PUSH1 0x0 REVERT JUMPDEST POP POP POP POP PUSH1 0x40 MLOAD RETURNDATASIZE PUSH1 0x1F NOT PUSH1 0x1F DUP3 ADD AND DUP3 ADD DUP1 PUSH1 0x40 MSTORE POP DUP2 ADD SWAP1 PUSH3 0xA0A SWAP2 SWAP1 PUSH3 0x146F JUMP JUMPDEST PUSH1 0x0 DUP6 DUP2 MSTORE PUSH1 0x20 DUP2 SWAP1 MSTORE PUSH1 0x40 DUP2 KECCAK256 PUSH1 0x7 ADD SLOAD SWAP2 SWAP3 POP SWAP1 DUP3 SWAP1 PUSH3 0xA2F SWAP1 DUP6 SWAP1 PUSH3 0x14AD JUMP JUMPDEST PUSH3 0xA3B SWAP2 SWAP1 PUSH3 0x14CF JUMP JUMPDEST PUSH1 0x40 MLOAD SWAP1 SWAP2 POP CALLER SWAP1 DUP3 ISZERO PUSH2 0x8FC MUL SWAP1 DUP4 SWAP1 PUSH1 0x0 DUP2 DUP2 DUP2 DUP6 DUP9 DUP9 CALL SWAP4 POP POP POP POP ISZERO DUP1 ISZERO PUSH3 0xA6C JUMPI RETURNDATASIZE PUSH1 0x0 DUP1 RETURNDATACOPY RETURNDATASIZE PUSH1 0x0 REVERT JUMPDEST POP PUSH1 0x40 MLOAD DUP6 SWAP1 CALLER SWAP1 PUSH32 0xD8138F8A3F377C5259CA548E70E4C2DE94F129F5A11036A15B69513CBA2B426A SWAP1 PUSH1 0x0 SWAP1 LOG3 POP POP POP POP POP JUMP JUMPDEST PUSH1 0x2 DUP2 DUP2 SLOAD DUP2 LT PUSH3 0xAB2 JUMPI PUSH1 0x0 DUP1 REVERT JUMPDEST PUSH1 0x0 SWAP2 DUP3 MSTORE PUSH1 0x20 SWAP1 SWAP2 KECCAK256 ADD SLOAD SWAP1 POP DUP2 JUMP JUMPDEST PUSH1 0x0 DUP2 DUP2 MSTORE PUSH1 0x20 DUP2 SWAP1 MSTORE PUSH1 0x40 SWAP1 KECCAK256 PUSH1 0x4 ADD DUP1 SLOAD PUSH1 0x60 SWAP2 SWAP1 PUSH3 0xAE5 SWAP1 PUSH3 0x14F2 JUMP JUMPDEST DUP1 PUSH1 0x1F ADD PUSH1 0x20 DUP1 SWAP2 DIV MUL PUSH1 0x20 ADD PUSH1 0x40 MLOAD SWAP1 DUP2 ADD PUSH1 0x40 MSTORE DUP1 SWAP3 SWAP2 SWAP1 DUP2 DUP2 MSTORE PUSH1 0x20 ADD DUP3 DUP1 SLOAD PUSH3 0xB13 SWAP1 PUSH3 0x14F2 JUMP JUMPDEST DUP1 ISZERO PUSH3 0xB64 JUMPI DUP1 PUSH1 0x1F LT PUSH3 0xB38 JUMPI PUSH2 0x100 DUP1 DUP4 SLOAD DIV MUL DUP4 MSTORE SWAP2 PUSH1 0x20 ADD SWAP2 PUSH3 0xB64 JUMP JUMPDEST DUP3 ADD SWAP2 SWAP1 PUSH1 0x0 MSTORE PUSH1 0x20 PUSH1 0x0 KECCAK256 SWAP1 JUMPDEST DUP2 SLOAD DUP2 MSTORE SWAP1 PUSH1 0x1 ADD SWAP1 PUSH1 0x20 ADD DUP1 DUP4 GT PUSH3 0xB46 JUMPI DUP3 SWAP1 SUB PUSH1 0x1F AND DUP3 ADD SWAP2 JUMPDEST POP POP POP POP POP SWAP1 POP SWAP2 SWAP1 POP JUMP JUMPDEST PUSH1 0x0 PUSH1 0x20 DUP2 SWAP1 MSTORE SWAP1 DUP2 MSTORE PUSH1 0x40 SWAP1 KECCAK256 DUP1 SLOAD PUSH1 0x1 DUP3 ADD SLOAD PUSH1 0x2 DUP4 ADD SLOAD PUSH1 0x3 DUP5 ADD SLOAD PUSH1 0x4 DUP6 ADD DUP1 SLOAD SWAP5 SWAP6 SWAP4 SWAP5 PUSH1 0x1 PUSH1 0x1 PUSH1 0xA0 SHL SUB SWAP4 DUP5 AND SWAP5 SWAP3 SWAP1 SWAP4 AND SWAP3 PUSH3 0xBB5 SWAP1 PUSH3 0x14F2 JUMP JUMPDEST DUP1 PUSH1 0x1F ADD PUSH1 0x20 DUP1 SWAP2 DIV MUL PUSH1 0x20 ADD PUSH1 0x40 MLOAD SWAP1 DUP2 ADD PUSH1 0x40 MSTORE DUP1 SWAP3 SWAP2 SWAP1 DUP2 DUP2 MSTORE PUSH1 0x20 ADD DUP3 DUP1 SLOAD PUSH3 0xBE3 SWAP1 PUSH3 0x14F2 JUMP JUMPDEST DUP1 ISZERO PUSH3 0xC34 JUMPI DUP1 PUSH1 0x1F LT PUSH3 0xC08 JUMPI PUSH2 0x100 DUP1 DUP4 SLOAD DIV MUL DUP4 MSTORE SWAP2 PUSH1 0x20 ADD SWAP2 PUSH3 0xC34 JUMP JUMPDEST DUP3 ADD SWAP2 SWAP1 PUSH1 0x0 MSTORE PUSH1 0x20 PUSH1 0x0 KECCAK256 SWAP1 JUMPDEST DUP2 SLOAD DUP2 MSTORE SWAP1 PUSH1 0x1 ADD SWAP1 PUSH1 0x20 ADD DUP1 DUP4 GT PUSH3 0xC16 JUMPI DUP3 SWAP1 SUB PUSH1 0x1F AND DUP3 ADD SWAP2 JUMPDEST POP POP POP POP POP SWAP1 DUP1 PUSH1 0x5 ADD DUP1 SLOAD PUSH3 0xC4B SWAP1 PUSH3 0x14F2 JUMP JUMPDEST DUP1 PUSH1 0x1F ADD PUSH1 0x20 DUP1 SWAP2 DIV MUL PUSH1 0x20 ADD PUSH1 0x40 MLOAD SWAP1 DUP2 ADD PUSH1 0x40 MSTORE DUP1 SWAP3 SWAP2 SWAP1 DUP2 DUP2 MSTORE PUSH1 0x20 ADD DUP3 DUP1 SLOAD PUSH3 0xC79 SWAP1 PUSH3 0x14F2 JUMP JUMPDEST DUP1 ISZERO PUSH3 0xCCA JUMPI DUP1 PUSH1 0x1F LT PUSH3 0xC9E JUMPI PUSH2 0x100 DUP1 DUP4 SLOAD DIV MUL DUP4 MSTORE SWAP2 PUSH1 0x20 ADD SWAP2 PUSH3 0xCCA JUMP JUMPDEST DUP3 ADD SWAP2 SWAP1 PUSH1 0x0 MSTORE PUSH1 0x20 PUSH1 0x0 KECCAK256 SWAP1 JUMPDEST DUP2 SLOAD DUP2 MSTORE SWAP1 PUSH1 0x1 ADD SWAP1 PUSH1 0x20 ADD DUP1 DUP4 GT PUSH3 0xCAC JUMPI DUP3 SWAP1 SUB PUSH1 0x1F AND DUP3 ADD SWAP2 JUMPDEST POP POP POP POP PUSH1 0x6 DUP4 ADD SLOAD PUSH1 0x7 DUP5 ADD SLOAD PUSH1 0x8 SWAP1 SWAP5 ADD SLOAD SWAP3 SWAP4 PUSH1 0x1 PUSH1 0x1 PUSH1 0xA0 SHL SUB SWAP1 SWAP2 AND SWAP3 SWAP1 SWAP2 POP PUSH1 0xFF AND DUP10 JUMP JUMPDEST PUSH1 0x0 DUP2 DUP2 MSTORE PUSH1 0x20 DUP2 SWAP1 MSTORE PUSH1 0x40 DUP1 DUP3 KECCAK256 PUSH1 0x3 ADD SLOAD SWAP1 MLOAD PUSH4 0x70A08231 PUSH1 0xE0 SHL DUP2 MSTORE CALLER PUSH1 0x4 DUP3 ADD MSTORE PUSH1 0x1 PUSH1 0x1 PUSH1 0xA0 SHL SUB SWAP1 SWAP2 AND SWAP2 SWAP1 DUP3 SWAP1 PUSH4 0x70A08231 SWAP1 PUSH1 0x24 ADD PUSH1 0x20 PUSH1 0x40 MLOAD DUP1 DUP4 SUB DUP2 DUP7 DUP1 EXTCODESIZE ISZERO DUP1 ISZERO PUSH3 0xD4B JUMPI PUSH1 0x0 DUP1 REVERT JUMPDEST POP GAS STATICCALL ISZERO DUP1 ISZERO PUSH3 0xD60 JUMPI RETURNDATASIZE PUSH1 0x0 DUP1 RETURNDATACOPY RETURNDATASIZE PUSH1 0x0 REVERT JUMPDEST POP POP POP POP PUSH1 0x40 MLOAD RETURNDATASIZE PUSH1 0x1F NOT PUSH1 0x1F DUP3 ADD AND DUP3 ADD DUP1 PUSH1 0x40 MSTORE POP DUP2 ADD SWAP1 PUSH3 0xD86 SWAP2 SWAP1 PUSH3 0x146F JUMP JUMPDEST SWAP1 POP PUSH1 0x0 DUP3 PUSH1 0x1 PUSH1 0x1 PUSH1 0xA0 SHL SUB AND PUSH4 0x18160DDD PUSH1 0x40 MLOAD DUP2 PUSH4 0xFFFFFFFF AND PUSH1 0xE0 SHL DUP2 MSTORE PUSH1 0x4 ADD PUSH1 0x20 PUSH1 0x40 MLOAD DUP1 DUP4 SUB DUP2 DUP7 DUP1 EXTCODESIZE ISZERO DUP1 ISZERO PUSH3 0xDC4 JUMPI PUSH1 0x0 DUP1 REVERT JUMPDEST POP GAS STATICCALL ISZERO DUP1 ISZERO PUSH3 0xDD9 JUMPI RETURNDATASIZE PUSH1 0x0 DUP1 RETURNDATACOPY RETURNDATASIZE PUSH1 0x0 REVERT JUMPDEST POP POP POP POP PUSH1 0x40 MLOAD RETURNDATASIZE PUSH1 0x1F NOT PUSH1 0x1F DUP3 ADD AND DUP3 ADD DUP1 PUSH1 0x40 MSTORE POP DUP2 ADD SWAP1 PUSH3 0xDFF SWAP2 SWAP1 PUSH3 0x146F JUMP JUMPDEST SWAP1 POP DUP1 DUP3 EQ PUSH3 0xE65 JUMPI PUSH1 0x40 MLOAD PUSH3 0x461BCD PUSH1 0xE5 SHL DUP2 MSTORE PUSH1 0x20 PUSH1 0x4 DUP3 ADD MSTORE PUSH1 0x2A PUSH1 0x24 DUP3 ADD MSTORE PUSH32 0x52656465656D65657220646F6573206E6F7420686F6C642074686520656E7469 PUSH1 0x44 DUP3 ADD MSTORE PUSH10 0x39329039BAB838363C97 PUSH1 0xB1 SHL PUSH1 0x64 DUP3 ADD MSTORE PUSH1 0x84 ADD PUSH3 0x66B JUMP JUMPDEST PUSH1 0x40 MLOAD PUSH4 0x23B872DD PUSH1 0xE0 SHL DUP2 MSTORE PUSH1 0x1 PUSH1 0x1 PUSH1 0xA0 SHL SUB DUP5 AND SWAP1 PUSH4 0x23B872DD SWAP1 PUSH3 0xE97 SWAP1 CALLER SWAP1 ADDRESS SWAP1 DUP8 SWAP1 PUSH1 0x4 ADD PUSH3 0x13B1 JUMP JUMPDEST PUSH1 0x20 PUSH1 0x40 MLOAD DUP1 DUP4 SUB DUP2 PUSH1 0x0 DUP8 DUP1 EXTCODESIZE ISZERO DUP1 ISZERO PUSH3 0xEB2 JUMPI PUSH1 0x0 DUP1 REVERT JUMPDEST POP GAS CALL ISZERO DUP1 ISZERO PUSH3 0xEC7 JUMPI RETURNDATASIZE PUSH1 0x0 DUP1 RETURNDATACOPY RETURNDATASIZE PUSH1 0x0 REVERT JUMPDEST POP POP POP POP PUSH1 0x40 MLOAD RETURNDATASIZE PUSH1 0x1F NOT PUSH1 0x1F DUP3 ADD AND DUP3 ADD DUP1 PUSH1 0x40 MSTORE POP DUP2 ADD SWAP1 PUSH3 0xEED SWAP2 SWAP1 PUSH3 0x1489 JUMP JUMPDEST POP PUSH1 0x0 DUP5 DUP2 MSTORE PUSH1 0x20 DUP2 SWAP1 MSTORE PUSH1 0x40 SWAP1 DUP2 SWAP1 KECCAK256 PUSH1 0x2 DUP2 ADD SLOAD PUSH1 0x1 SWAP1 SWAP2 ADD SLOAD SWAP2 MLOAD PUSH4 0x21421707 PUSH1 0xE1 SHL DUP2 MSTORE PUSH1 0x1 PUSH1 0x1 PUSH1 0xA0 SHL SUB SWAP1 SWAP2 AND SWAP2 DUP3 SWAP2 PUSH4 0x42842E0E SWAP2 PUSH3 0xF3B SWAP2 ADDRESS SWAP2 CALLER SWAP2 PUSH1 0x4 ADD PUSH3 0x13B1 JUMP JUMPDEST PUSH1 0x0 PUSH1 0x40 MLOAD DUP1 DUP4 SUB DUP2 PUSH1 0x0 DUP8 DUP1 EXTCODESIZE ISZERO DUP1 ISZERO PUSH3 0xF56 JUMPI PUSH1 0x0 DUP1 REVERT JUMPDEST POP GAS CALL ISZERO DUP1 ISZERO PUSH3 0xF6B JUMPI RETURNDATASIZE PUSH1 0x0 DUP1 RETURNDATACOPY RETURNDATASIZE PUSH1 0x0 REVERT JUMPDEST POP POP PUSH1 0x40 MLOAD DUP8 SWAP3 POP CALLER SWAP2 POP PUSH32 0x4896181FF8F4543CC00DB9FE9B6FB7E6F032B7EB772C72AB1EC1B4D2E03B9369 SWAP1 PUSH1 0x0 SWAP1 LOG3 POP POP POP POP POP JUMP JUMPDEST PUSH2 0xCAA DUP1 PUSH3 0x1530 DUP4 CODECOPY ADD SWAP1 JUMP JUMPDEST DUP3 DUP1 SLOAD PUSH3 0xFBF SWAP1 PUSH3 0x14F2 JUMP JUMPDEST SWAP1 PUSH1 0x0 MSTORE PUSH1 0x20 PUSH1 0x0 KECCAK256 SWAP1 PUSH1 0x1F ADD PUSH1 0x20 SWAP1 DIV DUP2 ADD SWAP3 DUP3 PUSH3 0xFE3 JUMPI PUSH1 0x0 DUP6 SSTORE PUSH3 0x102E JUMP JUMPDEST DUP3 PUSH1 0x1F LT PUSH3 0xFFE JUMPI DUP1 MLOAD PUSH1 0xFF NOT AND DUP4 DUP1 ADD OR DUP6 SSTORE PUSH3 0x102E JUMP JUMPDEST DUP3 DUP1 ADD PUSH1 0x1 ADD DUP6 SSTORE DUP3 ISZERO PUSH3 0x102E JUMPI SWAP2 DUP3 ADD JUMPDEST DUP3 DUP2 GT ISZERO PUSH3 0x102E JUMPI DUP3 MLOAD DUP3 SSTORE SWAP2 PUSH1 0x20 ADD SWAP2 SWAP1 PUSH1 0x1 ADD SWAP1 PUSH3 0x1011 JUMP JUMPDEST POP PUSH3 0x103C SWAP3 SWAP2 POP PUSH3 0x1040 JUMP JUMPDEST POP SWAP1 JUMP JUMPDEST JUMPDEST DUP1 DUP3 GT ISZERO PUSH3 0x103C JUMPI PUSH1 0x0 DUP2 SSTORE PUSH1 0x1 ADD PUSH3 0x1041 JUMP JUMPDEST DUP1 CALLDATALOAD PUSH1 0x1 PUSH1 0x1 PUSH1 0xA0 SHL SUB DUP2 AND DUP2 EQ PUSH3 0x106F JUMPI PUSH1 0x0 DUP1 REVERT JUMPDEST SWAP2 SWAP1 POP JUMP JUMPDEST PUSH4 0x4E487B71 PUSH1 0xE0 SHL PUSH1 0x0 MSTORE PUSH1 0x41 PUSH1 0x4 MSTORE PUSH1 0x24 PUSH1 0x0 REVERT JUMPDEST PUSH1 0x0 PUSH8 0xFFFFFFFFFFFFFFFF DUP1 DUP5 GT ISZERO PUSH3 0x10A8 JUMPI PUSH3 0x10A8 PUSH3 0x1074 JUMP JUMPDEST PUSH1 0x40 MLOAD PUSH1 0x1F DUP6 ADD PUSH1 0x1F NOT SWAP1 DUP2 AND PUSH1 0x3F ADD AND DUP2 ADD SWAP1 DUP3 DUP3 GT DUP2 DUP4 LT OR ISZERO PUSH3 0x10D3 JUMPI PUSH3 0x10D3 PUSH3 0x1074 JUMP JUMPDEST DUP2 PUSH1 0x40 MSTORE DUP1 SWAP4 POP DUP6 DUP2 MSTORE DUP7 DUP7 DUP7 ADD GT ISZERO PUSH3 0x10ED JUMPI PUSH1 0x0 DUP1 REVERT JUMPDEST DUP6 DUP6 PUSH1 0x20 DUP4 ADD CALLDATACOPY PUSH1 0x0 PUSH1 0x20 DUP8 DUP4 ADD ADD MSTORE POP POP POP SWAP4 SWAP3 POP POP POP JUMP JUMPDEST PUSH1 0x0 DUP3 PUSH1 0x1F DUP4 ADD SLT PUSH3 0x1119 JUMPI PUSH1 0x0 DUP1 REVERT JUMPDEST PUSH3 0x112A DUP4 DUP4 CALLDATALOAD PUSH1 0x20 DUP6 ADD PUSH3 0x108A JUMP JUMPDEST SWAP4 SWAP3 POP POP POP JUMP JUMPDEST PUSH1 0x0 DUP1 PUSH1 0x0 DUP1 PUSH1 0x0 DUP1 PUSH1 0xC0 DUP8 DUP10 SUB SLT ISZERO PUSH3 0x114B JUMPI PUSH1 0x0 DUP1 REVERT JUMPDEST PUSH3 0x1156 DUP8 PUSH3 0x1057 JUMP JUMPDEST SWAP6 POP PUSH1 0x20 DUP8 ADD CALLDATALOAD SWAP5 POP PUSH1 0x40 DUP8 ADD CALLDATALOAD PUSH8 0xFFFFFFFFFFFFFFFF DUP1 DUP3 GT ISZERO PUSH3 0x117B JUMPI PUSH1 0x0 DUP1 REVERT JUMPDEST PUSH3 0x1189 DUP11 DUP4 DUP12 ADD PUSH3 0x1107 JUMP JUMPDEST SWAP6 POP PUSH1 0x60 DUP10 ADD CALLDATALOAD SWAP2 POP DUP1 DUP3 GT ISZERO PUSH3 0x11A0 JUMPI PUSH1 0x0 DUP1 REVERT JUMPDEST POP PUSH3 0x11AF DUP10 DUP3 DUP11 ADD PUSH3 0x1107 JUMP JUMPDEST SWAP4 POP POP PUSH1 0x80 DUP8 ADD CALLDATALOAD SWAP2 POP PUSH1 0xA0 DUP8 ADD CALLDATALOAD SWAP1 POP SWAP3 SWAP6 POP SWAP3 SWAP6 POP SWAP3 SWAP6 JUMP JUMPDEST PUSH1 0x0 PUSH1 0x20 DUP3 DUP5 SUB SLT ISZERO PUSH3 0x11DD JUMPI PUSH1 0x0 DUP1 REVERT JUMPDEST POP CALLDATALOAD SWAP2 SWAP1 POP JUMP JUMPDEST PUSH1 0x0 DUP1 PUSH1 0x0 DUP1 PUSH1 0x80 DUP6 DUP8 SUB SLT ISZERO PUSH3 0x11FB JUMPI PUSH1 0x0 DUP1 REVERT JUMPDEST PUSH3 0x1206 DUP6 PUSH3 0x1057 JUMP JUMPDEST SWAP4 POP PUSH3 0x1216 PUSH1 0x20 DUP7 ADD PUSH3 0x1057 JUMP JUMPDEST SWAP3 POP PUSH1 0x40 DUP6 ADD CALLDATALOAD SWAP2 POP PUSH1 0x60 DUP6 ADD CALLDATALOAD PUSH8 0xFFFFFFFFFFFFFFFF DUP2 GT ISZERO PUSH3 0x123A JUMPI PUSH1 0x0 DUP1 REVERT JUMPDEST DUP6 ADD PUSH1 0x1F DUP2 ADD DUP8 SGT PUSH3 0x124C JUMPI PUSH1 0x0 DUP1 REVERT JUMPDEST PUSH3 0x125D DUP8 DUP3 CALLDATALOAD PUSH1 0x20 DUP5 ADD PUSH3 0x108A JUMP JUMPDEST SWAP2 POP POP SWAP3 SWAP6 SWAP2 SWAP5 POP SWAP3 POP JUMP JUMPDEST PUSH4 0x4E487B71 PUSH1 0xE0 SHL PUSH1 0x0 MSTORE PUSH1 0x21 PUSH1 0x4 MSTORE PUSH1 0x24 PUSH1 0x0 REVERT JUMPDEST PUSH1 0x3 DUP2 LT PUSH3 0x129E JUMPI PUSH4 0x4E487B71 PUSH1 0xE0 SHL PUSH1 0x0 MSTORE PUSH1 0x21 PUSH1 0x4 MSTORE PUSH1 0x24 PUSH1 0x0 REVERT JUMPDEST SWAP1 MSTORE JUMP JUMPDEST PUSH1 0x20 DUP2 ADD PUSH3 0x12B2 DUP3 DUP5 PUSH3 0x127F JUMP JUMPDEST SWAP3 SWAP2 POP POP JUMP JUMPDEST PUSH1 0x0 JUMPDEST DUP4 DUP2 LT ISZERO PUSH3 0x12D5 JUMPI DUP2 DUP2 ADD MLOAD DUP4 DUP3 ADD MSTORE PUSH1 0x20 ADD PUSH3 0x12BB JUMP JUMPDEST DUP4 DUP2 GT ISZERO PUSH3 0x12E5 JUMPI PUSH1 0x0 DUP5 DUP5 ADD MSTORE JUMPDEST POP POP POP POP JUMP JUMPDEST PUSH1 0x0 DUP2 MLOAD DUP1 DUP5 MSTORE PUSH3 0x1305 DUP2 PUSH1 0x20 DUP7 ADD PUSH1 0x20 DUP7 ADD PUSH3 0x12B8 JUMP JUMPDEST PUSH1 0x1F ADD PUSH1 0x1F NOT AND SWAP3 SWAP1 SWAP3 ADD PUSH1 0x20 ADD SWAP3 SWAP2 POP POP JUMP JUMPDEST PUSH1 0x20 DUP2 MSTORE PUSH1 0x0 PUSH3 0x112A PUSH1 0x20 DUP4 ADD DUP5 PUSH3 0x12EB JUMP JUMPDEST DUP10 DUP2 MSTORE PUSH1 0x20 DUP2 ADD DUP10 SWAP1 MSTORE PUSH1 0x1 PUSH1 0x1 PUSH1 0xA0 SHL SUB DUP9 DUP2 AND PUSH1 0x40 DUP4 ADD MSTORE DUP8 DUP2 AND PUSH1 0x60 DUP4 ADD MSTORE PUSH2 0x120 PUSH1 0x80 DUP4 ADD DUP2 SWAP1 MSTORE PUSH1 0x0 SWAP2 PUSH3 0x136B DUP5 DUP4 ADD DUP11 PUSH3 0x12EB JUMP JUMPDEST SWAP2 POP DUP4 DUP3 SUB PUSH1 0xA0 DUP6 ADD MSTORE PUSH3 0x1381 DUP3 DUP10 PUSH3 0x12EB JUMP JUMPDEST SWAP3 POP DUP1 DUP8 AND PUSH1 0xC0 DUP6 ADD MSTORE POP POP DUP4 PUSH1 0xE0 DUP4 ADD MSTORE PUSH3 0x13A3 PUSH2 0x100 DUP4 ADD DUP5 PUSH3 0x127F JUMP JUMPDEST SWAP11 SWAP10 POP POP POP POP POP POP POP POP POP POP JUMP JUMPDEST PUSH1 0x1 PUSH1 0x1 PUSH1 0xA0 SHL SUB SWAP4 DUP5 AND DUP2 MSTORE SWAP2 SWAP1 SWAP3 AND PUSH1 0x20 DUP3 ADD MSTORE PUSH1 0x40 DUP2 ADD SWAP2 SWAP1 SWAP2 MSTORE PUSH1 0x60 ADD SWAP1 JUMP JUMPDEST PUSH1 0x80 DUP2 MSTORE PUSH1 0x0 PUSH3 0x13EA PUSH1 0x80 DUP4 ADD DUP8 PUSH3 0x12EB JUMP JUMPDEST DUP3 DUP2 SUB PUSH1 0x20 DUP5 ADD MSTORE PUSH3 0x13FE DUP2 DUP8 PUSH3 0x12EB JUMP JUMPDEST PUSH1 0x40 DUP5 ADD SWAP6 SWAP1 SWAP6 MSTORE POP POP PUSH1 0x1 PUSH1 0x1 PUSH1 0xA0 SHL SUB SWAP2 SWAP1 SWAP2 AND PUSH1 0x60 SWAP1 SWAP2 ADD MSTORE SWAP3 SWAP2 POP POP JUMP JUMPDEST PUSH4 0x4E487B71 PUSH1 0xE0 SHL PUSH1 0x0 MSTORE PUSH1 0x11 PUSH1 0x4 MSTORE PUSH1 0x24 PUSH1 0x0 REVERT JUMPDEST PUSH1 0x0 DUP3 NOT DUP3 GT ISZERO PUSH3 0x144C JUMPI PUSH3 0x144C PUSH3 0x1420 JUMP JUMPDEST POP ADD SWAP1 JUMP JUMPDEST PUSH1 0x0 DUP3 MLOAD PUSH3 0x1465 DUP2 DUP5 PUSH1 0x20 DUP8 ADD PUSH3 0x12B8 JUMP JUMPDEST SWAP2 SWAP1 SWAP2 ADD SWAP3 SWAP2 POP POP JUMP JUMPDEST PUSH1 0x0 PUSH1 0x20 DUP3 DUP5 SUB SLT ISZERO PUSH3 0x1482 JUMPI PUSH1 0x0 DUP1 REVERT JUMPDEST POP MLOAD SWAP2 SWAP1 POP JUMP JUMPDEST PUSH1 0x0 PUSH1 0x20 DUP3 DUP5 SUB SLT ISZERO PUSH3 0x149C JUMPI PUSH1 0x0 DUP1 REVERT JUMPDEST DUP2 MLOAD DUP1 ISZERO ISZERO DUP2 EQ PUSH3 0x112A JUMPI PUSH1 0x0 DUP1 REVERT JUMPDEST PUSH1 0x0 DUP2 PUSH1 0x0 NOT DIV DUP4 GT DUP3 ISZERO ISZERO AND ISZERO PUSH3 0x14CA JUMPI PUSH3 0x14CA PUSH3 0x1420 JUMP JUMPDEST POP MUL SWAP1 JUMP JUMPDEST PUSH1 0x0 DUP3 PUSH3 0x14ED JUMPI PUSH4 0x4E487B71 PUSH1 0xE0 SHL PUSH1 0x0 MSTORE PUSH1 0x12 PUSH1 0x4 MSTORE PUSH1 0x24 PUSH1 0x0 REVERT JUMPDEST POP DIV SWAP1 JUMP JUMPDEST PUSH1 0x1 DUP2 DUP2 SHR SWAP1 DUP3 AND DUP1 PUSH3 0x1507 JUMPI PUSH1 0x7F DUP3 AND SWAP2 POP JUMPDEST PUSH1 0x20 DUP3 LT DUP2 EQ ISZERO PUSH3 0x1529 JUMPI PUSH4 0x4E487B71 PUSH1 0xE0 SHL PUSH1 0x0 MSTORE PUSH1 0x22 PUSH1 0x4 MSTORE PUSH1 0x24 PUSH1 0x0 REVERT JUMPDEST POP SWAP2 SWAP1 POP JUMP INVALID PUSH1 0x80 PUSH1 0x40 MSTORE CALLVALUE DUP1 ISZERO PUSH3 0x11 JUMPI PUSH1 0x0 DUP1 REVERT JUMPDEST POP PUSH1 0x40 MLOAD PUSH3 0xCAA CODESIZE SUB DUP1 PUSH3 0xCAA DUP4 CODECOPY DUP2 ADD PUSH1 0x40 DUP2 SWAP1 MSTORE PUSH3 0x34 SWAP2 PUSH3 0x2DD JUMP JUMPDEST DUP4 MLOAD DUP5 SWAP1 DUP5 SWAP1 PUSH3 0x4D SWAP1 PUSH1 0x3 SWAP1 PUSH1 0x20 DUP6 ADD SWAP1 PUSH3 0x16A JUMP JUMPDEST POP DUP1 MLOAD PUSH3 0x63 SWAP1 PUSH1 0x4 SWAP1 PUSH1 0x20 DUP5 ADD SWAP1 PUSH3 0x16A JUMP JUMPDEST POP POP POP PUSH3 0x78 DUP2 DUP4 PUSH3 0x82 PUSH1 0x20 SHL PUSH1 0x20 SHR JUMP JUMPDEST POP POP POP POP PUSH3 0x3D6 JUMP JUMPDEST PUSH1 0x1 PUSH1 0x1 PUSH1 0xA0 SHL SUB DUP3 AND PUSH3 0xDD JUMPI PUSH1 0x40 MLOAD PUSH3 0x461BCD PUSH1 0xE5 SHL DUP2 MSTORE PUSH1 0x20 PUSH1 0x4 DUP3 ADD MSTORE PUSH1 0x1F PUSH1 0x24 DUP3 ADD MSTORE PUSH32 0x45524332303A206D696E7420746F20746865207A65726F206164647265737300 PUSH1 0x44 DUP3 ADD MSTORE PUSH1 0x64 ADD PUSH1 0x40 MLOAD DUP1 SWAP2 SUB SWAP1 REVERT JUMPDEST DUP1 PUSH1 0x2 PUSH1 0x0 DUP3 DUP3 SLOAD PUSH3 0xF1 SWAP2 SWAP1 PUSH3 0x372 JUMP JUMPDEST SWAP1 SWAP2 SSTORE POP POP PUSH1 0x1 PUSH1 0x1 PUSH1 0xA0 SHL SUB DUP3 AND PUSH1 0x0 SWAP1 DUP2 MSTORE PUSH1 0x20 DUP2 SWAP1 MSTORE PUSH1 0x40 DUP2 KECCAK256 DUP1 SLOAD DUP4 SWAP3 SWAP1 PUSH3 0x120 SWAP1 DUP5 SWAP1 PUSH3 0x372 JUMP JUMPDEST SWAP1 SWAP2 SSTORE POP POP PUSH1 0x40 MLOAD DUP2 DUP2 MSTORE PUSH1 0x1 PUSH1 0x1 PUSH1 0xA0 SHL SUB DUP4 AND SWAP1 PUSH1 0x0 SWAP1 PUSH32 0xDDF252AD1BE2C89B69C2B068FC378DAA952BA7F163C4A11628F55A4DF523B3EF SWAP1 PUSH1 0x20 ADD PUSH1 0x40 MLOAD DUP1 SWAP2 SUB SWAP1 LOG3 POP POP JUMP JUMPDEST DUP3 DUP1 SLOAD PUSH3 0x178 SWAP1 PUSH3 0x399 JUMP JUMPDEST SWAP1 PUSH1 0x0 MSTORE PUSH1 0x20 PUSH1 0x0 KECCAK256 SWAP1 PUSH1 0x1F ADD PUSH1 0x20 SWAP1 DIV DUP2 ADD SWAP3 DUP3 PUSH3 0x19C JUMPI PUSH1 0x0 DUP6 SSTORE PUSH3 0x1E7 JUMP JUMPDEST DUP3 PUSH1 0x1F LT PUSH3 0x1B7 JUMPI DUP1 MLOAD PUSH1 0xFF NOT AND DUP4 DUP1 ADD OR DUP6 SSTORE PUSH3 0x1E7 JUMP JUMPDEST DUP3 DUP1 ADD PUSH1 0x1 ADD DUP6 SSTORE DUP3 ISZERO PUSH3 0x1E7 JUMPI SWAP2 DUP3 ADD JUMPDEST DUP3 DUP2 GT ISZERO PUSH3 0x1E7 JUMPI DUP3 MLOAD DUP3 SSTORE SWAP2 PUSH1 0x20 ADD SWAP2 SWAP1 PUSH1 0x1 ADD SWAP1 PUSH3 0x1CA JUMP JUMPDEST POP PUSH3 0x1F5 SWAP3 SWAP2 POP PUSH3 0x1F9 JUMP JUMPDEST POP SWAP1 JUMP JUMPDEST JUMPDEST DUP1 DUP3 GT ISZERO PUSH3 0x1F5 JUMPI PUSH1 0x0 DUP2 SSTORE PUSH1 0x1 ADD PUSH3 0x1FA JUMP JUMPDEST PUSH4 0x4E487B71 PUSH1 0xE0 SHL PUSH1 0x0 MSTORE PUSH1 0x41 PUSH1 0x4 MSTORE PUSH1 0x24 PUSH1 0x0 REVERT JUMPDEST PUSH1 0x0 DUP3 PUSH1 0x1F DUP4 ADD SLT PUSH3 0x238 JUMPI PUSH1 0x0 DUP1 REVERT JUMPDEST DUP2 MLOAD PUSH1 0x1 PUSH1 0x1 PUSH1 0x40 SHL SUB DUP1 DUP3 GT ISZERO PUSH3 0x255 JUMPI PUSH3 0x255 PUSH3 0x210 JUMP JUMPDEST PUSH1 0x40 MLOAD PUSH1 0x1F DUP4 ADD PUSH1 0x1F NOT SWAP1 DUP2 AND PUSH1 0x3F ADD AND DUP2 ADD SWAP1 DUP3 DUP3 GT DUP2 DUP4 LT OR ISZERO PUSH3 0x280 JUMPI PUSH3 0x280 PUSH3 0x210 JUMP JUMPDEST DUP2 PUSH1 0x40 MSTORE DUP4 DUP2 MSTORE PUSH1 0x20 SWAP3 POP DUP7 DUP4 DUP6 DUP9 ADD ADD GT ISZERO PUSH3 0x29D JUMPI PUSH1 0x0 DUP1 REVERT JUMPDEST PUSH1 0x0 SWAP2 POP JUMPDEST DUP4 DUP3 LT ISZERO PUSH3 0x2C1 JUMPI DUP6 DUP3 ADD DUP4 ADD MLOAD DUP2 DUP4 ADD DUP5 ADD MSTORE SWAP1 DUP3 ADD SWAP1 PUSH3 0x2A2 JUMP JUMPDEST DUP4 DUP3 GT ISZERO PUSH3 0x2D3 JUMPI PUSH1 0x0 DUP4 DUP6 DUP4 ADD ADD MSTORE JUMPDEST SWAP7 SWAP6 POP POP POP POP POP POP JUMP JUMPDEST PUSH1 0x0 DUP1 PUSH1 0x0 DUP1 PUSH1 0x80 DUP6 DUP8 SUB SLT ISZERO PUSH3 0x2F4 JUMPI PUSH1 0x0 DUP1 REVERT JUMPDEST DUP5 MLOAD PUSH1 0x1 PUSH1 0x1 PUSH1 0x40 SHL SUB DUP1 DUP3 GT ISZERO PUSH3 0x30C JUMPI PUSH1 0x0 DUP1 REVERT JUMPDEST PUSH3 0x31A DUP9 DUP4 DUP10 ADD PUSH3 0x226 JUMP JUMPDEST SWAP6 POP PUSH1 0x20 DUP8 ADD MLOAD SWAP2 POP DUP1 DUP3 GT ISZERO PUSH3 0x331 JUMPI PUSH1 0x0 DUP1 REVERT JUMPDEST POP PUSH3 0x340 DUP8 DUP3 DUP9 ADD PUSH3 0x226 JUMP JUMPDEST PUSH1 0x40 DUP8 ADD MLOAD PUSH1 0x60 DUP9 ADD MLOAD SWAP2 SWAP6 POP SWAP4 POP SWAP1 POP PUSH1 0x1 PUSH1 0x1 PUSH1 0xA0 SHL SUB DUP2 AND DUP2 EQ PUSH3 0x367 JUMPI PUSH1 0x0 DUP1 REVERT JUMPDEST SWAP4 SWAP7 SWAP3 SWAP6 POP SWAP1 SWAP4 POP POP JUMP JUMPDEST PUSH1 0x0 DUP3 NOT DUP3 GT ISZERO PUSH3 0x394 JUMPI PUSH4 0x4E487B71 PUSH1 0xE0 SHL PUSH1 0x0 MSTORE PUSH1 0x11 PUSH1 0x4 MSTORE PUSH1 0x24 PUSH1 0x0 REVERT JUMPDEST POP ADD SWAP1 JUMP JUMPDEST PUSH1 0x1 DUP2 DUP2 SHR SWAP1 DUP3 AND DUP1 PUSH3 0x3AE JUMPI PUSH1 0x7F DUP3 AND SWAP2 POP JUMPDEST PUSH1 0x20 DUP3 LT DUP2 EQ ISZERO PUSH3 0x3D0 JUMPI PUSH4 0x4E487B71 PUSH1 0xE0 SHL PUSH1 0x0 MSTORE PUSH1 0x22 PUSH1 0x4 MSTORE PUSH1 0x24 PUSH1 0x0 REVERT JUMPDEST POP SWAP2 SWAP1 POP JUMP JUMPDEST PUSH2 0x8C4 DUP1 PUSH3 0x3E6 PUSH1 0x0 CODECOPY PUSH1 0x0 RETURN INVALID PUSH1 0x80 PUSH1 0x40 MSTORE CALLVALUE DUP1 ISZERO PUSH2 0x10 JUMPI PUSH1 0x0 DUP1 REVERT JUMPDEST POP PUSH1 0x4 CALLDATASIZE LT PUSH2 0xA9 JUMPI PUSH1 0x0 CALLDATALOAD PUSH1 0xE0 SHR DUP1 PUSH4 0x39509351 GT PUSH2 0x71 JUMPI DUP1 PUSH4 0x39509351 EQ PUSH2 0x123 JUMPI DUP1 PUSH4 0x70A08231 EQ PUSH2 0x136 JUMPI DUP1 PUSH4 0x95D89B41 EQ PUSH2 0x15F JUMPI DUP1 PUSH4 0xA457C2D7 EQ PUSH2 0x167 JUMPI DUP1 PUSH4 0xA9059CBB EQ PUSH2 0x17A JUMPI DUP1 PUSH4 0xDD62ED3E EQ PUSH2 0x18D JUMPI PUSH1 0x0 DUP1 REVERT JUMPDEST DUP1 PUSH4 0x6FDDE03 EQ PUSH2 0xAE JUMPI DUP1 PUSH4 0x95EA7B3 EQ PUSH2 0xCC JUMPI DUP1 PUSH4 0x18160DDD EQ PUSH2 0xEF JUMPI DUP1 PUSH4 0x23B872DD EQ PUSH2 0x101 JUMPI DUP1 PUSH4 0x313CE567 EQ PUSH2 0x114 JUMPI JUMPDEST PUSH1 0x0 DUP1 REVERT JUMPDEST PUSH2 0xB6 PUSH2 0x1C6 JUMP JUMPDEST PUSH1 0x40 MLOAD PUSH2 0xC3 SWAP2 SWAP1 PUSH2 0x701 JUMP JUMPDEST PUSH1 0x40 MLOAD DUP1 SWAP2 SUB SWAP1 RETURN JUMPDEST PUSH2 0xDF PUSH2 0xDA CALLDATASIZE PUSH1 0x4 PUSH2 0x772 JUMP JUMPDEST PUSH2 0x258 JUMP JUMPDEST PUSH1 0x40 MLOAD SWAP1 ISZERO ISZERO DUP2 MSTORE PUSH1 0x20 ADD PUSH2 0xC3 JUMP JUMPDEST PUSH1 0x2 SLOAD JUMPDEST PUSH1 0x40 MLOAD SWAP1 DUP2 MSTORE PUSH1 0x20 ADD PUSH2 0xC3 JUMP JUMPDEST PUSH2 0xDF PUSH2 0x10F CALLDATASIZE PUSH1 0x4 PUSH2 0x79C JUMP JUMPDEST PUSH2 0x26E JUMP JUMPDEST PUSH1 0x40 MLOAD PUSH1 0x12 DUP2 MSTORE PUSH1 0x20 ADD PUSH2 0xC3 JUMP JUMPDEST PUSH2 0xDF PUSH2 0x131 CALLDATASIZE PUSH1 0x4 PUSH2 0x772 JUMP JUMPDEST PUSH2 0x31D JUMP JUMPDEST PUSH2 0xF3 PUSH2 0x144 CALLDATASIZE PUSH1 0x4 PUSH2 0x7D8 JUMP JUMPDEST PUSH1 0x1 PUSH1 0x1 PUSH1 0xA0 SHL SUB AND PUSH1 0x0 SWAP1 DUP2 MSTORE PUSH1 0x20 DUP2 SWAP1 MSTORE PUSH1 0x40 SWAP1 KECCAK256 SLOAD SWAP1 JUMP JUMPDEST PUSH2 0xB6 PUSH2 0x359 JUMP JUMPDEST PUSH2 0xDF PUSH2 0x175 CALLDATASIZE PUSH1 0x4 PUSH2 0x772 JUMP JUMPDEST PUSH2 0x368 JUMP JUMPDEST PUSH2 0xDF PUSH2 0x188 CALLDATASIZE PUSH1 0x4 PUSH2 0x772 JUMP JUMPDEST PUSH2 0x401 JUMP JUMPDEST PUSH2 0xF3 PUSH2 0x19B CALLDATASIZE PUSH1 0x4 PUSH2 0x7FA JUMP JUMPDEST PUSH1 0x1 PUSH1 0x1 PUSH1 0xA0 SHL SUB SWAP2 DUP3 AND PUSH1 0x0 SWAP1 DUP2 MSTORE PUSH1 0x1 PUSH1 0x20 SWAP1 DUP2 MSTORE PUSH1 0x40 DUP1 DUP4 KECCAK256 SWAP4 SWAP1 SWAP5 AND DUP3 MSTORE SWAP2 SWAP1 SWAP2 MSTORE KECCAK256 SLOAD SWAP1 JUMP JUMPDEST PUSH1 0x60 PUSH1 0x3 DUP1 SLOAD PUSH2 0x1D5 SWAP1 PUSH2 0x82D JUMP JUMPDEST DUP1 PUSH1 0x1F ADD PUSH1 0x20 DUP1 SWAP2 DIV MUL PUSH1 0x20 ADD PUSH1 0x40 MLOAD SWAP1 DUP2 ADD PUSH1 0x40 MSTORE DUP1 SWAP3 SWAP2 SWAP1 DUP2 DUP2 MSTORE PUSH1 0x20 ADD DUP3 DUP1 SLOAD PUSH2 0x201 SWAP1 PUSH2 0x82D JUMP JUMPDEST DUP1 ISZERO PUSH2 0x24E JUMPI DUP1 PUSH1 0x1F LT PUSH2 0x223 JUMPI PUSH2 0x100 DUP1 DUP4 SLOAD DIV MUL DUP4 MSTORE SWAP2 PUSH1 0x20 ADD SWAP2 PUSH2 0x24E JUMP JUMPDEST DUP3 ADD SWAP2 SWAP1 PUSH1 0x0 MSTORE PUSH1 0x20 PUSH1 0x0 KECCAK256 SWAP1 JUMPDEST DUP2 SLOAD DUP2 MSTORE SWAP1 PUSH1 0x1 ADD SWAP1 PUSH1 0x20 ADD DUP1 DUP4 GT PUSH2 0x231 JUMPI DUP3 SWAP1 SUB PUSH1 0x1F AND DUP3 ADD SWAP2 JUMPDEST POP POP POP POP POP SWAP1 POP SWAP1 JUMP JUMPDEST PUSH1 0x0 PUSH2 0x265 CALLER DUP5 DUP5 PUSH2 0x40E JUMP JUMPDEST POP PUSH1 0x1 SWAP3 SWAP2 POP POP JUMP JUMPDEST PUSH1 0x0 PUSH2 0x27B DUP5 DUP5 DUP5 PUSH2 0x532 JUMP JUMPDEST PUSH1 0x1 PUSH1 0x1 PUSH1 0xA0 SHL SUB DUP5 AND PUSH1 0x0 SWAP1 DUP2 MSTORE PUSH1 0x1 PUSH1 0x20 SWAP1 DUP2 MSTORE PUSH1 0x40 DUP1 DUP4 KECCAK256 CALLER DUP5 MSTORE SWAP1 SWAP2 MSTORE SWAP1 KECCAK256 SLOAD DUP3 DUP2 LT ISZERO PUSH2 0x305 JUMPI PUSH1 0x40 MLOAD PUSH3 0x461BCD PUSH1 0xE5 SHL DUP2 MSTORE PUSH1 0x20 PUSH1 0x4 DUP3 ADD MSTORE PUSH1 0x28 PUSH1 0x24 DUP3 ADD MSTORE PUSH32 0x45524332303A207472616E7366657220616D6F756E7420657863656564732061 PUSH1 0x44 DUP3 ADD MSTORE PUSH8 0x6C6C6F77616E6365 PUSH1 0xC0 SHL PUSH1 0x64 DUP3 ADD MSTORE PUSH1 0x84 ADD JUMPDEST PUSH1 0x40 MLOAD DUP1 SWAP2 SUB SWAP1 REVERT JUMPDEST PUSH2 0x312 DUP6 CALLER DUP6 DUP5 SUB PUSH2 0x40E JUMP JUMPDEST POP PUSH1 0x1 SWAP5 SWAP4 POP POP POP POP JUMP JUMPDEST CALLER PUSH1 0x0 DUP2 DUP2 MSTORE PUSH1 0x1 PUSH1 0x20 SWAP1 DUP2 MSTORE PUSH1 0x40 DUP1 DUP4 KECCAK256 PUSH1 0x1 PUSH1 0x1 PUSH1 0xA0 SHL SUB DUP8 AND DUP5 MSTORE SWAP1 SWAP2 MSTORE DUP2 KECCAK256 SLOAD SWAP1 SWAP2 PUSH2 0x265 SWAP2 DUP6 SWAP1 PUSH2 0x354 SWAP1 DUP7 SWAP1 PUSH2 0x868 JUMP JUMPDEST PUSH2 0x40E JUMP JUMPDEST PUSH1 0x60 PUSH1 0x4 DUP1 SLOAD PUSH2 0x1D5 SWAP1 PUSH2 0x82D JUMP JUMPDEST CALLER PUSH1 0x0 SWAP1 DUP2 MSTORE PUSH1 0x1 PUSH1 0x20 SWAP1 DUP2 MSTORE PUSH1 0x40 DUP1 DUP4 KECCAK256 PUSH1 0x1 PUSH1 0x1 PUSH1 0xA0 SHL SUB DUP7 AND DUP5 MSTORE SWAP1 SWAP2 MSTORE DUP2 KECCAK256 SLOAD DUP3 DUP2 LT ISZERO PUSH2 0x3EA JUMPI PUSH1 0x40 MLOAD PUSH3 0x461BCD PUSH1 0xE5 SHL DUP2 MSTORE PUSH1 0x20 PUSH1 0x4 DUP3 ADD MSTORE PUSH1 0x25 PUSH1 0x24 DUP3 ADD MSTORE PUSH32 0x45524332303A2064656372656173656420616C6C6F77616E63652062656C6F77 PUSH1 0x44 DUP3 ADD MSTORE PUSH5 0x207A65726F PUSH1 0xD8 SHL PUSH1 0x64 DUP3 ADD MSTORE PUSH1 0x84 ADD PUSH2 0x2FC JUMP JUMPDEST PUSH2 0x3F7 CALLER DUP6 DUP6 DUP5 SUB PUSH2 0x40E JUMP JUMPDEST POP PUSH1 0x1 SWAP4 SWAP3 POP POP POP JUMP JUMPDEST PUSH1 0x0 PUSH2 0x265 CALLER DUP5 DUP5 PUSH2 0x532 JUMP JUMPDEST PUSH1 0x1 PUSH1 0x1 PUSH1 0xA0 SHL SUB DUP4 AND PUSH2 0x470 JUMPI PUSH1 0x40 MLOAD PUSH3 0x461BCD PUSH1 0xE5 SHL DUP2 MSTORE PUSH1 0x20 PUSH1 0x4 DUP3 ADD MSTORE PUSH1 0x24 DUP1 DUP3 ADD MSTORE PUSH32 0x45524332303A20617070726F76652066726F6D20746865207A65726F20616464 PUSH1 0x44 DUP3 ADD MSTORE PUSH4 0x72657373 PUSH1 0xE0 SHL PUSH1 0x64 DUP3 ADD MSTORE PUSH1 0x84 ADD PUSH2 0x2FC JUMP JUMPDEST PUSH1 0x1 PUSH1 0x1 PUSH1 0xA0 SHL SUB DUP3 AND PUSH2 0x4D1 JUMPI PUSH1 0x40 MLOAD PUSH3 0x461BCD PUSH1 0xE5 SHL DUP2 MSTORE PUSH1 0x20 PUSH1 0x4 DUP3 ADD MSTORE PUSH1 0x22 PUSH1 0x24 DUP3 ADD MSTORE PUSH32 0x45524332303A20617070726F766520746F20746865207A65726F206164647265 PUSH1 0x44 DUP3 ADD MSTORE PUSH2 0x7373 PUSH1 0xF0 SHL PUSH1 0x64 DUP3 ADD MSTORE PUSH1 0x84 ADD PUSH2 0x2FC JUMP JUMPDEST PUSH1 0x1 PUSH1 0x1 PUSH1 0xA0 SHL SUB DUP4 DUP2 AND PUSH1 0x0 DUP2 DUP2 MSTORE PUSH1 0x1 PUSH1 0x20 SWAP1 DUP2 MSTORE PUSH1 0x40 DUP1 DUP4 KECCAK256 SWAP5 DUP8 AND DUP1 DUP5 MSTORE SWAP5 DUP3 MSTORE SWAP2 DUP3 SWAP1 KECCAK256 DUP6 SWAP1 SSTORE SWAP1 MLOAD DUP5 DUP2 MSTORE PUSH32 0x8C5BE1E5EBEC7D5BD14F71427D1E84F3DD0314C0F7B2291E5B200AC8C7C3B925 SWAP2 ADD PUSH1 0x40 MLOAD DUP1 SWAP2 SUB SWAP1 LOG3 POP POP POP JUMP JUMPDEST PUSH1 0x1 PUSH1 0x1 PUSH1 0xA0 SHL SUB DUP4 AND PUSH2 0x596 JUMPI PUSH1 0x40 MLOAD PUSH3 0x461BCD PUSH1 0xE5 SHL DUP2 MSTORE PUSH1 0x20 PUSH1 0x4 DUP3 ADD MSTORE PUSH1 0x25 PUSH1 0x24 DUP3 ADD MSTORE PUSH32 0x45524332303A207472616E736665722066726F6D20746865207A65726F206164 PUSH1 0x44 DUP3 ADD MSTORE PUSH5 0x6472657373 PUSH1 0xD8 SHL PUSH1 0x64 DUP3 ADD MSTORE PUSH1 0x84 ADD PUSH2 0x2FC JUMP JUMPDEST PUSH1 0x1 PUSH1 0x1 PUSH1 0xA0 SHL SUB DUP3 AND PUSH2 0x5F8 JUMPI PUSH1 0x40 MLOAD PUSH3 0x461BCD PUSH1 0xE5 SHL DUP2 MSTORE PUSH1 0x20 PUSH1 0x4 DUP3 ADD MSTORE PUSH1 0x23 PUSH1 0x24 DUP3 ADD MSTORE PUSH32 0x45524332303A207472616E7366657220746F20746865207A65726F2061646472 PUSH1 0x44 DUP3 ADD MSTORE PUSH3 0x657373 PUSH1 0xE8 SHL PUSH1 0x64 DUP3 ADD MSTORE PUSH1 0x84 ADD PUSH2 0x2FC JUMP JUMPDEST PUSH1 0x1 PUSH1 0x1 PUSH1 0xA0 SHL SUB DUP4 AND PUSH1 0x0 SWAP1 DUP2 MSTORE PUSH1 0x20 DUP2 SWAP1 MSTORE PUSH1 0x40 SWAP1 KECCAK256 SLOAD DUP2 DUP2 LT ISZERO PUSH2 0x670 JUMPI PUSH1 0x40 MLOAD PUSH3 0x461BCD PUSH1 0xE5 SHL DUP2 MSTORE PUSH1 0x20 PUSH1 0x4 DUP3 ADD MSTORE PUSH1 0x26 PUSH1 0x24 DUP3 ADD MSTORE PUSH32 0x45524332303A207472616E7366657220616D6F756E7420657863656564732062 PUSH1 0x44 DUP3 ADD MSTORE PUSH6 0x616C616E6365 PUSH1 0xD0 SHL PUSH1 0x64 DUP3 ADD MSTORE PUSH1 0x84 ADD PUSH2 0x2FC JUMP JUMPDEST PUSH1 0x1 PUSH1 0x1 PUSH1 0xA0 SHL SUB DUP1 DUP6 AND PUSH1 0x0 SWAP1 DUP2 MSTORE PUSH1 0x20 DUP2 SWAP1 MSTORE PUSH1 0x40 DUP1 DUP3 KECCAK256 DUP6 DUP6 SUB SWAP1 SSTORE SWAP2 DUP6 AND DUP2 MSTORE SWAP1 DUP2 KECCAK256 DUP1 SLOAD DUP5 SWAP3 SWAP1 PUSH2 0x6A7 SWAP1 DUP5 SWAP1 PUSH2 0x868 JUMP JUMPDEST SWAP3 POP POP DUP2 SWAP1 SSTORE POP DUP3 PUSH1 0x1 PUSH1 0x1 PUSH1 0xA0 SHL SUB AND DUP5 PUSH1 0x1 PUSH1 0x1 PUSH1 0xA0 SHL SUB AND PUSH32 0xDDF252AD1BE2C89B69C2B068FC378DAA952BA7F163C4A11628F55A4DF523B3EF DUP5 PUSH1 0x40 MLOAD PUSH2 0x6F3 SWAP2 DUP2 MSTORE PUSH1 0x20 ADD SWAP1 JUMP JUMPDEST PUSH1 0x40 MLOAD DUP1 SWAP2 SUB SWAP1 LOG3 POP POP POP POP JUMP JUMPDEST PUSH1 0x0 PUSH1 0x20 DUP1 DUP4 MSTORE DUP4 MLOAD DUP1 DUP3 DUP6 ADD MSTORE PUSH1 0x0 JUMPDEST DUP2 DUP2 LT ISZERO PUSH2 0x72E JUMPI DUP6 DUP2 ADD DUP4 ADD MLOAD DUP6 DUP3 ADD PUSH1 0x40 ADD MSTORE DUP3 ADD PUSH2 0x712 JUMP JUMPDEST DUP2 DUP2 GT ISZERO PUSH2 0x740 JUMPI PUSH1 0x0 PUSH1 0x40 DUP4 DUP8 ADD ADD MSTORE JUMPDEST POP PUSH1 0x1F ADD PUSH1 0x1F NOT AND SWAP3 SWAP1 SWAP3 ADD PUSH1 0x40 ADD SWAP4 SWAP3 POP POP POP JUMP JUMPDEST DUP1 CALLDATALOAD PUSH1 0x1 PUSH1 0x1 PUSH1 0xA0 SHL SUB DUP2 AND DUP2 EQ PUSH2 0x76D JUMPI PUSH1 0x0 DUP1 REVERT JUMPDEST SWAP2 SWAP1 POP JUMP JUMPDEST PUSH1 0x0 DUP1 PUSH1 0x40 DUP4 DUP6 SUB SLT ISZERO PUSH2 0x785 JUMPI PUSH1 0x0 DUP1 REVERT JUMPDEST PUSH2 0x78E DUP4 PUSH2 0x756 JUMP JUMPDEST SWAP5 PUSH1 0x20 SWAP4 SWAP1 SWAP4 ADD CALLDATALOAD SWAP4 POP POP POP JUMP JUMPDEST PUSH1 0x0 DUP1 PUSH1 0x0 PUSH1 0x60 DUP5 DUP7 SUB SLT ISZERO PUSH2 0x7B1 JUMPI PUSH1 0x0 DUP1 REVERT JUMPDEST PUSH2 0x7BA DUP5 PUSH2 0x756 JUMP JUMPDEST SWAP3 POP PUSH2 0x7C8 PUSH1 0x20 DUP6 ADD PUSH2 0x756 JUMP JUMPDEST SWAP2 POP PUSH1 0x40 DUP5 ADD CALLDATALOAD SWAP1 POP SWAP3 POP SWAP3 POP SWAP3 JUMP JUMPDEST PUSH1 0x0 PUSH1 0x20 DUP3 DUP5 SUB SLT ISZERO PUSH2 0x7EA JUMPI PUSH1 0x0 DUP1 REVERT JUMPDEST PUSH2 0x7F3 DUP3 PUSH2 0x756 JUMP JUMPDEST SWAP4 SWAP3 POP POP POP JUMP JUMPDEST PUSH1 0x0 DUP1 PUSH1 0x40 DUP4 DUP6 SUB SLT ISZERO PUSH2 0x80D JUMPI PUSH1 0x0 DUP1 REVERT JUMPDEST PUSH2 0x816 DUP4 PUSH2 0x756 JUMP JUMPDEST SWAP2 POP PUSH2 0x824 PUSH1 0x20 DUP5 ADD PUSH2 0x756 JUMP JUMPDEST SWAP1 POP SWAP3 POP SWAP3 SWAP1 POP JUMP JUMPDEST PUSH1 0x1 DUP2 DUP2 SHR SWAP1 DUP3 AND DUP1 PUSH2 0x841 JUMPI PUSH1 0x7F DUP3 AND SWAP2 POP JUMPDEST PUSH1 0x20 DUP3 LT DUP2 EQ ISZERO PUSH2 0x862 JUMPI PUSH4 0x4E487B71 PUSH1 0xE0 SHL PUSH1 0x0 MSTORE PUSH1 0x22 PUSH1 0x4 MSTORE PUSH1 0x24 PUSH1 0x0 REVERT JUMPDEST POP SWAP2 SWAP1 POP JUMP JUMPDEST PUSH1 0x0 DUP3 NOT DUP3 GT ISZERO PUSH2 0x889 JUMPI PUSH4 0x4E487B71 PUSH1 0xE0 SHL PUSH1 0x0 MSTORE PUSH1 0x11 PUSH1 0x4 MSTORE PUSH1 0x24 PUSH1 0x0 REVERT JUMPDEST POP ADD SWAP1 JUMP INVALID LOG2 PUSH5 0x6970667358 0x22 SLT KECCAK256 SWAP2 SELFBALANCE BLOCKHASH PUSH32 0x41D281300CEC2A9F644C0521D6E4697B4AF5985BC81DFE0F3C829C0064736F6C PUSH4 0x43000809 STOP CALLER LOG2 PUSH5 0x6970667358 0x22 SLT KECCAK256 SHR PUSH24 0x35FC9B64141619A1475F5430652E71E3555D3C88FB9FE8A5 PUSH9 0x136513514F64736F6C PUSH4 0x43000809 STOP CALLER ",
  "sha1": "70cdaa0f7709f83e5115459afba93bbf1e571de7",
  "source": "// SPDX-License-Identifier: MIT\npragma solidity >=0.8.0 <0.9.0;\n\nimport \"@openzeppelin/contracts/token/ERC20/ERC20.sol\";\nimport \"@openzeppelin/contracts/token/ERC721/ERC721.sol\";\n\nimport \"./ERC20Factory.sol\";\n\n// @title NFT Fractionalizer with Buyout Functionality\n// @author Web3Wannabe\n// @notice NFTs can be sent to the contract with a specified buyout price. The sender receives the total supply of a newly created ERC20 token.\ncontract FractionalizeNFT is IERC721Receiver {\n\n    mapping(uint256 => FractionalizedNFT) public fracNFTs; // A mapping of all fractionalized NFTs.\n    uint256 public fracNFTCount = 0;\n\n    struct FractionalizedNFT {\n        uint256 fracNFTId;\n        uint256 nftTokenId;\n        address erc721Address;\n        address erc20Address;\n        string erc20Symbol;\n        string erc20Name;\n        address payable originalOwner;\n        uint256 buyoutPrice;\n        State state;\n    }\n\n    enum State {\n        Fractionalized,\n        Redeemed,\n        BoughtOut\n    }\n\n    constructor() {}\n\n    /// @notice Emitted when ether is sent to the contract.\n    /// @param sender The sender of the transaction/ether.\n    /// @param value The amount of ether sent.\n    event Received(address indexed sender, uint256 indexed value);\n\n    /// @notice Emitted when an NFT is transferred to the FractionalizeNFT contract.\n    /// @param sender The address that sent the NFT.\n    event NftReceived(address indexed sender);\n\n    /// @notice Emitted when a user successfully fractionalizes an NFT and receives the total supply of the newly created ERC20 token.\n    /// @param sender The address that sent/fractionalized the NFT (i.e., the address that called fractionalize()).\n    /// @param fracNFTId The ID of the newly fractionalized NFT.\n    /// @param erc20Name The name of the newly created ERC20 token.\n    /// @param erc20Address The contract address of the newly created ERC20 token.\n    event Fractionalized(\n        address indexed sender,\n        uint256 indexed fracNFTId,\n        string indexed erc20Name,\n        address erc20Address\n    );\n\n    /// @notice Emitted when a user successfully redeems an NFT in exchange for the total ERC20 supply.\n    /// @param sender The address that redeemed the NFT (i.e., the address that called redeem()).\n    /// @param fracNFTId The index of the fractionalized NFT that was redeemed.\n    event Redeemed(address indexed sender, uint256 indexed fracNFTId);\n\n    /// @notice Emitted when a user successfully claims a payout following the buyout of an NFT from the FractionalizeNFT contract.\n    /// @param sender The address that the user held ERC20 tokens for (i.e., the address that called claim()).\n    /// @param fracNFTId The index of the fractionalized NFT that was bought.\n    event Claimed(address indexed sender, uint256 indexed fracNFTId);\n\n    /// @notice Emitted when a user successfully buys an NFT from the FractionalizeNFT contract.\n    /// @param sender The address that bought the NFT (i.e., the address that called buyout()).\n    /// @param fracNFTId The index of the fractionalized NFT that was bought.\n    event BoughtOut(address indexed sender, uint256 indexed fracNFTId);\n\n    /// @notice List of all fractionalized NFT ids.\n    /// @dev Used as a helper when iterating over fractionalized NFTs in frontend clients.\n    uint256[] public idList;\n\n    /// @notice idList length.\n    /// @dev Used as a helper when iterating over fractionalized NFTs in frontend clients.\n    uint256 public idListLength;\n\n    receive() external payable {\n        emit Received(msg.sender, msg.value);\n    }\n\n    fallback() external payable {\n        revert();\n    }\n\n    /// @notice A getter function for the contract address of a fractionalized NFT's ERC20 token.\n    /// @param fracNFTId The ID of the fractionalized NFT.\n    /// @return The ERC20 contract address.\n    function getERC20Address(uint256 fracNFTId) public view returns (address) {\n        return fracNFTs[fracNFTId].erc20Address;\n    }\n\n    /// @notice A getter function for the symbol of a fractionalized NFT's ERC20 token.\n    /// @param fracNFTId The ID of the fractionalized NFT.\n    /// @return The ERC20's symobl.\n    function getERC20Symbol(uint256 fracNFTId)\n        public\n        view\n        returns (string memory)\n    {\n        return fracNFTs[fracNFTId].erc20Symbol;\n    }\n\n    /// @notice A getter function for the state of a fractionalized NFT.\n    /// @param fracNFTId The ID of the fractionalized NFT.\n    /// @return The fractionalized NFT's state (Fractionalized, Redeemed or BoughtOut).\n    function getState(uint256 fracNFTId) public view returns (State) {\n        return fracNFTs[fracNFTId].state;\n    }\n\n    /// @notice Create a fractionalized NFT: Lock the NFT in the contract; create a new ERC20 token, as specified; and transfer the total supply of the token to the sender.\n    /// @param nftContractAddress The address of the NFT that is to be fractionalized.\n    /// @param nftTokenId The token ID of the NFT that is to be fractionalized.\n    /// @param erc20Name The name of the newly created ERC20 token.\n    /// @param erc20Symbol The symbol of the newly created ERC20 token.\n    /// @param erc20Supply The total supply of the newly created ERC20 token.\n    /// @param buyoutPrice The price (in Wei) for which the fractionalized NFT can be be bought for from the contract.\n    /// @dev Note, the NFT must be approved for transfer by the FractionalizeNFT contract.\n    /// @return The ID of the newly created fractionalized NFT.\n    function fractionalizeNft(\n        address nftContractAddress,\n        uint256 nftTokenId,\n        string memory erc20Name,\n        string memory erc20Symbol,\n        uint256 erc20Supply,\n        uint256 buyoutPrice\n    ) public returns (uint256) {\n        ERC721 nft = ERC721(nftContractAddress);\n        nft.safeTransferFrom(msg.sender, address(this), nftTokenId);\n        ERC20 erc20 = (new ERC20Factory)(\n            erc20Name,\n            erc20Symbol,\n            erc20Supply,\n            msg.sender\n        );\n        uint256 fracNFTId = fracNFTCount;\n        fracNFTs[fracNFTCount] = FractionalizedNFT({\n            fracNFTId: fracNFTId,\n            nftTokenId: nftTokenId,\n            erc721Address: nftContractAddress,\n            erc20Address: address(erc20),\n            erc20Symbol: erc20Symbol,\n            erc20Name: erc20Name,\n            originalOwner: payable(msg.sender),\n            buyoutPrice: buyoutPrice,\n            state: State.Fractionalized\n        });\n        idList.push(fracNFTCount);\n        idListLength = idList.length;\n        fracNFTCount += 1;\n        emit Fractionalized(msg.sender, fracNFTId, erc20Symbol, address(erc20));\n        return fracNFTId;\n    }\n\n    /// @notice A holder of the entire ERC20 supply can call redeem in order to receive the underlying NFT from the contract. The ERC20 tokens get transferred to the contract address.\n    /// @param fracNFTId The ID of the fractionalized NFT to redem.\n    /// @dev Note, the ERC20 must be approved for transfer by the FractionalizeNFT contract before calling redeem().\n    function redeem(uint256 fracNFTId) public {\n        ERC20 erc20 = ERC20(fracNFTs[fracNFTId].erc20Address);\n        uint256 redeemerBalance = erc20.balanceOf(msg.sender);\n        uint256 erc20Supply = erc20.totalSupply();\n        require(\n            redeemerBalance == erc20Supply,\n            \"Redeemeer does not hold the entire supply.\"\n        );\n        erc20.transferFrom(msg.sender, address(this), redeemerBalance);\n        ERC721 erc721 = ERC721(fracNFTs[fracNFTId].erc721Address);\n        erc721.safeTransferFrom(\n            address(this),\n            msg.sender,\n            fracNFTs[fracNFTId].nftTokenId\n        );\n        emit Redeemed(msg.sender, fracNFTId);\n    }\n\n    /// @notice Allows a holder of the ERC20 tokens to claim his share of the sale proceedings (in ether) following a buyout of the fractionalized NFT.\n    /// @param fracNFTId The ID of the fractionalized NFT to claim a payout for.\n    /// @dev Note, the ERC20 must be approved for transfer by the FractionalizeNFT contract before calling claim().\n    function claim(uint256 fracNFTId) public {\n        require(\n            fracNFTs[fracNFTId].state == State.BoughtOut,\n            \"Fractionalized NFT has not been bought out.\"\n        );\n        ERC20 erc20 = ERC20(fracNFTs[fracNFTId].erc20Address);\n        uint256 claimerBalance = erc20.balanceOf(msg.sender);\n        require(claimerBalance > 0, \"Claimer does not hold any tokens.\");\n        erc20.transferFrom(msg.sender, address(this), claimerBalance);\n        uint256 erc20Supply = erc20.totalSupply();\n        uint256 claimAmountWei = (fracNFTs[fracNFTId].buyoutPrice *\n            claimerBalance) / erc20Supply;\n        payable(msg.sender).transfer(claimAmountWei);\n        emit Claimed(msg.sender, fracNFTId);\n    }\n\n    /// @notice Allows an account to buy the NFT from the contract for the specified buyout price.\n    /// @param fracNFTId The ID of the fractionalized NFT to buy.\n    function buyout(uint256 fracNFTId) public payable {\n        // A buyer can buy the NFT as specified by the buyout price by sending ETH to the contract.\n        require(\n            msg.value >= fracNFTs[fracNFTId].buyoutPrice,\n            \"Sender sent less than the buyout price.\"\n        );\n        fracNFTs[fracNFTId].state = State.BoughtOut;\n        ERC721 erc721 = ERC721(fracNFTs[fracNFTId].erc721Address);\n        erc721.safeTransferFrom(\n            address(this),\n            msg.sender,\n            fracNFTs[fracNFTId].nftTokenId\n        );\n        emit BoughtOut(msg.sender, fracNFTId);\n    }\n\n    /// @dev Required to use safeTransferFrom() from OpenZeppelin's ERC721 contract (when transferring NFTs to this contract).\n    function onERC721Received(\n        address operator,\n        address from,\n        uint256 nftTokenId,\n        bytes memory data\n    ) public returns (bytes4) {\n        emit NftReceived(msg.sender);\n        return\n            bytes4(\n                keccak256(\"onERC721Received(address,address,uint256,bytes)\")\n            );\n    }\n}\n",
  "sourcePath": "contracts/FractionalizeNFT.sol",
  "type": "contract"
}